:100000000C94B10F0C94EA0F0C94EA0F0C94EA0FC5
:100010000C94EA0F0C94EA0F0C94EA0F0C94EA0F7C
:100020000C94EA0F0C94EA0F0C94C2B70C943FB8EE
:100030000C94EA0F0C94EA0F0C94EA0F0C94EA0F5C
:100040000C94EA0F0C94E07B0C94EA0F0C94EA0FEA
:100050000C94EA0F0C94E8880C94EA0F0C9421B7E6
:100060000C94EA0F0C94EA0F0C94EA0F0C94EA0F2C
:100070000C94EA0F0C94EA0F0C94EA0F0C94EA0F1C
:100080000C94EA0F0C94EA0F0C94EA0F0C94EA0F0C
:100090000C9495B30C94EA0F4E414E494E49545975
:1000A000494E46CDCCCC3D0AD7233C17B7D1387743
:1000B000CC2B329595E6241FB14F0A000020410059
:1000C00000C84200401C4620BCBE4CCA1B0E5AAEA3
:1000D000C59D744572726F722077726974696E671C
:1000E00020746F20454550524F4D210A002020506A
:1000F0006C616E6E65724275666665724279746592
:10010000733A20002046726565204D656D6F7279E7
:100110003A200020436F6D70696C65643A204A6133
:100120006E20203120323032330A00204C6173744B
:1001300020557064617465643A20323032332D305A
:10014000312D3031207C20417574686F723A20283F
:100150004A65726F6D65205061756C290A004D61AA
:10016000726C696E206275676669782D322E312E49
:10017000780A0020536F6674776172652052657348
:1001800065740A00205761746368646F6720526564
:100190007365740A002042726F776E206F75742049
:1001A00052657365740A002045787465726E616CDF
:1001B0002052657365740A00506F77657255700A36
:1001C0000073746172740A005072696E74657220F3
:1001D00068616C7465642E206B696C6C28292063DF
:1001E000616C6C6564210A00746F6F206D756368C3
:1001F00020696E6163746976652074696D65202D70
:100200002063757272656E7420636F6D6D616E64CC
:100210003A20002121204B494C4C206361757365C5
:100220006420627920004D31303031004732385837
:1002300059004D3131322053687574646F776E0008
:100240004F4646004F4E004572726F723A0065632A
:10025000686F3A0020453A00205A3A0020593A0087
:10026000583A00204500205A00205900205800002C
:1002700020540029002028002900202800537465FC
:10028000707065722063757272656E742076616C31
:1002900075657320696E20252028416D7073293A99
:1002A0000A00203B204C6576656C696E6720002053
:1002B000204D3432302053004175746F2042656404
:1002C000204C6576656C696E6700426564204C65FC
:1002D00076656C696E6720004661696C65642074A0
:1002E0006F20656E61626C6520426564204C6576A6
:1002F000656C696E670A00426564204C6576656CC2
:1003000020436F7272656374696F6E204D61747201
:1003100069783A000A0A426564204C6576656C206B
:10032000436F7272656374696F6E204D6174726998
:10033000783A002F332E0A0050726F62696E672080
:10034000706F696E742000202844525952554E290E
:1003500000473239204175746F20426564204C6536
:1003600076656C696E67003F2856296572626F7307
:1003700065206C6576656C20696D706C617573695C
:10038000626C652028302D34292E0A005A205072C4
:100390006F62652050617374204265640A005A20C0
:1003A00050726F6265205061737420426564002052
:1003B000530020204D323035204200416476616E7A
:1003C0006365642028423C6D696E5F7365676D6587
:1003D0006E745F74696D655F75733E20533C6D6923
:1003E0006E5F66656564726174653E20543C6D693C
:1003F0006E5F74726176656C5F6665656472617468
:10040000653E20583C6D61785F6A65726B3E20598D
:100410003C6D61785F6A65726B3E205A3C6D617815
:100420005F6A65726B3E20453C6D61785F6A6572FC
:100430006B3E290020520020204D323034205000E5
:10044000416363656C65726174696F6E2028756EB7
:100450006974732F7332292028503C7072696E744E
:100460002D616363656C3E20523C726574726163FA
:10047000742D616363656C3E20543C7472617665D3
:100480006C2D616363656C3E290020204D32303352
:100490002058004D617820666565647261746573EB
:1004A0002028756E6974732F73290020204D323017
:1004B000312058004D617820416363656C6572613D
:1004C00074696F6E2028756E6974732F73322900FA
:1004D00020440020204D3230302053002028446931
:1004E0007361626C6564293A0046696C616D656E82
:1004F000742073657474696E67730046523A002005
:10050000466C6F773A200020440020490020204D9F
:10051000333031205000486F74656E642050494478
:100520000043290A0061626C656420286D696E20B1
:1005300074656D70200064697300656E00436F6CB4
:10054000642065787472756465732061726520003B
:1005500020440020490020204D33303420500042F8
:100560006564205049440020204D39322058005302
:10057000746570732070657220756E6974006F66A3
:10058000660044454255473A00B405AF05A805A1A9
:10059000059305434F4D4D554E49434154494F4EE8
:1005A0000044525952554E004552524F5253004941
:1005B0004E464F004543484F004E6F204D6F7665C5
:1005C0002E0020204D61783A2000200020204D6927
:1005D0006E3A2000203B200020204D323131205344
:1005E00000536F667420656E6473746F707300508F
:1005F00072696E7472626F742053696D706C6520DD
:100600004D6574616C204F46462E00454550524F53
:100610004D204F4B0A0020204D393030204B004CEC
:10062000696E65617220416476616E636500416444
:1006300076616E6365204B3D002E0A002028302D28
:10064000313029002076616C7565206F7574206FDC
:10065000662072616E676500627573793A20706119
:100660007573656420666F7220696E7075740A0018
:10067000627573793A2070617573656420666F7274
:1006800020757365720A00627573793A2070726F13
:1006900063657373696E670A0020496E76616C69E1
:1006A00064206578747275646572200020286D6D11
:1006B00029003B2000546F6F206661722066726FC4
:1006C0006D207265666572656E636520706F696E18
:1006D000740A0020204D323036205800486F6D6576
:1006E000206F666673657400FF01FF000000000064
:1006F000001843000000004F666673657473204164
:1007000070706C696564004D313133205300434F84
:100710004E4649475F4558504F5254004D4541544D
:100720005041434B00434F4F4C45525F54454D5051
:1007300045524154555245004348414D4245525F50
:1007400054454D504552415455524500424142593D
:100750005354455050494E470041524353004D4F6A
:1007600054494F4E5F4D4F44455300544845524DF8
:10077000414C5F50524F54454354494F4E004558E9
:1007800054454E4445445F4D323000435553544F19
:100790004D5F4649524D574152455F55504C4F4170
:1007A00044004C464E5F5752495445004C4F4E470B
:1007B0005F46494C454E414D45004155544F5245C9
:1007C000504F52545F53445F535441545553005358
:1007D000445F575249544500524550454154004DDD
:1007E000554C54495F564F4C554D45005344434179
:1007F00052440050524F4D50545F535550504F5239
:100800005400484F53545F414354494F4E5F434F48
:100810004D4D414E445300454D455247454E435979
:100820005F50415253455200434153455F4C494745
:1008300048545F4252494748544E45535300544F21
:1008400047474C455F4C494748545300534F465423
:10085000574152455F504F574552004255494C440D
:100860005F50455243454E54004C4556454C494E09
:10087000475F44415441005A5F50524F4245005235
:10088000554E4F5554004155544F4C4556454C001C
:100890005052494E545F4A4F420050524F475245C2
:1008A0005353004155544F5245504F52545F544595
:1008B0004D50004155544F5245504F52545F504F88
:1008C0005300564F4C554D455452494300454550F1
:1008D000524F4D0042494E4152595F46494C455F87
:1008E0005452414E534645520053455249414C5F84
:1008F000584F4E5F584F4646004649524D57415259
:10090000455F4E414D453A4D61726C696E2062758E
:10091000676669782D322E312E7820284A616E2044
:10092000203120323032332031393A35343A3038C0
:100930002920534F555243455F434F44455F55521D
:100940004C3A6769746875622E636F6D2F4D6172E2
:100950006C696E4669726D776172652F4D61726C5C
:10096000696E2050524F544F434F4C5F564552537F
:10097000494F4E3A312E30204D414348494E455F54
:10098000545950453A5072696E7472626F742053B4
:10099000696D706C65204D6574616C2045585452CA
:1009A000554445525F434F554E543A3120555549B1
:1009B000443A66666164356563382D313933332DC9
:1009C000343164362D613234312D66393032666609
:1009D000343162323536004361703A002F2F0053B4
:1009E0006C6565702E2E2E00220A00556E6B6E6FA0
:1009F000776E20636F6D6D616E643A202200205A1D
:100A00003A200020593A200042656420583A2000DC
:100A1000203B0020204D3835312058005A2D50728F
:100A20006F6265204F666673657400290A00207442
:100A30006F20003F5A206F7574206F662072616EC0
:100A40006765202800290A0020746F20003F592084
:100A50006F7574206F662072616E676520282D00A7
:100A6000290A0020746F20003F58206F7574206F92
:100A7000662072616E676520282D00446F6E6520C8
:100A8000736176696E672066696C652E0A0053444F
:100A90002072656164206572726F720A005072691B
:100AA0006E7465722073746F707065642064756510
:100AB00020746F206572726F72732E2046697820E1
:100AC000746865206572726F7220616E6420757340
:100AD00065204D39393920746F20726573746172E5
:100AE000742E202854656D7065726174757265206E
:100AF00069732072657365742E2053657420697460
:100B00002061667465722072657374617274696EB7
:100B100067290A004E6F20436865636B73756D200B
:100B200077697468206C696E65206E756D62657298
:100B30002C204C617374204C696E653A20004E6F16
:100B400020436865636B73756D2077697468206CEA
:100B5000696E65206E756D6265722C204C617374D0
:100B6000204C696E653A2000636865636B73756D30
:100B7000206D69736D617463682C204C61737420FF
:100B80004C696E653A20004C696E65204E756D6249
:100B90006572206973206E6F74204C617374204CF1
:100BA000696E65204E756D6265722B312C204C612B
:100BB0007374204C696E653A20004D31313000531A
:100BC000657269616C20737461747573206D6973EB
:100BD0006D617463680A00776169740A004D323987
:100BE000006F6B0A00526573656E643A20006F6B8C
:100BF000004732380053544F505045442E20004D8A
:100C0000383400446F6E65207072696E74696E6767
:100C10002066696C650A004D3737004D3331004E50
:100C20006F206D656469610A00456E642066696CB9
:100C300065206C6973740A00426567696E20666995
:100C40006C65206C6973740A0043757272656E740A
:100C50002066696C653A20005072696E7420746970
:100C60006D653A20002569730025696D202569733B
:100C7000002569682025696D202569730025696450
:100C8000202569682025696D20256973002569790B
:100C900020256964202569682025696D20256973F0
:100CA000006F6B0042656420436F6F6C696E672E46
:100CB0002E2E004265642048656174696E672E2E91
:100CC0002E00206661696C656421204261642068A1
:100CD00065617465722069640A0050494420417559
:100CE000746F74756E6500504944204175746F745B
:100CF000756E65007A5F6D696E00795F6D61780071
:100D0000785F6D696E005265706F7274696E6720EE
:100D1000656E6473746F70207374617475730A0008
:100D20006F70656E00545249474745524544003A3A
:100D30002000205A3A0020593A0020583A00656EA7
:100D40006473746F7073206869743A2000486F6D23
:100D5000696E67204661696C6564005761726E69EF
:100D60006E673A20486F6D696E672042756D70201E
:100D700044697669736F72203C20310A00020204D4
:100D800020746F6F206C6F6E672065787472757356
:100D9000696F6E2070726576656E7465640A0020F6
:100DA000636F6C6420657874727573696F6E207000
:100DB000726576656E7465640A000000A0400000EC
:100DC000A04000000040000018430000184300004D
:100DD00018430000184300001843000018430000A7
:100DE00000000000000000000000486F6D65202535
:100DF00073257325732046697273740020746F6FB6
:100E0000206C6F6E6720657874727573696F6E20E1
:100E100070726576656E7465640A0020636F6C6439
:100E200020657874727573696F6E2070726576656F
:100E30006E7465640A0050726F62696E6720466165
:100E4000696C65640A00205A3A200020593A200053
:100E500042656420583A200050726F62696E6720C4
:100E60004661696C65640020204D3134392043208F
:100E70003B20556E69747320696E2043656C7369FD
:100E800075730A0054656D706572617475726520C2
:100E9000556E697473002020473231203B004C6945
:100EA0006E65617220556E69747300486172646387
:100EB0006F6465642044656661756C742053657465
:100EC00074696E6773204C6F6164656400290A0061
:100ED0002062797465733B20637263200020737411
:100EE0006F7265642073657474696E6773207265D0
:100EF00074726965766564202800202863616C63DC
:100F0000756C6174656429210A0020213D2000452B
:100F10004550524F4D20435243206D69736D6174AB
:100F20006368202D202873746F7265642920002067
:100F300053697A653A2000496E6465783A2000204A
:100F40004D61726C696E3D563837290A004545502F
:100F5000524F4D2076657273696F6E206D69736DA7
:100F6000617463682028454550524F4D3D00290A61
:100F7000002062797465733B2063726320005365BF
:100F80007474696E67732053746F726564202800EF
:100F9000454550524F4D206461746173697A6520F4
:100FA0006572726F722E0A000000FA420000FA4267
:100FB0000000A040000060410000A0420000A042EC
:100FC0000000C8430000C042B80B0000B80B00008E
:100FD00064000000102700004E6F20454550524F1E
:100FE0004D2E0A0053657474696E67732053746FD5
:100FF0007265640020436F756E7420583A00752A3C
:101000000000E61B00008D10000020090000CF0446
:1010100000007802000040010000A100000024F45C
:10102000D43050C38E20C2A24017828B7011127A26
:10103000910D816CD90AA861E108C7586607615112
:1010400043061E4B5D05C145A7041A411104093D25
:101050009803713931034036DB0265339102D43095
:101060005402802E1D02632CEE01752AC501B028A2
:10107000A001102781018F2564012B244B01E02260
:101080003401AC211F018D200D01801FFC00841E46
:10109000ED00971DDF00B81CD200E61BC600201B28
:1010A000BC00641AB200B219A8000A19A0006A189C
:1010B0009900D117910040178B00B51684003116A6
:1010C0007E00B31579003A157300C7146F005814E9
:1010D0006A00EE1366008813630025135E00C712D2
:1010E0005B006C12570015125400C11151007011B1
:1010F0004F0021114B00D61049008D1047004610BB
:10110000440002104200C00F4000800F3E00420F1A
:101110003C00060F3B00CB0E3800930E37005C0EF0
:101120003500270E3400F30D3200C10D3100900D53
:101130003000600D2E00320D2D00050D2C00D90C55
:101140002B00AE0C2900850C29005C0C2700350C07
:1011500027000E0C2600E80B2400C40B2400A00B73
:1011600023007D0B23005A0B2100390B2100180BA3
:101170002000F80A1F00D90A1E00BB0A1E009D0AA3
:101180001D00800A1D00630A1C00470A1B002C0A70
:101190001B00110A1A00F7091A00DD091900C40919
:1011A0001900AB091900920917007B09180063099F
:1011B00017004C09160036091600200916000A0906
:1011C0001500F5081500E0081400CC081400B80854
:1011D0001400A4081400900813007D0812006B0886
:1011E00013005808120046081200340811002308A2
:1011F00011001208110001081100F0071000E007AB
:101200001000D0071000C0071000B0070F00A107A2
:10121000100091070E0083070F0074070F00650789
:101220000E0057070E0049070E003B070D002E0762
:101230000E0020070D0013070D0006070D00F9062C
:101240000C00ED060D00E0060C00D4060C00C806EC
:101250000C00BC060C00B0060C00A4060B0099069E
:101260000C008D060B0082060B0077060B006C0647
:101270000B0061060A0057060B004C060A004206E6
:101280000A0038060A002E060A0024060A001A067A
:101290000A001006090007060A00FD050900F4050A
:1012A0000900EB050900E2050900D9050900D00590
:1012B0000900C7050900BE050900B5050800AD0510
:1012C0000800A50509009C050800940508008C0588
:1012D0000800840508007C050800740508006C05FA
:1012E0000700650508005D050700560508004E0566
:1012F00007004705070040050800380507003105CD
:1013000007002A050700230507001C05060016052F
:1013100007000F0507000805060002050700FB048B
:101320000600F5040700EE040600E8040600E204E7
:101330000700DB040600D5040600CF040600C9043C
:101340000600C3040600BD040600B7040600B1048D
:101350000500AC040600A6040600A00405009B04DA
:10136000060095040500900406008A040500850423
:101370000500800406007A04050075040500700469
:1013800005006B04050066040500610405005C04AB
:10139000050057040500520405004D0405004804EB
:1013A0000500430405003E0404003A04050035042A
:1013B0000500300404002C04050027040400230465
:1013C00005001E0404001A0404001604050011049C
:1013D00004000D04040009040500040404000004D2
:1013E0000400FC030400F8030400F4030400F00309
:1013F0000400EC030400E8030400E4030400E00339
:101400000400DC030400D8030400D4030400D00368
:101410000400CC030400C8030300C503030024F444
:1014200004D9201BC40C5C0E9804C4095F02650734
:101430007101F405F900FB04B30048048700C103FF
:1014400069005803550003034500BE023A008402B8
:10145000310053022A002902250004022000E40181
:101460001C00C8011900AF01170098011400840185
:101470001300710110006101100051010E004301C1
:101480000D0036010B002B010B0020010B00150194
:1014900009000C01090003010800FB000800F3002B
:1014A0000800EB000700E4000600DE000600D8009C
:1014B0000600D2000600CC000500C7000500C200EF
:1014C0000500BD000400B9000400B5000400B1002F
:1014D0000400AD000400A9000400A5000300A20060
:1014E00003009F0004009B00030098000300950088
:1014F000020093000300900003008D0002008B00A7
:1015000003008800020086000200840003008100BE
:1015100002007F0002007D0002007B0002007900D3
:1015200002007700010076000200740002007200E1
:101530000100710002006F0002006D0001006C00EC
:1015400002006A00010069000200670001006600F5
:1015500001006500010064000200620001006100FA
:101560000100600001005F0002005D0001005C00FE
:1015700001005B0001005A00010059000100580001
:101580000100570001005600010055000100540001
:1015900001005300000053000100520001005100FF
:1015A0000100500001004F0001004E0000004E00FD
:1015B00001004D0001004C0001004B0000004B00F9
:1015C00001004A00010049000100480000004800F5
:1015D00001004700010046000000460001004500F0
:1015E00000004500010044000100430000004300EA
:1015F00001004200000042000100410000004100E3
:101600000100400001003F0000003F0001003E00DB
:1016100000003E0001003D0000003D0001003C00D4
:1016200000003C0000003C0001003B0000003B00CB
:1016300001003A0000003A000100390000003900C2
:1016400001003800000038000000380001003700B9
:1016500000003700010036000000360000003600B0
:1016600001003500000035000000350001003400A5
:10167000000034000000340001003300000033009B
:101680000000330001003200000032000000320090
:101690000100310000003100000031000100300085
:1016A000000030000000300001002F0000002F007B
:1016B00000002F0000002F0001002E0000002E006F
:1016C00000002E0001002D0000002D0000002D0064
:1016D00000002D0001002C0000002C0000002C0058
:1016E00000002C0001002B0000002B0000002B004C
:1016F00000002B0001002A0000002A0000002A0040
:1017000000002A0001002900000029000000290033
:101710000000290000002900010028000000280026
:101720000000280000002800000028000100270019
:10173000000027000000270000002700000027000D
:101740000100260000002600000026000000260000
:1017500000002600010025000000250000002500F3
:1017600000002500000025000000250001002400E5
:1017700000002400000024000000240000002400D9
:1017800001002300000023000000230000002300CC
:1017900000002300000023000000230001002200BD
:1017A00000002200000022000000220000002200B1
:1017B00000002200010021000000210000002100A3
:1017C0000000210000002100000021000000210095
:1017D0000100200000002000000020000000200088
:1017E0000000200000002000000020000000200079
:1017F00001001F0000001F0000001F0000001F006C
:1018000000001F0000001F0000001F0001001E005C
:1018100000001E0000001E0000001E0000002057F7
:101820003A0020573A002042403A0020403A002037
:101830002F00202D20496E76616C696420657874D4
:101840007275646572206E756D62657220210A0082
:101850004D494E54454D50207472696767657265F5
:1018600064004D415854454D502074726967676556
:10187000726564004500626564002C20737973749E
:10188000656D2073746F70706564212048656174A4
:1018900065725F49443A2000453100004B642000E6
:1018A0004B6920004B702000626564002066696E01
:1018B0006973686564212050757420746865206CB4
:1018C000617374204B702C204B6920616E64204B37
:1018D0006420636F6E7374616E74732066726F6DD3
:1018E0002062656C6F7720696E746F20436F6E663F
:1018F000696775726174696F6E2E680A0050494499
:10190000204175746F74756E6500206661696C6541
:1019100064212074696D656F75740A005049442014
:101920004175746F74756E6500206661696C6564DD
:10193000212054656D706572617475726520746FD5
:101940006F20686967680A00504944204175746FC8
:1019500074756E6500204B643A2000204B693A2074
:1019600000204B703A200020436C61737369632040
:10197000504944200A00204E6F206F7665727368CC
:101980006F6F740A002054753A2000204B753A207E
:1019900000206D61783A2000206D696E3A200020A9
:1019A000643A200020626961733A200020737461F8
:1019B00072740A00504944204175746F74756E65E5
:1019C00000206661696C6564212054656D706572E4
:1019D000617475726520746F6F20686967680A00AA
:1019E000504944204175746F74756E6500236465B9
:1019F00066696E652044454641554C545F00486514
:101A00006174696E67206661696C6564005468651D
:101A1000726D616C2052756E61776179001000AD56
:101A20000330016A0150022B0170030A019004F592
:101A300000B005E500D006D800F007CE001009C5BB
:101A400000300ABE00500BB700700CB100900DAB17
:101A500000B00EA600D00FA200F0109D0010129949
:101A600000301395005014920070158E0090168B64
:101A700000B0178700D0188400F0198100101B7E79
:101A800000301C7B00501D7900701E7600901F7383
:101A900000B0207000D0216E00F0226B001024698D
:101AA0000030256600502663007027610090285E94
:101AB00000B0295C00D02A5900F02B5600102D549C
:101AC00000302E5100502F4E0070304B00903148A6
:101AD00000B0324500D0334200F0343E0010363BB7
:101AE00000303737005038330070392E00903A29D3
:101AF00000B03B2300D03C1B00F03D1100103F0123
:101B000000F03F000070012C0190012701B001227C
:101B100001C0011D01F00118011002130130020E75
:101B2000016002090190020401C002FF000003FAF3
:101B3000004003F5008003F000D003EB002004E632
:101B4000007004E100E004DC004005D700C005D2CD
:101B5000004006CD00D006C8008007C3003008BE94
:101B600000F008B900C009B400B00AAF00B00BAA79
:101B700000D00CA500000EA000500F9B00C01096D6
:101B8000005012910000148C00C0158700B017821D
:101B900000B0197D00D01B7800001E730040206E3D
:101BA0000090226900F024640040275F0090295AC9
:101BB00000E02B5500102E500020304B0010324614
:101BC00000E033410090353C001037370070383268
:101BD00000A0392D00B03A2800A03B2300603C1E35
:101BE00000103D1900903D1400103E0F00703E0A99
:101BF00000C03E0500003F0000403FFBFF803FF675
:101C0000FFC03FF1FF48656174696E672E2E2E009C
:101C10004572723A204D494E54454D5000457272FE
:101C20003A204D415854454D5000544845524D417D
:101C30004C2052554E415741590048656174696EB8
:101C400067204661696C65640042656400496E7690
:101C5000616C69642065787472756465720A007CD1
:101C60003C3E5E2B3D3F2F5B5D3B2C2A225C002FD0
:101C70006175746F25632E67006572726F722077CD
:101C8000726974696E6720746F2066696C650A00FA
:101C90004E6F74205344207072696E74696E670AC7
:101CA000005344207072696E74696E6720627974A3
:101CB0006520002E0A0044656C6574696F6E2066AD
:101CC00061696C65642C2046696C653A2000466940
:101CD0006C652064656C657465643A00577269745C
:101CE000696E6720746F2066696C653A20004669EA
:101CF0006C652073656C65637465640A00205369C4
:101D00007A653A200046696C65206F70656E65647F
:101D10003A2000454E4420535542524F5554494EA7
:101D2000450A002220706F73002220706172656E78
:101D3000743A2200535542524F5554494E45204360
:101D4000414C4C207461726765743A220045786397
:101D50006565646564206D617820535542524F5526
:101D600054494E452064657074683A002066696C79
:101D7000653A2000667265736800646F696E67007B
:101D80004E6F7720002E0A006F70656E20666169C5
:101D90006C65642C2046696C653A20000A4D32342B
:101DA00000534420636172642072656C65617365E1
:101DB000640A0053442063617264206F6B0A006FF1
:101DC00070656E526F6F74206661696C65640A009D
:101DD000766F6C756D652E696E6974206661696CCD
:101DE00065640A004E6F20534420636172640A00E8
:101DF000286E6F2066696C65290043616E6E6F7492
:101E0000206F70656E2073756264697220004D32B8
:101E1000332025730053756263616C6C204F7665C7
:101E200072666C6F7700012902290429082910299C
:101E3000202940298029012C022C01260226042673
:101E400008261026202640268026402C802C0123A0
:101E5000022304230823102320234023802301206E
:101E60000220042008201020202040208020102C58
:101E7000202C012F022F042F082F102F202F402F4E
:101E8000802F00010000331F1200020000F01E43EB
:101E900000030000EC1E0401030904D21E18020313
:101EA0000904BA1E1603030904AC1E0C0C0331000E
:101EB0003200330034003500000016035500530093
:101EC00042002000530065007200690061006C0050
:101ED000000018035400650065006E00730079006F
:101EE0006400750069006E006F00000004030904BF
:101EF00009024300020100C032090400000102028D
:101F0000010005240010010524010001042402063B
:101F100005240600010705820308004009040100AA
:101F2000020A0000000705030240000007058402C2
:101F30004000001201000202000020C0168304725B
:101F400002010203010001C1020180360181360055
:101F50002D105A16CF6BA6708E97ADB1B2B2B0BB32
:101F6000D2B111241FBECFEFD0E2DEBFCDBF84B708
:101F70008093F71114BE0FB6F894A8958091600075
:101F8000886180936000109260000FBE12E0A0E0B4
:101F9000B1E0E2E2FDE801E00BBF02C007900D9264
:101FA000A83AB107D9F721E1A8EAB2E001C01D9231
:101FB000A73FB207E1F71FE0C0EBDFE004C02197C5
:101FC000FE010E9424BCC83AD107C9F70E94F7B4A9
:101FD0000C9482C60C940000A091A802B091A902B2
:101FE000109709F40895ED91FC91119712968D9137
:101FF0009C919093A9028093A8020995EDCFCF936D
:10200000DF93EC0184E090E00E94FDB4009791F032
:10201000FC01D183C0832091A8023091A9023383AF
:1020200022839093A9028093A80290E080E0DF9140
:10203000CF91089581E090E0FACFF9C288E198E26B
:102040000FB6F894A895809360000FBE909360003F
:102050000895A89508950C94B7A489EE91E1909302
:10206000AB028093AA020895909164009B7F9093A5
:102070006400982F906A96959CBD80FD03C091E006
:10208000863009F490E09DBD0895209A289A219AFF
:102090002398229A81E0E8CF8FEF8EBD0DB407FE22
:1020A000FDCF8EB5089561157105D1F061507109AC
:1020B0002FEF2EBDFC01AF01481B590B46175707E8
:1020C00038F40DB407FEFDCF3EB531932EBDF3CFEE
:1020D0000DB407FEFDCF2EB5860F971FFC012083A0
:1020E00008958EBD0DB407FEFDCF08958EBDFB0192
:1020F000CB019E5F0DB407FEFDCF20812EBD0DB438
:1021000007FEFDCF21812EBD3296E817F90791F722
:102110000DB407FEFDCF089581E0089581E0089594
:102120005F926F927F928F929F92AF92BF92CF9267
:10213000DF92EF92FF920F931F93CF93DF931F9243
:10214000CDB7DEB77C0139018B015B01A40EB51E52
:10215000D12CC12CA016B10609F44FC0F701808024
:102160009180F80151908F015982C4010E946CC680
:102170005816A1F1652DC4010E9474C6FFEFCF1A55
:10218000DF0AC6018F779927892B11F162E070E091
:1021900080E090E00E9461B7C4010E946CC6998102
:1021A0008917E1F09CD583ED90E08CD581E00F900C
:1021B000DF91CF911F910F91FF90EF90DF90CF9023
:1021C000BF90AF909F908F907F906F905F90089599
:1021D00062E070E080E090E09ED6DECF41E050E02B
:1021E000BE016F5F7F4FC3010E94F545F7018081FB
:1021F0009181019691838083ADCF80E0D8CF8F927B
:102200009F92AF92BF92CF92DF92EF92FF920F9385
:10221000CF93DF931F92CDB7DEB75C017B014901FD
:102220006B01C40ED51EF501808191810E946CC6A0
:102230008983002311F0F701808341E050E0BE0163
:102240006F5F7F4FC4010E94F545F5018081918148
:10225000019691838083FFEFEF1AFF0AEC14FD04CF
:1022600011F780E00F90DF91CF910F91FF90EF90E9
:10227000DF90CF90BF90AF909F908F900895CF93B5
:10228000DF93EC016C3160F4E62FF0E0E25FFD4F8C
:1022900080818330F1F150F4813089F08230D9F0BF
:1022A00082E1FE0111928A95E9F711C0853009F4A7
:1022B00052C008F44EC0863099F780E00DC082E12C
:1022C000E1E8F1E0DE0101900D928A95E1F7CE019F
:1022D000DF91CF91089581E020EB30E039832883AE
:1022E00021EB30E03B832A831D821C8223EB30E00C
:1022F0003F832E8324EB30E0398728871B861A869C
:102300001D861C8692E09E878F8781E0888B198AC4
:10231000DECF81E08F5F20E930E03983288321E937
:1023200030E03B832A8322E930E03D832C8328E997
:1023300030E03F832E832AE930E0398728872CE973
:1023400030E03B872A8726E930E03D872C8793E001
:10235000DACF80E0DFCF80E0DECF2F923F924F9246
:102360005F926F927F928F929F92AF92BF92CF9225
:10237000DF92EF92FF920F931F93CF93DF93CDB72E
:10238000DEB7E3970FB6F894DEBF0FBECDBF8B016B
:10239000682FCE01019673DF8A89811103C1898973
:1023A000882309F4FFC0EF84EEA23E2D323009F0FD
:1023B00012C11DA2E980FA80FDA6ECA6EB80FC808C
:1023C000FBA6EAA60115110509F429C18EE0E3E98F
:1023D000F1E0DE01539601900D928A95E1F7FDEF51
:1023E0002F2E312C3EA1323009F0F8C081E08AABAB
:1023F00093E09BABCE01439699AB88AB91E09CA355
:10240000E1E0EBA319A68FEF90E098A78FA3412CF2
:10241000E4E25E2EE4EF6E2E712CE8A9F9A9E190BA
:10242000F190F9ABE8ABFEA1F23009F4DCC030E288
:10243000E316F10409F488C080E8E816F10409F411
:1024400083C00E9D90010F9D300D1E9D300D1124F7
:1024500050E040E0C301B2010E9408BCC9010197ED
:1024600036952795CC24C394D12C009739F0CC24F1
:10247000CA94DDA08C159D0508F46C012115310569
:1024800009F4B6C09FEF99A3EDA1EAA389A19AA18F
:102490002817390710F43AA329A3C60101968E9D87
:1024A00090018F9D300D9E9D300D112450E040E035
:1024B000C301B2010E9408BC49013FA72EA7EE0C40
:1024C000FF1C89A19AA1E89E9001E99E300DF89E1B
:1024D000300D112450E040E0C301B2010E9408BC5D
:1024E000F901B8010215130508F4B101C80120165D
:1024F000310608F4C101681B790BD801EEA4FFA4D2
:102500000E151F0508F4D401C801EEA4FFA4E016BF
:10251000F10608F4C401A81BB90BC8010E171F0768
:1025200008F4C9017801E017F10708F479018E1960
:102530009F09A617B70724F48A179B070CF05DC004
:10254000861797070CF461C03CA13F5F3CA338306D
:1025500009F063CFECA5FDA580818C7F9BA19370D2
:10256000892B8083EAA5FBA52081EBA08E2D90E02E
:10257000959587959595879543E0880F991F4A957E
:10258000E1F7277E822B80838081887FF9A48F29C1
:1025900080833EA1323031F0ED85FE85EFA0F8A4B6
:1025A000F182E082E3960FB6F894DEBF0FBECDBF96
:1025B000DF91CF911F910F91FF90EF90DF90CF901F
:1025C000BF90AF909F908F907F906F905F904F9053
:1025D0003F902F9008958FEF8DA3ECCEEAE0EAAB09
:1025E000FEE0FBAB07CF2FEF3DA18FEF932F3FCF47
:1025F000E1E0F0E0FAA3E9A350CF1401FBA8FBA2AD
:10260000ECA0E9A6D8A6CFA29FCF1901FAA8FBA2F9
:10261000ECA0E9A6E9A0FAA0F8A6EFA295CF81E088
:102620008BA319A6EFEFF0E0F8A7EFA393CF68EE26
:1026300073E080E192DE68EE73E088E18ECE08956B
:1026400008950C946747C82F89EE93E0019739F0FD
:1026500000C00000EEE5F9E03197F0F7F7CFF8940D
:1026600089EE93E0019739F000C00000E6EEF3E058
:102670003197F0F7F7CF0E948C88CC2321F00E948D
:10268000A87BE7DCFECF0E94A07BFBCFDC018D9115
:102690009C91DC01ED91FC910190F081E02D099479
:1026A000EC01142F0E948C88209739F018D3CE01AA
:1026B00009D36AE08AEA92E0E9DF14D388EC91E07A
:1026C00001D3812FC0DFCF92DF92EF92FF920F9361
:1026D0001F93CF93DF93C82F0E94C7400FB6F89483
:1026E000C090DE11D090DF11E090E011F090E11188
:1026F0000FBECC2341F0C092C902D092CA02E09230
:10270000CB02F092CC028091C5029091C602A091BA
:10271000C702B091C8020097A105B10599F1409197
:10272000C9025091CA026091CB027091CC02840F11
:10273000951FA61FB71FA7019601281B390B4A0B2F
:102740005B0BDA01C901B7FD1DC0CCD283E192E079
:10275000B9D20091F3021091F40288EE91E0B2D266
:10276000E8016991662321F08AEA92E08FDFF9CFD0
:102770006AE08AEA92E08ADF40E070E060E090E0A0
:1027800080E08EDF3091760620917306321741F09B
:10279000C092C902D092CA02E092CB02F092CC025F
:1027A00080910C0190910D01A0910E01B0910F014B
:1027B0000097A105B10519F132131FC0C1111DC049
:1027C0000FB6F8944091DE115091DF116091E01145
:1027D0007091E1110FBE0091C9021091CA022091BF
:1027E000CB023091CC02800F911FA21FB31F481B58
:1027F000590B6A0B7B0B77FF2CC01092B0028091B3
:10280000AC029091AD02A091AE02B091AF02A701CF
:102810009601281B390B4A0B5B0BDA01C901B7FD86
:102820000FC00E944A5B34E6C30ED11CE11CF11CB0
:10283000C092AC02D092AD02E092AE02F092AF0232
:10284000DF91CF911F910F91FF90EF90DF90CF908C
:1028500008958091B0028111D2CF81E08093B002BF
:1028600080E00E94697B81E00E94697B0E94A07BDE
:10287000C6CFCF92DF92EF92FF9225DF0E947A8E31
:102880008091B102882309F440C00E9406B00E94E2
:10289000E0318091C302811138C02091070C2223BE
:1028A000A1F10FB6F894C090DE11D090DF11E09046
:1028B000E011F090E1110FBE8091030C9091040C97
:1028C000A091050CB091060CB701A601481B590B4D
:1028D0006A0B7B0BDB01CA01B7FD17C030E0A8EE25
:1028E000B3E00E942DBCC60ED71EE81EF91EC09292
:1028F000030CD092040CE092050CF092060CFF90B1
:10290000EF90DF90CF900C94368FFF90EF90DF9098
:10291000CF900895CCE2D2E013E080E0AADF80916E
:102920001E1187FF1BC01092F5100E94F2AA109290
:102930003F0310923E0310923D030E948C4D0E9473
:10294000D5460E948C8870E060E080E00E94558748
:1029500010920001D0933803C09337038091B102E5
:10296000843039F486E292E00E94333D8111109365
:10297000B1020E94713E0E94524CCFCF8F929F9223
:10298000AF92BF92EF92FF920F931F93CF93DF937B
:10299000CDB7DEB7A0970FB6F894DEBF0FBECDBFA0
:1029A0007C014115510561057105A1F100E0490166
:1029B000330FAA08BB08CB01BA01A50194010E94FC
:1029C000E6BB942F852F11E0100FE1E0F0E0EC0F53
:1029D000FD1FE00FF11D07FDFA956083A901692F26
:1029E000782F012F411551056105710521F711500F
:1029F00018F1E1E0F0E0EC0FFD1FE10FF11D17FD14
:102A0000FA95608187E36A3008F480E3680FC701B4
:102A10003DDEEDCF60E3A0960FB6F894DEBF0FBEAB
:102A2000CDBFDF91CF911F910F91FF90EF90BF909D
:102A3000AF909F908F902ACEA0960FB6F894DEBFED
:102A40000FBECDBFDF91CF911F910F91FF90EF90FF
:102A5000BF90AF909F908F900895CF92DF92EF92AA
:102A6000FF920F931F93CF93DF93EC016A017B01D9
:102A700089012A30310561F4F7FE0AC0F094E09430
:102A8000D094C094C11CD11CE11CF11C6DE2FEDD90
:102A90009801B701A601CE01DF91CF911F910F914F
:102AA000FF90EF90DF90CF9069CFCF92DF92EF92BF
:102AB000FF92CF93DF93C091F71114BE40E950ED20
:102AC00063E070E08091AA029091AB020E943FBB4C
:102AD0000FB6F894C090DE11D090DF11E090E011B5
:102AE000F090E1110FBE88EEC80E83E0D81EE11C05
:102AF000F11C8091AA029091AB020E94A5BB8111AA
:102B000011C00FB6F8948091DE119091DF11A09161
:102B1000E011B091E1110FBE8C199D09AE09BF09FA
:102B2000B7FDE7CF81EC91E0CDD06AE070E080E0C6
:102B300090E00E9461B780E885BF85BF7EDA80DDC6
:102B4000C0FF03C088EB91E0BDD0C1FF03C087EA9E
:102B500091E0B8D0C2FF03C085E991E0B3D0C3FFD4
:102B600003C084E891E0AED0C5FF03C083E791E0E5
:102B7000A9D08EE591E0A6D0B2D08BE291E0A2D0B0
:102B8000AED083E191E09ED0AAD065DAEC0184E07A
:102B900091E098D0AE01DD0F660B770B2AE030E0B4
:102BA0008AEA92E05ADF8DEE90E08CD02AE030E0A5
:102BB00040E055E060E070E08AEA92E0DFDE6AE043
:102BC0008AEA92E063DD3BDD0E94F0458091B3022A
:102BD000811107C00E943E7B882319F081E0809319
:102BE000B302209152053091530540915405509104
:102BF00055056091340170913501809136019091B5
:102C000037010E9447BC6093340170933501809373
:102C10003601909337012091560530915705409128
:102C20005805509159056091380170913901809192
:102C30003A0190913B010E9447BC60933801709328
:102C4000390180933A0190933B0120915A053091CC
:102C50005B0540915C0550915D0560913C01709170
:102C60003D0180913E0190913F010E9447BC6093DD
:102C70003C0170933D0180933E0190933F010E947F
:102C8000FC4C83EA9CE00E94BE8A0E9411470E948D
:102C9000A84B0E944D7F80E00E94B34B04D3CED955
:102CA00083E08093B102DF91CF91FF90EF90DF90AE
:102CB000CF90089582EB92E00C94CAA9682F8AEA1B
:102CC00092E0E4CCCF93DF93EC01FE018491219656
:102CD000882311F0F3DFF9CFDF91CF9108958EE4CF
:102CE00092E0F0CF87E492E0EDCF811103C080E461
:102CF00092E0E8CF84E492E0FCCFF7DF8AE0DECF19
:102D00008F929F92AF92BF92CF92DF92EF92FF92FB
:102D10000F931F93CF938C016A017B01B22E20E0A9
:102D200030E0A901CB01B6010E94BEBC87FF07C0FD
:102D30006DE2C801ABDCF7FAF094F7F8F094C0E06C
:102D400060E070E080E09FE3CB1541F02DEC3CECBF
:102D50004CEC5DE30E9494BECF5FF6CF9B01AC01CB
:102D6000C701B6010E9447BC6B017C010E942FBDC8
:102D70004B015C012AE030E0BC01A401C801FEDD8A
:102D8000CC2391F1C501B4010E945BBD9B01AC0154
:102D9000C701B6010E9446BC6B017C016EE2C8010E
:102DA00075DCC15008F120E030E040E251E4C70199
:102DB000B6010E9494BE6B017C010E942FBD4B01A5
:102DC0005C012AE030E0BC01A401C801D7DDC501E7
:102DD000B4010E945BBD9B01AC01C701B6010E941A
:102DE00046BC6B017C01DDCFCF911F910F91FF900D
:102DF000EF90DF90CF90BF90AF909F908F9008950D
:102E0000AB01BC0122E08AEA92E07ACFCF92DF9256
:102E1000EF92FF921F93CF93DF93EC01162FC880A0
:102E2000D980EA80FB8020E030E0A901C701B6012B
:102E30000E94BEBC811113C080E2113019F0123023
:102E400011F48BE23BDF688179818A819B81DF917C
:102E5000CF911F91FF90EF90DF90CF90D1CF20E0E6
:102E600030E0A901C701B6010E9460BE18164CF3FC
:102E7000EACF8F929F92AF92BF92CF92DF92EF9262
:102E8000FF920F931F93CF93DF936C017B01EA01B5
:102E9000C901009709F016DFF60180809180A280B9
:102EA000B3808CE692E00EDFC501B401A9DFF70123
:102EB000C080D180E280F38089E692E003DFC70121
:102EC000B6019EDFC880D980EA80FB8086E692E06A
:102ED000F9DEC701B60194DF0115110571F0C801D3
:102EE000DF91CF911F910F91FF90EF90DF90CF90E6
:102EF000BF90AF909F908F90E5CE8AE0DF91CF9109
:102F00001F910F91FF90EF90DF90CF90BF90AF9007
:102F10009F908F90D3CECF92DF92EF92FF926B0172
:102F20007C0183E3C816D104E104F10470F082E36C
:102F3000C81AD108E108F10862E370E080E090E08F
:102F40000E9461B70E947A8EECCFC701B6010E9441
:102F500061B7FF90EF90DF90CF900C947A8E9091B4
:102F6000EF05981791F00E94295D84E391E00E949B
:102F7000CD5B8091EF0591E089278093EF0584E395
:102F800091E00E943E5C0C94FC4C089580E0E7DFE9
:102F90008BEC95E00C94454ADC01ED91FC9101909D
:102FA000F081E02D0994CF93C82F60E68FE191E185
:102FB0000E9496B260E870E0CC2311F06FE870E0F8
:102FC0008FE191E1E9DF61E08FE191E1CF910C9434
:102FD000A0B2CF93C82F60E68FE191E10E9496B234
:102FE00060EC70E0CC2311F06FEC70E08FE191E1C8
:102FF000D3DF61E08FE191E1CF910C94A0B2E82F93
:10300000F0E0EE0FFF1FEB54FD4F8081918108959A
:10301000E82FF0E0EE0FFF1FEB54FD4F6081718150
:1030200090E080E00E945BBD20E030E048EC52E49C
:103030000E9494BE20E030E04CE555E40E94C2BC02
:1030400020E030E040E05FE30E9447BC0E942FBDDB
:10305000862F0895CF93DF938FE191E10E9481B293
:1030600021E048E160E68FE191E10E948AB28FE1C0
:1030700091E10E94EFB1892B21F18FE191E10E9452
:10308000F6B1C82F8FE191E10E94F6B1D82F8FE100
:1030900091E10E94F6B1C3FDEACF682F8D2F8F70AA
:1030A0000E94F4B4EC2FCC0FFF0B23E0F695E795CC
:1030B0002A95E1F7E670FF27EB54FD4F918380835B
:1030C000D6CFDF91CF910895CF93DF9360E68FE164
:1030D00091E10E9496B260E570E08FE191E15CDFE2
:1030E000C5EBD2E069812296606870E08FE191E1E2
:1030F00053DFFE01329760818FE191E10E9419B2A6
:1031000082E0CD3BD80771F761E08FE191E1DF917B
:10311000CF910C94A0B2CF93DF9360E68FE191E161
:103120000E9496B2C5EBD2E0698122968FE191E1CF
:103130000E9419B2FE01329760818FE191E10E94F5
:1031400019B282E0CD3BD80779F761E08FE191E1D8
:10315000DF91CF910C94A0B2E82FF0E0EE0FFF1FAB
:10316000EB54FD4F71836083D6CF2F923F924F92E5
:103170005F926F927F928F929F92AF92BF92CF9207
:10318000DF92EF92FF920F931F93CF93DF93EC01A7
:103190008A819B8100EC1DE0809FB001819F700DB2
:1031A000909F700D112490E080E00E945BBD2AE0AA
:1031B00037ED43E25CE30E9494BE0E942FBD2B01D9
:1031C0008C819D81809FB001819F700D909F700DBB
:1031D000112490E080E00E945BBD2AE037ED43E2DD
:1031E0005CE30E9494BE0E942FBD4B018E819F81A3
:1031F000809FB001819F700D909F700D112490E011
:1032000080E00E945BBD2AE037ED43E25CE30E9470
:1032100094BE0E942FBD6B0185EB282E82E0382ED4
:1032200088819981809FB001819F700D909F700D62
:10323000112490E080E00E945BBD2AE037ED43E27C
:103240005CE30E9494BE0E942FBDF10171836083F4
:103250005382428295828482D782C682DF91CF9147
:103260001F910F91FF90EF90DF90CF90BF90AF90A4
:103270009F908F907F906F905F904F903F902F9096
:103280004ACFCF93C82F60E08FE191E10E9496B2C0
:103290006C2F8FE191E10E9419B261E08FE191E121
:1032A000CF910C94A0B2D6DE86E0EBDF81111EC078
:1032B00081E08093BD0277DE80E08BDE80E0A8DED7
:1032C000811107C081E091E050DFFEDE90E080E0F8
:1032D000089581E09DDE8823A9F382E099DE8823AA
:1032E00089F383E095DE882369F3F0CF8FEF9FEFBA
:1032F00008959091BD02992389F0843078F49B0160
:10330000613C7D4010F020EC3DE0E82FF0E0E65D10
:10331000FD4FB901808120DF88E0B3CF0895CF92BF
:10332000DF92EF92FF92CF93C82F6A017B0120E0DA
:1033300030E048EC52E4CB01B6010E94BEBC87FDF0
:1033400006C0C12CD12C88ECE82E82E4F82E20E0B7
:1033500030E04CE555E4C701B6010E9494BE20E080
:1033600030E048EC52E40E94C2BC0E942FBD8C2F7A
:10337000CF91FF90EF90DF90CF90BBCF8091BD02B7
:103380008111A2CE0895EF92FF920F931F93CF93D6
:10339000DF938091BD02882309F476C0A0DC8DE71D
:1033A00092E090DC9CDCCEE2D2E08AE2E82E82E081
:1033B000F82E199160E28AEA92E068D9612F8AEAD0
:1033C00092E064D96AE38AEA92E060D9F701119148
:1033D0007F01812F1DDE682F70E090E080E00E9469
:1033E0005BBD0EDD812F0BDE8C018AE792E06ADC8B
:1033F000B80190E080E00E945BBD20E030E040E05A
:103400005EE30E9494BE29E032EF44E15CE30E9457
:1034100094BEF6DC88E792E055DCF2E0C233DF07C9
:1034200009F0C7CF80E0F4DDC82F84E592E04ADCE4
:103430006C2F70E090E080E00E945BBDE1DC80E0FA
:10344000DEDDEC0185E792E03DDCBE0190E080E04E
:103450000E945BBD20E030E040E05EE30E9494BE4D
:1034600029E032EF44E15CE30E9494BEC9DC83E7CB
:1034700092E028DC6AE08AEA92E0DF91CF911F9126
:103480000F91FF90EF9002C9DF91CF911F910F91A3
:10349000FF90EF9008958091EF029091F0020097D5
:1034A00031F04AE050E070E060E00C9499C060E0D8
:1034B00070E0CB0108954F925F926F927F928F924E
:1034C0009F92AF92BF92CF92DF92EF92FF92CF93F3
:1034D000DF9300D000D01F92CDB7DEB78091E80215
:1034E0009091E902A091EA02B091EB0232E1B69527
:1034F000A795979587953A95D1F79C01AD012170D5
:1035000033274427552729833A834B835C8380FFE5
:10351000DCC0E091E002EE2309F4CBC08091F3021D
:103520009091F402E80FF92FF11D808190ED980F32
:103530009A3040F08E3209F0ABC0818180538A30DE
:1035400008F0B4C0F093F002E093EF028091EF0234
:103550009091F002892B59F09EDF97FDB4C09BDF5C
:103560006F3F71058105910509F00CF4A7C031E0AA
:103570003D83409034015090350160903601709049
:1035800037018090380190903901A0903A01B090B5
:103590003B01C0903C01D0903D01E0903E01F09095
:1035A0003F0189819A81AB81BC81892B8A2B8B2B2E
:1035B00029F09D81911102C080E0D1DC8091E80268
:1035C0009091E902A091EA02B091EB0225E1B69553
:1035D000A795979587952A95D1F780FF06C067EF45
:1035E00072E08BEC95E00E944D4B8D81B8DCAD8193
:1035F000AA2341F08091EF05811104C073DB88EDAF
:1036000092E060DB6CDB8AEC92E05CDB8091EF05A2
:1036100074DBA301920160913401709135018091B6
:103620003601909137010E94BEBC81111CC0A501DA
:103630009401609138017091390180913A01909123
:103640003B010E94BEBC81110EC020913C01309113
:103650003D0140913E0150913F01C701B6010E94DA
:10366000BEBC8823B1F10F900F900F900F900F9078
:10367000DF91CF91FF90EF90DF90CF90BF90AF9010
:103680009F908F907F906F905F904F900C94975485
:103690008D3211F08B3251F4818190ED980F9A3078
:1036A00008F450CF8E3211F4828148CFF0E0E0E090
:1036B00049CF1092F0021092EF0248CFECDE41E0C9
:1036C0004D83611156CF1D8254CFB091EF05BD835C
:1036D00050CF0F900F900F900F900F90DF91CF91E0
:1036E000FF90EF90DF90CF90BF90AF909F908F9022
:1036F0007F906F905F904F900895CF93C82F41E0D7
:1037000068EB72E00E9441328C2F0E940B2EC09118
:10371000EF058FEA92E0D6DA4C2F50E070E060E0DF
:103720002AE030E08AEA92E098D982EA92E0CADAA6
:103730008091EF05CF91E1CA2FEB280F2A3108F0D5
:1037400047C0E22FF0E08091E8029091E902A09159
:10375000EA02B091EB0204C0B695A79597958795BC
:103760002A95D2F780FD02C081700895E253FD4F83
:10377000E081EE2341F18091F3029091F402E80F91
:10378000F92FF11D808190ED980F9A3030F08E3234
:1037900051F4818180538A3098F4F093F002E093E1
:1037A000EF0281E008958D3211F08B3249F481816E
:1037B00090ED980F9A3088F38E3211F48281EACF1F
:1037C000F0E0E0E0EACF1092F0021092EF02E9CFD1
:1037D00080E00895B1DF882341F081E02091EF027D
:1037E0003091F002232B09F480E00895CF93DF930A
:1037F000D82FC62FEFDF8823D9F08091EF02909168
:10380000F002892B29F4C1E08C2FDF91CF9108952C
:1038100042DE97FD0BC03FDE6F3F710581059105CC
:1038200009F08CF738DEC1E06111EECFC0E0ECCFDB
:103830008D2F82DF882341F3E6CF4F925F926F9204
:103840007F928F929F92AF92BF92EF92FF920F93CF
:103850001F93CF93DF93EC018B017A01FA0120854E
:10386000318542855385FB0160857185828593850D
:103870000E9446BC4B015C01F701248135814681E1
:103880005781F80164817581868197810E9446BCC9
:103890002B013C01F7012081318142815381F801E4
:1038A00060817181828193810E9446BC68837983A3
:1038B0008A839B834C825D826E827F828886998612
:1038C000AA86BB86CE01DF91CF911F910F91FF9009
:1038D000EF90BF90AF909F908F907F906F905F9090
:1038E0004F9008954F925F926F927F928F929F9226
:1038F000AF92BF92CF92DF92EF92FF920F931F93FE
:10390000CF93DF9300D000D0CDB7DEB78C0180918C
:10391000780B9091790B9A838983DC01CD90DD90AF
:10392000ED90FC9020E030E0A901C701B6010E94B3
:1039300047BC4B015C0120E030E040E251E40E94D2
:10394000BEBC87FF06C0812C912C30E2A32E31E44F
:10395000B32EA981BA8114968D919D910D90BC9141
:10396000A02D89839A83AB83BC8320E030E0A9013A
:10397000BC01CD010E9447BC2B013C0120E030E09E
:1039800040E251E40E94BEBC87FF06C0412C512C8E
:1039900020E2622E21E4722EF80180829182A282BE
:1039A000B382448255826682778220E030E048E12B
:1039B00053E4C701B6010E9447BC6B017C0120E0C3
:1039C00030E04EE053E40E9460BE181634F4C12C7F
:1039D000D12C9EE0E92E93E4F92EF801C486D58619
:1039E000E686F786408A518A628A738AA501940125
:1039F000C701B6010E9447BC20E030E040E05FE331
:103A00000E9494BE4B015C0120E030E048E153E4A9
:103A100069817A818B819C810E9447BC6B017C010A
:103A200020E030E04EE053E40E9460BE181634F40B
:103A3000C12CD12C8EE0E82E83E4F82EF801808E84
:103A4000918EA28EB38EC48ED58EE68EF78E0F9099
:103A50000F900F900F90DF91CF911F910F91FF90DA
:103A6000EF90DF90CF90BF90AF909F908F907F901E
:103A70006F905F904F9008954F925F926F927F92F8
:103A80008F929F92AF92BF92CF92DF92EF92FF926E
:103A90000F931F93CF93DF93CDB7DEB7CC58D109E7
:103AA0000FB6F894DEBF0FBECDBF0FB6F89480916D
:103AB000DE119091DF11A091E011B091E1110FBEE4
:103AC0008093C9029093CA02A093CB02B093CC0218
:103AD0008091EF05811159C08091E8029091E9022F
:103AE000A091EA02B091EB023DE0B695A7959795BB
:103AF00087953A95D1F780FF04C081EF9BE00E9443
:103B0000713187E00E94A453811145C019861A863D
:103B10001B861C861D821E821F82188619821A82AD
:103B20001B821C821D8A1E8A1F8A188E198A1A8A75
:103B30001B8A1C8A1D861E861F86188A19A21AA235
:103B40001BA21CA21D8E1E8E1F8E18A2198E1A8EED
:103B50001B8E1C8ECE010196C5DE8091EF05259649
:103B60008FAF25978091E8029091E902A091EA0237
:103B7000B091EB0229E0B695A795979587952A9580
:103B8000D1F780FF20C002DA06C060E08FE42EDEAD
:103B9000882309F4A1CFC457DF4F0FB6F894DEBFD6
:103BA0000FBECDBFDF91CF911F910F91FF90EF908E
:103BB000DF90CF90BF90AF909F908F907F906F904D
:103BC0005F904F90089586E505DE70E060E081111A
:103BD00062DC7EAB6DAB6530710520F087E693E06B
:103BE00071D8D9CF60E084E401DE24968FAF2497AA
:103BF0008DA99EA91816190684F481E593E062D870
:103C000024968FAD2497882319F087E493E05AD83F
:103C10006AE08AEA92E00E9446130E94295D19A296
:103C20001AA21BA21CA21D8A1E8A1F8A188E198620
:103C30001A861B861C860E946E4F80E090D981E018
:103C40000E94066E882329F025968FAD259787D987
:103C5000A2CF60E085E4CADD11E0811101C013E06C
:103C600023961CAE1DAE1EAE1FAE2397CE0101964D
:103C70006C01812C912C540183948DA99EA9892BD0
:103C800071F088E393E01ED82AE030E0B501A4018A
:103C90008AEA92E00E942D1583E393E013D8F6019F
:103CA00084819581A681B781408151816281738130
:103CB0004FAB58AF69AF7AAF8BAF9CAFADAFBEAF74
:103CC000EE24E39401E02DA9412FBE01655C7F4FF6
:103CD000CE01C7960E94586F2B013C0123964CAE33
:103CE0005DAE6EAE7FAE2397AC019B010E9439BFE3
:103CF00081115FC1F6014086518662867386FCE0C1
:103D0000CF0ED11C8FEF881A980AA80AB80A94E03F
:103D100089169104A104B10409F0AFCF24968FADA8
:103D2000249781117AC023966CAD7DAD8EAD9FAD89
:103D300023979B01AC010E9439BF81116EC0AE0177
:103D4000435F5F4FBE01675E7F4FCE018B5B9F4F2E
:103D500074DDAE01435F5F4FBE016F5F7F4FCE01E9
:103D60008F5A9F4F6ADDAE014B5B5F4FBE016F5AAA
:103D70007F4FCE0185960E949247BE016B5D7F4FBB
:103D8000CE01835A9F4F0E94E148A996CCACDDAC8E
:103D9000EEACFFACA99720E030E0A901C701B60165
:103DA0000E94BEBC87FF24C0A1968CAD9DADAEAD78
:103DB000BFADA197B058A1968CAF9DAFAEAFBFAFCE
:103DC000A197A5968CAD9DADAEADBFADA597B058F2
:103DD000A5968CAF9DAFAEAFBFAFA597F7FAF094A5
:103DE000F7F8F094A996CCAEDDAEEEAEFFAEA99793
:103DF000BE01635A7F4FCE0187599F4F0E94B04A40
:103E000084E2FE01E759FF4FABECB5E001900D9263
:103E10008A95E1F725961FAE259780E00E94066EF1
:103E2000882371F025968FAD259799D880E090E092
:103E3000A0ECBFE723968CAF9DAFAEAFBFAF23978B
:103E400023966CAD7DAD8EAD9FAD23979B01AC01EC
:103E50000E9439BF8111A8C08DA99EA91816190604
:103E600034F464E173E08BEC95E00E944D4B2496B2
:103E70008FAD249781118EC080E1E4E3F1E0DE0193
:103E8000959601900D928A95E1F781E08093EF0578
:103E9000CE0185960E943E5C1092EF05E090780B73
:103EA000F090790BF70120813181428153816FA914
:103EB00078AD89AD9AAD0E9446BC9B01AC01609182
:103EC00034017091350180913601909137010E9443
:103ED00046BC4B015C012DEB37E346E855EB0E94F5
:103EE00060BE87FD4AC02DEB37E346E855E3C501C8
:103EF000B4010E94BEBC18160CF43FC0F701248127
:103F00003581468157816BAD7CAD8DAD9EAD0E94F4
:103F100046BC9B01AC0160913801709139018091E0
:103F20003A0190913B010E9446BC6B017C012DEB54
:103F300037E346E855EB0E9460BE87FD1EC02DEBBF
:103F400037E346E855E3C701B6010E94BEBC181628
:103F5000A4F023962CAD3DAD4EAD5FAD239760919F
:103F60003C0170913D0180913E0190913F010E9482
:103F700046BC6DA77EA78FA798AB80E1FE01B596E2
:103F8000A4E3B1E001900D928A95E1F781E02596D6
:103F90008FAF259725968FAD2597882329F081E04F
:103FA0008093EF050E94FC4C0E94764F0E9497542C
:103FB000F2CD25968FAD25970E94AF17AFCE0F9308
:103FC0001F93CF938091EF029091F002009729F117
:103FD000FC018F01C1912C2F2F7DC1F0C53431F030
:103FE000C53621F0C83511F0C83799F7F8011082AD
:103FF00070E060E08091EF029091F0020E9444BF77
:10400000F801C083CF911F910F91089570E060E097
:10401000CF911F910F910C9444BF60E070E0CB01F1
:10402000F1CF8F929F92AF92BF92CF92DF92EF9299
:10403000FF920F931F93CF93DF93CDB7DEB72C97EB
:104040000FB6F894DEBF0FBECDBF83E00E94A4532D
:10405000811177C00E94FC4C20915205309153058C
:10406000409154055091550560E070E088E992E474
:104070000E9446BC4B015C012091560530915705CA
:10408000409158055091590560E070E088E992E44C
:104090000E9446BC6B017C0180913C0190913D01E6
:1040A000A0913E01B0913F0180937E0590937F05E2
:1040B000A0938005B09381050091780B1091790B46
:1040C000F8012081318142815381C501B4010E94F0
:1040D00046BC60937605709377058093780590933E
:1040E0007905F8012481358146815781C701B601E0
:1040F0000E9446BC60937A0570937B0580937C0593
:1041000090937D056AE775E086E795E00E94BA4CDA
:10411000882351F119861A861B861C8688E0E6E7FB
:10412000F5E0DE01119601900D928A95E1F7BE014E
:10413000675F7F4FCE0101960E94C24E82E00E94CF
:10414000B5522C960FB6F894DEBF0FBECDBFDF91EF
:10415000CF911F910F91FF90EF90DF90CF90BF9084
:10416000AF909F908F90089560E08EE993E00E9459
:10417000F2450E946F168CE893E00E946216E1CF30
:10418000EF92FF920F931F93CF93DF9300D000D055
:10419000CDB7DEB787E00E944551811111C08091F3
:1041A000E8029091E902A091EA02B091EB025EE090
:1041B000B695A795979587955A95D1F780FD99C0A3
:1041C0000E94295D1092110180E00E94AF170FB686
:1041D000F8948091DE119091DF11A091E011B091DF
:1041E000E1110FBE8093C9029093CA02A093CB0243
:1041F000B093CC020E946E4F81E00E94B04B809140
:10420000E8029091E902A091EA02B091EB0249E143
:10421000B695A795979587954A95D1F7282F217040
:10422000F22E10E080FF0DC081E00E944551082F62
:1042300082E00E94455111E0811101C010E001119E
:104240009DC08091E8029091E902A091EA02B091AC
:10425000EB0237E1B695A795979587953A95D1F7F3
:1042600080FD8CC0112309F48CC0012F10E08091D7
:10427000E8029091E902A091EA02B091EB0221E1FB
:10428000B695A795979587952A95D1F780FD3CC05F
:10429000E12C60E070E080E490E469837A838B83B2
:1042A0009C8320E030E0A9010E94BEBC882369F015
:1042B000E11006C0111104C0011102C0FF2089F0F5
:1042C00060E0CE0101960E94064F112319F080E0B4
:1042D0000E94B552002319F081E00E94B552F110FE
:1042E000A0DE0E94FC4C0E94814B0E94764F0E94EF
:1042F00097540F900F900F900F90DF91CF911F91D7
:104300000F91FF90EF900895E091DF02EE2389F185
:104310008091F3029091F402E80FF92FF11D808152
:1043200090ED980F9A3030F08E3299F4818180535D
:104330008A30E0F4F093F002E093EF028091EF0214
:104340009091F002892B09F4A3CF39DEEE24E39497
:10435000A4CF8D3211F08B3249F4818190ED980F0A
:104360009A3040F38E3211F48281E1CFF0E0E0E048
:10437000E1CF1092F0021092EF02E0CF111106C0CF
:1043800011E00091EB020170011371CF012FF112C6
:104390006ECF11E001E0FF24F39469CFCF93C82FD3
:1043A0000E9441328C2FCF910C940B2ECF92DF9232
:1043B000EF92FF926A017B010E94621622E0B70130
:1043C000A6018AEA92E0FF90EF90DF90CF900C94E4
:1043D0008016ECDF6AE08AEA92E00C944613CF93F1
:1043E000DF9341E064EB74E0D9DFC8E2D6E0688196
:1043F00079818A819B810E945BBDAB01BC018BEA04
:1044000094E0D4DF6C817D818E819F810E945BBDB1
:10441000AB01BC0189E692E0C9DF688579858A85B0
:104420009B850E945BBDAB01BC0186E692E0BEDFCE
:104430006C857D858E859F850E945BBDAB01BC012F
:1044400083E692E0DF91CF91C4CF0F931F93CF9378
:104450008091E80284FD0DC08091EA02887849F4D9
:104460008091EB02837029F481E0CF911F910F912D
:10447000B6CF0E94AB3287FD12C002E312E0C0E06B
:10448000F80181918F01A6D9882331F098DDAB0125
:10449000BC018C2F0E94A66BCF5FC43089F7CF91EF
:1044A0001F910F910895CF93DF9341E063E974E08A
:1044B00075DFC8E2D6E04CA15DA16EA17FA18AE8BC
:1044C00094E074DF48A559A56AA57BA589E692E02A
:1044D0006DDF4CA55DA56EA57FA586E692E066DF43
:1044E00048A959A96AA97BA983E692E0DF91CF91F7
:1044F00070CF0F931F93CF938091E80284FD0DC07E
:104500008091EA02887849F48091EB02837029F463
:1045100081E0CF911F910F91C6CF0E94AB3287FDF2
:1045200012C002E312E0C0E0F80181918F0152D97C
:10453000882331F044DDAB01BC018C2F0E94B96BA4
:10454000CF5FC43089F7CF911F910F910895CF931A
:10455000DF9341E060E474E021DFC8E2D6E04CA9DB
:104560005DA96EA97FA987E394E020DF48AD59AD2E
:104570006AAD7BAD84E394E019DF4CAD5DAD6EAD0B
:104580007FAD80E792E0DF91CF9123CF8091E90268
:1045900087FD06C08091EA028E7011F481E0D7CFCA
:1045A00083E518D9882389F00ADD60935C0670934F
:1045B0005D0680935E0690935F0660936406709339
:1045C0006506809366069093670680E503D9882385
:1045D00049F0F5DC60935C0670935D0680935E069F
:1045E00090935F0682E5F6D8882349F0E8DC609373
:1045F000600670936106809362069093630684E57B
:10460000E9D8882349F0DBDC609364067093650683
:1046100080936606909367060895CF93DF9341E0F9
:104620006BEB73E0BBDE60913806709139068091C8
:104630003A0690913B060E945BBDAB01BC0182EB48
:1046400093E0B4DE409168065091690660916A0675
:1046500070916B068FEA93E0A9DE40916C06509151
:104660006D0660916E0670916F0680E792E09EDEA7
:10467000C8EFD5E0488159816A817B818CE692E060
:1046800095DE4C815D816E817F8189E692E08EDED0
:10469000488559856A857B8586E692E087DE4C856C
:1046A0005D856E857F8583E692E0DF91CF9191CE27
:1046B0008091E802827151F48091EA028C7831F4A1
:1046C0008091EB02837011F481E0A7CF82E482D85D
:1046D0008823A9F08091EF029091F002009709F4ED
:1046E00050C04AE050E070E060E00E94C4C16093B6
:1046F00038067093390680933A0690933B0683E51B
:1047000069D8882349F05BDC60936806709369067A
:1047100080936A0690936B0684E55CD8882349F001
:104720004EDC60936C0670936D0680936E069093DA
:104730006F0688E54FD8882331F041DCAB01BC011E
:1047400080E00E94C46B89E545D8882331F037DCCE
:10475000AB01BC0181E00E94C46B8AE53BD8882391
:1047600031F02DDCAB01BC0182E00E94C46B85E41A
:1047700031D8882351F023DCAB01BC0183E00C94D9
:10478000C46B60E070E0CB01B2CF0895CF9381118C
:1047900015C040E069EE74E00E9441328091F5025C
:1047A000811104C08CED94E00E9462166AE08AEAEE
:1047B00092E00E94461380E00E940B2EC091F50209
:1047C00083ED94E00E9462164C2F50E070E060E0B0
:1047D0002AE030E08AEA92E00E942D154091F4052B
:1047E0005091F5056091F6057091F70580ED94E024
:1047F000CF91EFCDCF92DF92EF92FF921F93CF93A5
:10480000DF938091E80283FD0DC08091EA028C70F5
:1048100049F481E0DF91CF911F91FF90EF90DF90FD
:10482000CF90B4CF0E94AB32D82F87FD71C0C0911A
:10483000F50284E40E94EA1B182F8823D1F1BFDB24
:104840006B017C0120E030E0A9010E94BEBC811117
:1048500002C0C0E03AC084E0D802F0011124EC505C
:10486000FA4FC082D182E282F38220E030E0A901D7
:10487000C701B6010E9460BE1816D4F420E030E0F3
:1048800040E05FE3C701B6010E9494BE9B01AC010A
:104890000E9494BE2BED3FE049E450E40E9494BE98
:1048A00060934E0170934F0180935001909351019A
:1048B000C12F83E50E94EA1B882321F18091EF023A
:1048C0009091F002892B61F4C1E0C093F502DF9171
:1048D000CF911F91FF90EF90DF90CF900C94665B8B
:1048E0000E944B1A97FDB5CF0E944B1A6F3F71057E
:1048F0008105910509F044F70E944B1AC1E061114E
:10490000E4CFA7CF83E50E949C1B8823F1F2DCCF84
:10491000DF91CF911F91FF90EF90DF90CF9008959E
:10492000CF93DF9382E40E949C1B882341F0809107
:104930002E0190912F0190930A018093090182E545
:104940000E949C1B882341F08091090190910A01EB
:1049500090932F0180932E0183E50E949C1B882356
:1049600081F08091EF029091F002009751F04AE0BF
:1049700050E070E060E00E9499C070932F01609356
:104980002E018091E8029091E902A091EA02B09193
:10499000EB02892B8A2B8B2BF1F4C0912E01D09145
:1049A0002F018BEF94E00E946216AE01DD0F660BC3
:1049B000770B2AE030E08AEA92E00E942D1565E24A
:1049C0008AEA92E00E9446136AE08AEA92E0DF9166
:1049D000CF910C944613DF91CF9108950F931F93BD
:1049E000CF93DF930E94AB32182F87FDACC080912C
:1049F000E8029091E902A091EA02B091EB0232E163
:104A0000B695A795979587953A95D1F7C12F012E21
:104A1000000CDD0B80FF24C0E091E002EE2309F4DE
:104A200060C08091F3029091F402E80FF92FF11D1C
:104A3000808190ED980F9A3040F08E3209F040C09E
:104A4000818180538A3008F049C0F093F002E093EE
:104A5000EF028091EF029091F002009709F046C0BA
:104A60000E946F1665E48AEA92E00E94461360E3B2
:104A7000610F8AEA92E00E944613CC0FDD1FCA5AEA
:104A8000DE4F0990D881C02D8FEF94E00E9462160E
:104A9000AE01DD0F660B770B2AE030E08AEA92E088
:104AA0000E942D1565E28AEA92E00E9446136AE0B0
:104AB0008AEA92E0DF91CF911F910F910C944613F7
:104AC0008D3211F08B3251F4818190ED980F9A3034
:104AD00008F4BBCF8E3211F48281B3CFF0E0E0E076
:104AE000B4CF1092F0021092EF02B3CF4AE050E040
:104AF00070E060E00E9499C0FE01EE0FFF1FEA5ACD
:104B0000FE4F71836083CC0FDD1FCC0FDD1F8E0144
:104B10000E5A1E4F072E000C880B990B0E945DBD8C
:104B20002AE037ED43E25CE30E9494BEC051DA4FC5
:104B3000288139814A815B810E9494BEF80160839B
:104B4000718382839383DF91CF911F910F91089599
:104B5000CF92DF92EF92FF92CF93DF93C82F41E085
:104B600066E175E00E9441328C2F0E940B2EC7E750
:104B7000DCE0C8A0D9A0EAA0FBA08DE095E00E94EF
:104B8000621622E0B701A6018AEA92E00E9480162E
:104B90002CEA35EC47E25EE36CA17DA18EA19FA1DA
:104BA0000E94C2BC6B017C018AE095E00E94621603
:104BB00022E0B701A6018AEA92E00E9480162CEA60
:104BC00035EC47E25EE368A579A58AA59BA50E941E
:104BD00094BE6B017C0187E095E00E94621622E0A2
:104BE000B701A6018AEA92E00E9480166AE08AEA8A
:104BF00092E0DF91CF91FF90EF90DF90CF900C94F7
:104C000046138091E80283FD06C08091E902817815
:104C100011F481E09DCF80E50E94EA1B882349F0D2
:104C2000CED96093970C7093980C8093990C9093C5
:104C30009A0C89E40E94EA1B882379F0C0D92CEAF7
:104C400035EC47E25EE30E9494BE60939B0C709348
:104C50009C0C80939D0C90939E0C84E40E94EA1B14
:104C6000882379F0ACD92CEA35EC47E25EE30E9468
:104C7000C2BC60939F0C7093A00C8093A10C909386
:104C8000A20C81E08093820C0895CF93DF9383E59B
:104C90000E949C1BD82F882361F00E944B1A7093AE
:104CA000700160936F0121E0672B09F020E02093F1
:104CB0003B0C80E50E949C1BC82F882319F1809132
:104CC0006F0190917001892BC1F08091EF0290915A
:104CD000F002892B91F00E944B1A97FD0DC00E94A3
:104CE0004B1A6F3F71058105910509F034F40E945C
:104CF0004B1AC1E0611101C0C0E0C0933B0CDF91D1
:104D0000CF910895D111FBCF0E946F168DE395E0EE
:104D10000E94621680913B0C81111CC086E395E0D5
:104D20000E946216C0916F01D091700185E295E0FA
:104D30000E946216AE01DD0F660B770B2AE030E0B1
:104D40008AEA92E00E942D1581E295E0DF91CF91F1
:104D50000C9462168AE395E0E3CFCF92DF92EF9254
:104D6000FF92CF93DF93C82F41E06FE575E00E947B
:104D700041328C2F50D7C4E4DCE0C8A0D9A0EAA00F
:104D8000FBA086E595E00E94621622E0B701A6012D
:104D90008AEA92E00E9480162CEA35EC47E25EE354
:104DA0006CA17DA18EA19FA10E94C2BC6B017C0160
:104DB00083E595E00E94621622E0B701A6018AEA27
:104DC00092E00E9480162CEA35EC47E25EE368A58B
:104DD00079A58AA59BA50E9494BE6B017C0180E504
:104DE00095E00E94621622E0B701A6018AEA92E0ED
:104DF0000E9480166AE08AEA92E0DF91CF91FF90EC
:104E0000EF90DF90CF900C9446138091E80283FDE1
:104E100006C08091E902817811F481E09ECF80E59F
:104E20000E94EA1B882349F0CAD86093640C7093EF
:104E3000650C8093660C9093670C89E40E94EA1BD2
:104E4000882379F0BCD82CEA35EC47E25EE30E9477
:104E500094BE6093680C7093690C80936A0C909375
:104E60006B0C84E40E94EA1B882379F0A8D82CEA12
:104E700035EC47E25EE30E94C2BC60936C0C709319
:104E80006D0C80936E0C90936F0C0895CF92DF920F
:104E9000EF92FF92CF93DF93C82F41E06FE675E06A
:104EA0000E9441328C2FB7D6C8E2D6E0CC88DD888C
:104EB000EE88FF8887E695E00E946216C701B6017A
:104EC0000E940017C88CD98CEA8CFB8C89E692E092
:104ED0000E946216C701B6010E940017CC8CDD8CBF
:104EE000EE8CFF8C86E692E00E946216C701B60146
:104EF0000E940017C8A0D9A0EAA0FBA083E692E018
:104F00000E946216C701B6010E9400176AE08AEA91
:104F100092E0DF91CF91FF90EF90DF90CF900C94D3
:104F200046134F925F926F927F92AF92BF92CF9251
:104F3000DF92EF92FF920F931F93CF930E94AB32B9
:104F400087FDAFC09091E80294FD18C09091EA02ED
:104F500097FD14C09091EB02937081F4682F81E06B
:104F6000CF911F910F91FF90EF90DF90CF90BF9066
:104F7000AF907F906F905F904F9088CF86E3A82E80
:104F800082E0B82E08E216E0C0E0F50181915F01F1
:104F90000E949C1B882371F08091EF029091F00297
:104FA000892B41F0C330D1F00AD8F801648B758B9E
:104FB000868B978BCF5F0C5F1F4FC43031F7CF913B
:104FC0001F910F91FF90EF90DF90CF90BF90AF9027
:104FD0007F906F905F904F900C94826B0E94DF1FC8
:104FE0006B017C0120E030E040EA51E40E94BEBC4D
:104FF00087FF4EC0A701960160914806709149064F
:1050000080914A0690914B060E94C2BC2B013C0144
:10501000AC019B0160910406709105068091060623
:10502000909107060E9494BE609304067093050653
:105030008093060690930706A3019201609158069B
:105040007091590680915A0690915B060E9494BE19
:10505000609358067093590680935A0690935B06A6
:10506000609124067091250680912606909127066E
:105070000E945BBDA30192010E9494BE0E942FBDBD
:105080006093240670932506809326069093270646
:10509000C0924806D0924906E0924A06F0924B062A
:1050A00089CFCF911F910F91FF90EF90DF90CF901C
:1050B000BF90AF907F906F905F904F900895109247
:1050C0000001089541E070E060E082E392E00C941A
:1050D00050130C948C4D1F93CF93DF938091E80273
:1050E0009091E902A091EA02B091EB0222E1B6951B
:1050F000A795979587952A95D1F780FF34C0E091C1
:10510000E002EE2309F478C08091F3029091F4025A
:10511000E80FF92FF11D808190ED980F9A3040F043
:105120008E3209F058C0818180538A3008F061C006
:10513000F093F002E093EF028091EF029091F00281
:10514000892B89F00E944B1A97FD5BC00E944B1A75
:105150006F3F71058105910511F00CF054C00E945C
:105160004B1A6093B4020E946F1682E895E00E9489
:1051700062168091B402882309F447C0D0E0C0E0F1
:1051800020E08091B40290E00C2E02C095958795A6
:105190000A94E2F780FF13C011E0120F222329F0D6
:1051A0006CE28AEA92E00E944613FE01EE0FFF1FB6
:1051B000E757FA4F859194910E946216212F21960C
:1051C000C530D105F1F66AE08AEA92E0DF91CF912D
:1051D0001F910C9446138D3211F08B3251F4818162
:1051E00090ED980F9A3008F4A3CF8E3211F482819B
:1051F0009BCFF0E0E0E09CCF1092F0021092EF0223
:105200009BCF60E0AECF6FEFACCF8EE795E00E9412
:105210006216D9CF81E00C94A34B80E00C94A34B91
:105220008091E80284FD0BC08091EA0287FD07C0EF
:105230009091EB02937081E019F480E0089581E091
:1052400008950F931F93CF93EBDF8823D1F185E46B
:105250000E949C1B882381F08091EF029091F002C4
:10526000009761F14AE050E070E060E00E9499C070
:10527000611102C00E94907B0AE312E0C0E0F801D5
:1052800021918F0121548091E8029091E902A0912F
:10529000EA02B091EB0204C0B695A7959795879561
:1052A0002A95D2F780FF03C08C2F0E94527BCF5FDC
:1052B000C33029F7CF911F910F9108950E949F7BD2
:1052C000DBCF60E089EB95E00E94F245CF911F9122
:1052D0000F910C94A17B0F931F93CF9383E50E94B2
:1052E0009C1B882379F18091EF029091F002892B29
:1052F00049F10FB6F8948091DE119091DF11A091E1
:10530000E011B091E1110FBE8093C9029093CA02DF
:10531000A093CB02B093CC020E94DF1F20E030E0CC
:105320004AE754E40E9494BE0E942FBD60930C0192
:1053300070930D0180930E0190930F01CF911F91F7
:105340000F9108956DDF882339F10E94295D85E46E
:105350000E949C1B81110E94A07B0AE312E0C0E026
:10536000F80121918F0121548091E8029091E90286
:10537000A091EA02B091EB0204C0B695A79597956B
:1053800087952A95D2F780FF03C08C2F0E94697BF6
:10539000CF5FC33029F7D2CFCF911F910F910C94DB
:1053A000015D2F923F924F925F926F927F928F9208
:1053B0009F92AF92BF92CF92DF92EF92FF920F93A4
:1053C0001F93CF93DF93CDB7DEB7A0970FB6F894B6
:1053D000DEBF0FBECDBFF82E41E061EE75E00E944A
:1053E00041328F2D18D400E111E0D8018C9190E367
:1053F000E92EE80E88ED95E00E9462166E2D8AEA8D
:1054000092E00E94461384ED95E00E946216F80136
:1054100080810E947D168F2DFED3D8011696CD90E7
:10542000DD90ED90FC9019971A968D919D910D90BD
:10543000BC91A02D898F9A8FAB8FBC8F26E4222E32
:1054400025E0322EF1014080518062807380A301FB
:105450009201D80112966D917D918D919C91159735
:105460000E9447BC6D877E878F87988BF10184806F
:105470009580A680B780A5019401C701B6010E945E
:1054800047BC698B7A8B8B8B9C8BD1011896CD9006
:10549000DD90ED90FC901B97A7019601698D7A8DA8
:1054A0008B8D9C8D0E9447BC6D8B7E8B8F8B988FD4
:1054B000D80152968D919D910D90BC91A02D898F10
:1054C0009A8FAB8FBC8FD80156968D919D910D9080
:1054D000BC91A02D8D8F9E8FAF8FB8A3A301920199
:1054E000F80166857785808991890E9447BC698328
:1054F0007A838B839C83A5019401698D7A8D8B8D32
:105500009C8D0E9447BC6D837E838F839887A70103
:1055100096016D8D7E8D8F8D98A10E9447BC698705
:105520007A878B879C870AEC15E02CEC35E0AE017E
:105530004B5E5F4FBE016F5E7F4FCE010D960E94A6
:10554000391710E000E022EC35E0AE01475F5F4F15
:10555000BE016B5F7F4FCE0101960E943917A09666
:105560000FB6F894DEBF0FBECDBFDF91CF911F9174
:105570000F91FF90EF90DF90CF90BF90AF909F90F2
:105580008F907F906F905F904F903F902F900895F5
:105590008091E8029091E902A091EA02B091EB02B9
:1055A00022E1B695A795979587952A95D1F780FF23
:1055B0004CC0E091E002EE23E1F18091F302909182
:1055C000F402E80FF92FF11D808190ED980F9A30C9
:1055D00030F08E32F1F4818180538A3038F5F093C7
:1055E000F002E093EF028091EF029091F002892B9C
:1055F00061F00E944B1A97FD26C00E944B1A6F3F24
:10560000710581059105D1F0CCF081E08093100106
:1056100008958D3211F08B3249F4818190ED980F0D
:105620009A30E8F28E3211F48281D6CFF0E0E0E0D9
:10563000D6CF1092F0021092EF02D5CF0E944B1AF3
:1056400081E06111E3CF80E0E1CF81E0AACE0C944C
:10565000295D0E94015D70E060E080E00E94558756
:105660000E948C880E94D54668EE73E080E090E04E
:105670000E948B1760E08FEE95E00C94F2458091CC
:10568000E8029091E902A091EA02B091EB0222E1D6
:10569000B695A795979587952A95D1F780FF40C035
:1056A000E091E002EE2309F44CC08091F302909166
:1056B000F402E80FF92FF11D808190ED980F9A30D8
:1056C00030F08E3271F5818180538A30B8F5F093D5
:1056D000F002E093EF020FB6F8948091DE11909102
:1056E000DF11A091E011B091E1110FBE8093C902CA
:1056F0009093CA02A093CB02B093CC020E94DF1F0A
:1057000020E030E04AE754E40E9494BE0E942FBD9E
:105710006093C5027093C6028093C7029093C8023B
:1057200008958D3211F08B3249F4818190ED980FFC
:105730009A3068F28E3211F48281C6CFF0E0E0E058
:10574000C6CF1092F0021092EF02C5CF83E0809393
:10575000B10283E50E949C1B8823D1F08091EF0267
:105760009091F002892BA1F00E944B1A97FF03C081
:1057700080E00C94C63E0E944B1A6F3F7105810574
:10578000910509F024F40E944B1A662389F30895C9
:1057900083E50E949C1B882359F3F9CF0FB6F89438
:1057A0004091DE115091DF116091E0117091E11193
:1057B0000FBE4093C9025093CA026093CB0270930C
:1057C000CC0260E00C94E2970C94F5730C943E7B51
:1057D0000C94D971CF9383E50E949C1BC82F88231A
:1057E000C9F08091EF029091F002892B99F00E940C
:1057F0004B1A97FD0DC00E944B1A6F3F7105810532
:10580000910509F05CF40E944B1AC1E0611106C0D9
:10581000C0E004C083E50E949C1BC1E081E08C27AE
:10582000CF910C9496710E94377B882331F00E94AF
:105830006F168BE096E00C9462160895CF92DF927B
:10584000EF92FF92CF93C82F41E06FE176E019D637
:105850008C2FE1D1C0909E05D0909F05E090A005CF
:10586000F090A10586E196E00E94621622E0B70161
:10587000A6018AEA92E00E9480166AE08AEA92E033
:10588000CF91FF90EF90DF90CF900C944613CF9282
:10589000DF92EF92FF920F931F93CF93DF93C0900D
:1058A0009E05D0909F05E090A005F090A105809105
:1058B000E8029091E902A091EA02B091EB022AE09D
:1058C000B695A795979587952A95D1F780FF50C0F3
:1058D000E091D802EE2309F4A3C08091F3029091E5
:1058E000F402E80FF92FF11D808190ED980F9A30A6
:1058F00040F08E3209F083C0818180538A3008F0F5
:105900008CC0F093F002E093EF028091EF0290914F
:10591000F002892B69F10E94DF1F8B01D82FC92F5C
:1059200020E030E0A9010E9460BE87FD0BC020E0AE
:1059300030E040E251E4B8018D2F9C2F0E94BEBCA4
:105940001816CCF46FE38AEA92E00E9446136BE4E7
:105950008AEA92E00E94461384E496E00E9462166E
:105960008CE396E00E94621689E396E00E9462163C
:105970008601DE2DCF2D9601A701B8018D2F9C2F1A
:105980000E94BEBC882369F00E94295DC801AD2F2A
:10599000BC2F80939E0590939F05A093A005B09384
:1059A000A1058091E8029091E902A091EA02B091EC
:1059B000EB02892B8A2B8B2BC1F50E946F16C090AE
:1059C0009E05D0909F05E090A005F090A1058EE285
:1059D00096E00E94621622E0B701A6018AEA92E0F0
:1059E0000E9480166AE08AEA92E0DF91CF911F91CF
:1059F0000F91FF90EF90DF90CF900C9446138D3273
:105A000011F08B3251F4818190ED980F9A3008F4A7
:105A100078CF8E3211F4828170CFF0E0E0E071CF68
:105A20001092F0021092EF0270CFDF91CF911F9190
:105A30000F91FF90EF90DF90CF900895CF92DF927B
:105A4000EF92FF920F931F93CF9383E50E94EA1B7F
:105A5000882369F00E94DF1F6B017C01C0E0B70161
:105A6000A6018C2F0E948F19CF5FC430C1F70EE3BF
:105A700012E0C0E0F80181918F010E94EA1B8823A7
:105A800039F00E94DF1FAB01BC018C2F0E948F19DF
:105A9000CF5FC43079F7CF911F910F91FF90EF90B6
:105AA000DF90CF900895CF93DF9383E50E94EA1BA8
:105AB000D0E0C0E0882319F00E944B1AEB0180E58A
:105AC0000E94EA1B811106C08FEFBE01DF91CF91CA
:105AD0000C9479190E944B1A97FD0CC00E944B1A26
