:100000000C940E100C9447100C9447100C9447104D
:100010000C9447100C9447100C9447100C94471004
:100020000C9447100C9447100C94A2BE0C941FBF64
:100030000C9447100C9447100C9447100C944710E4
:100040000C9447100C940A810C9447100C944710A0
:100050000C9447100C9447100C94878F0C9401BE9D
:100060000C9447100C9447100C9447100C944710B4
:100070000C9447100C9447100C9447100C944710A4
:100080000C9447100C9447100C9447100C94471094
:100090000C94AABA0C9447104E414E494E495459FB
:1000A000494E46CDCCCC3D0AD7233C17B7D1387743
:1000B000CC2B329595E6241FB14F0A000020410059
:1000C00000C84200401C4620BCBE4CCA1B0E5AAEA3
:1000D000C59D744572726F722077726974696E671C
:1000E00020746F20454550524F4D210A002020506A
:1000F0006C616E6E65724275666665724279746592
:10010000733A20002046726565204D656D6F7279E7
:100110003A200020436F6D70696C65643A20446535
:100120006320323720323032310A00204C61737440
:1001300020557064617465643A20323032312D315B
:10014000322D3237207C20417574686F723A202836
:100150004A65726F6D65205061756C290A004D61AA
:10016000726C696E206275676669782D322E302E4A
:10017000780A0020536F6674776172652052657348
:1001800065740A00205761746368646F6720526564
:100190007365740A002042726F776E206F75742049
:1001A00052657365740A002045787465726E616CDF
:1001B0002052657365740A00506F77657255700A36
:1001C0000073746172740A005072696E74657220F3
:1001D00068616C7465642E206B696C6C28292063DF
:1001E000616C6C6564210A002121204B494C4C2034
:1001F00063617573656420627920746F6F206D751B
:10020000636820696E6163746976652074696D65E1
:10021000202D2063757272656E7420636F6D6D6141
:100220006E643A20004D3130303100473238585931
:10023000004D3131322053687574646F776E004F12
:100240004646004F4E004572726F723A0065636811
:100250006F3A0020453A00205A3A0020593A0020CF
:10026000583A00204500205A00205900205800200C
:100270004300204200583A0020540020500000293A
:10028000002028002900202800290020280029001B
:1002900020280053746570706572206375727265F2
:1002A0006E742076616C75657320696E2025202838
:1002B000416D7073293A0A0020204D3230392053A5
:1002C0000020460020570020204D323038205300B7
:1002D00020460020570020204D3230372053002088
:1002E0003B204C6576656C696E67200020204D349C
:1002F00032302053004175746F20426564204C6594
:1003000076656C696E6700426564204C6576656C45
:10031000696E6720004661696C656420746F2065B2
:100320006E61626C6520426564204C6576656C691F
:100330006E670A00426564204C6576656C20436FE9
:100340007272656374696F6E204D61747269783A78
:10035000000A0A426564204C6576656C20436F7222
:1003600072656374696F6E204D61747269783A00CA
:100370002F332E0A0050726F62696E6720706F69AA
:100380006E742000202844525952554E290047329D
:1003900039204175746F20426564204C6576656C28
:1003A000696E67003F2856296572626F7365206C1D
:1003B0006576656C20696D706C61757369626C65DA
:1003C0002028302D34292E0A005A2050726F626581
:1003D0002050617374204265640A005A2050726F85
:1003E00062652050617374204265640020530020D0
:1003F000204D323035204200416476616E63656481
:100400002028423C6D696E5F7365676D656E745F31
:1004100074696D655F75733E20533C6D696E5F66F0
:10042000656564726174653E20543C6D696E5F74ED
:10043000726176656C5F66656564726174653E20A5
:10044000583C6D61785F785F6A65726B3E20593CFD
:100450006D61785F795F6A65726B3E205A3C6D61B1
:10046000785F7A5F6A65726B3E20453C6D61785FAC
:10047000655F6A65726B3E290020520020204D3274
:100480003034205000416363656C65726174696F3C
:100490006E2028756E6974732F7332292028503CA2
:1004A0007072696E742D616363656C3E20523C729C
:1004B0006574726163742D616363656C3E20543CA6
:1004C00074726176656C2D616363656C3E290020F2
:1004D000204D3230332058004D61782066656564C8
:1004E00072617465732028756E6974732F732900A7
:1004F00020204D3230312058004D61782041636317
:10050000656C65726174696F6E2028756E697473AD
:100510002F7332290020440020204D3230302053E8
:1005200000202844697361626C6564293A00466959
:100530006C616D656E742073657474696E677300A9
:1005400046523A0020466C6F773A2000204C00203B
:10055000440020490020204D333031205000486FA6
:1005600074656E64205049440043290A0061626C3E
:10057000656420286D696E2074656D702000646963
:100580007300656E00436F6C6420657874727564E7
:1005900065732061726520002044002049002020FE
:1005A0004D333034205000426564205049440020CF
:1005B000204D393220580053746570732070657275
:1005C00020756E6974004543484F00494E464F0000
:1005D0004552524F52530044525952554E00434FC8
:1005E0004D4D554E49434154494F4E006F6666008C
:1005F000C605CB05D005D705DE0544454255473A2B
:1006000000616C736F20656E61626C6564290A001D
:100610002E0A00206E6F742064697361626C6564D9
:100620002E205368617265642077697468004E6F8C
:10063000204D6F76652E0020204D61783A200020F5
:10064000204D696E3A20002000203B200020204DE4
:10065000323131205300536F667420656E647374B9
:100660006F7073005072696E7472626F7420536998
:100670006D706C65204D6574616C204F46462E0090
:10068000454550524F4D204F4B0A0020204D3930E8
:1006900030204B004C696E65617220416476616E5A
:1006A000636500416476616E6365204B3D002E0AF0
:1006B000002028302D313029002076616C756520AE
:1006C0006F7574206F662072616E67650041757486
:1006D0006F2D526574726163742028533C656E619E
:1006E000626C653E29005265636F766572202853FF
:1006F0003C6C656E6774683E20463C666565647256
:100700006174653E290052657472616374202853D8
:100710003C6C656E6774683E20463C666565647235
:100720006174653E205A3C6C6966743E29006275AE
:1007300073793A2070617573656420666F72206901
:100740006E7075740A00627573793A207061757302
:10075000656420666F7220757365720A0062757336
:10076000793A2070726F63657373696E670A00204F
:10077000496E76616C69642065787472756465721F
:10078000200020286D6D29003B2000546F6F2066EB
:1007900061722066726F6D207265666572656E6348
:1007A0006520706F696E740A0020204D323036204B
:1007B0005800486F6D65206F666673657400FF01B1
:1007C000FF0000000000001843000000004F6666B4
:1007D00073657473204170706C696564004D3131CC
:1007E000332053004361703A00434F4E4649475F00
:1007F0004558504F5254004D4541545041434B00D1
:10080000434F4F4C45525F54454D5045524154550E
:100810005245004348414D4245525F54454D504575
:10082000524154555245004241425953544550504B
:10083000494E470041524353004D4F54494F4E5F7C
:100840004D4F44455300544845524D414C5F505222
:100850004F54454354494F4E00455854454E444526
:10086000445F4D3230004C4F4E475F46494C454E39
:10087000414D45004155544F5245504F52545F53DE
:10088000445F5354415455530053445F57524954A5
:1008900045005245504541540053444341524400A1
:1008A00050524F4D50545F535550504F5254004882
:1008B0004F53545F414354494F4E5F434F4D4D4159
:1008C0004E445300454D455247454E43595F5041B4
:1008D0005253455200434153455F4C494748545F8A
:1008E0004252494748544E45535300544F47474C92
:1008F000455F4C494748545300534F465457415263
:10090000455F504F574552004255494C445F504552
:100910005243454E54004C4556454C494E475F4462
:10092000415441005A5F50524F42450052554E4F7C
:100930005554004155544F4C4556454C0050524972
:100940004E545F4A4F420050524F47524553530056
:100950004155544F5245504F52545F54454D5000ED
:100960004155544F5245504F52545F504F530056CB
:100970004F4C554D455452494300454550524F4DFB
:100980000042494E4152595F46494C455F545241DD
:100990004E534645520053455249414C5F584F4EC5
:1009A0005F584F4646004649524D574152455F4EAB
:1009B000414D453A4D61726C696E2062756766699A
:1009C000782D322E302E782028446563203237204F
:1009D000323032312031333A32383A3036292053EE
:1009E0004F555243455F434F44455F55524C3A671C
:1009F00069746875622E636F6D2F4D61726C696EDC
:100A00004669726D776172652F4D61726C696E20F7
:100A100050524F544F434F4C5F56455253494F4EDF
:100A20003A312E30204D414348494E455F5459508C
:100A3000453A5072696E7472626F742053696D70BA
:100A40006C65204D6574616C204558545255444581
:100A5000525F434F554E543A3120555549443A66FA
:100A6000666164356563382D313933332D34316433
:100A7000362D613234312D6639303266663431625A
:100A80003235360A002F2F00536C6565702E2E2EDE
:100A90000050726F6265204F6666736574205A005D
:100AA00050726F6265204F6666736574205A00222B
:100AB0000A00556E6B6E6F776E20636F6D6D616EA1
:100AC000643A202200205A3A200020593A2000425D
:100AD000656420583A2000203B0020204D383531F5
:100AE0002058005A2D50726F6265204F66667365FC
:100AF0007400290A0020746F20003F5A206F75741B
:100B0000206F662072616E6765202800290A002028
:100B1000746F20003F59206F7574206F66207261DA
:100B20006E676520282D00290A0020746F20003F81
:100B300058206F7574206F662072616E676520287B
:100B40002D00446F6E6520736176696E672066695B
:100B50006C652E0A005072696E7465722073746F32
:100B6000707065642064756520746F206572726FA3
:100B700072732E2046697820746865206572726FE2
:100B80007220616E6420757365204D393939207487
:100B90006F20726573746172742E202854656D70B5
:100BA000657261747572652069732072657365740E
:100BB0002E205365742069742061667465722072FA
:100BC000657374617274696E67290A004E6F204301
:100BD0006865636B73756D2077697468206C696EE6
:100BE00065206E756D6265722C204C617374204CAB
:100BF000696E653A20004E6F20436865636B7375BC
:100C00006D2077697468206C696E65206E756D6201
:100C100065722C204C617374204C696E653A20001B
:100C2000636865636B73756D206D69736D61746363
:100C3000682C204C617374204C696E653A20004C1E
:100C4000696E65204E756D626572206973206E6FE6
:100C500074204C617374204C696E65204E756D6212
:100C600065722B312C204C617374204C696E653A8F
:100C700020004D3131300053657269616C2073740E
:100C800061747573206D69736D617463680A0077B0
:100C90006169740A006F6B0A00526573656E643A8D
:100CA00020006F6B0053442072656164206572728E
:100CB0006F720A004D3239004732380053544F509A
:100CC0005045442E20004D383400446F6E6520702E
:100CD00072696E74696E672066696C650A004D37CB
:100CE00037004D3331004E6F206D656469610A0035
:100CF000456E642066696C65206C6973740A0042F5
:100D00006567696E2066696C65206C6973740A009A
:100D100043757272656E742066696C653A20005086
:100D200072696E742074696D653A200025697300DC
:100D300025696D20256973002569682025696D2066
:100D400025697300256964202569682025696D205F
:100D50002569730025697920256964202569682043
:100D600025696D20256973006F6B0042656420431F
:100D70006F6F6C696E672E2E2E0042656420486589
:100D80006174696E672E2E2E00504944204175749F
:100D90006F74756E65206661696C656421204261BF
:100DA00064206865617465722069640A0050494472
:100DB000204175746F74756E65006F70656E0054B8
:100DC0005249474745524544003A20007A5F6D69D1
:100DD0006E00795F6D617800785F6D696E005265B5
:100DE000706F7274696E6720656E6473746F7020C3
:100DF0007374617475730A00205A3A0020593A00DE
:100E000020583A00656E6473746F7073206869745B
:100E10003A2000486F6D696E67204661696C6564B1
:100E2000005761726E696E673A20486F6D696E6730
:100E30002042756D702044697669736F72203C2082
:100E4000310A0002020420746F6F206C6F6E6720FD
:100E5000657874727573696F6E2070726576656EF1
:100E60007465640A0020636F6C6420657874727521
:100E700073696F6E2070726576656E7465640A00C2
:100E80000000A0400000A040000000400000184307
:100E900000001843000018430000184300001843E6
:100EA00000001843000000000000000000000000E7
:100EB000486F6D652025732573257320466972730D
:100EC000740020746F6F206C6F6E67206578747289
:100ED0007573696F6E2070726576656E7465640AED
:100EE0000020636F6C6420657874727573696F6E2F
:100EF0002070726576656E7465640A0050726F6268
:100F0000696E67204661696C65640A00205A3A2060
:100F10000020593A200042656420583A200050725F
:100F20006F62696E67204661696C65640020204DC0
:100F30003134392043203B20556E69747320696E2B
:100F40002043656C736975730A0054656D70657232
:100F5000617475726520556E697473002020473284
:100F600031203B004C696E65617220556E69747367
:100F70000048617264636F646564204465666175EE
:100F80006C742053657474696E6773204C6F616470
:100F900065640A00454550524F4D20496E69746999
:100FA000616C697A65640A00290A002062797465B7
:100FB000733B2063726320002073746F726564203A
:100FC00073657474696E677320726574726965768F
:100FD0006564202800202863616C63756C6174650A
:100FE0006429210A0020213D2000454550524F4DE3
:100FF00020435243206D69736D61746368202D2016
:101000002873746F7265642920002053697A653AE9
:101010002000496E6465783A2000204D61726C6949
:101020006E3D563836290A00454550524F4D2076C0
:10103000657273696F6E206D69736D61746368208A
:1010400028454550524F4D3D00290A0020627974D1
:1010500065733B20637263200053657474696E6727
:10106000732053746F726564202800454550524FB9
:101070004D206461746173697A65206572726F7264
:101080002E0A000000FA420000FA420000A04000D0
:101090000060410000A0420000A0420000C84300E0
:1010A00000C042D0070000D00700001E0000001062
:1010B0002700004E6F20454550524F4D2E0A0053D9
:1010C000657474696E67732053746F726564002071
:1010D000436F756E7420583A00C23100001C260020
:1010E00000F4190000D80F0000EB080000C0040055
:1010F00000750200004001000024F4D43050C38E7B
:1011000020C2A24017828B7011127A910D816CD986
:101110000AA861E108C7586607615143061E4B5D86
:1011200005C145A7041A411104093D9803713931DD
:10113000034036DB0265339102D4305402802E1D09
:1011400002632CEE01752AC501B028A00110278189
:10115000018F2564012B244B01E0223401AC211FB7
:10116000018D200D01801FFC00841EED00971DDF06
:1011700000B81CD200E61BC600201BBC00641AB2DB
:1011800000B219A8000A19A0006A189900D1179195
:101190000040178B00B516840031167E00B3157918
:1011A000003A157300C7146F0058146A00EE1366F6
:1011B000008813630025135E00C7125B006C125792
:1011C0000015125400C111510070114F0021114B34
:1011D00000D61049008D104700461044000210420E
:1011E00000C00F4000800F3E00420F3C00060F3B46
:1011F00000CB0E3800930E37005C0E3500270E34FE
:1012000000F30D3200C10D3100900D3000600D2E45
:1012100000320D2D00050D2C00D90C2B00AE0C2931
:1012200000850C29005C0C2700350C27000E0C26CD
:1012300000E80B2400C40B2400A00B23007D0B232B
:10124000005A0B2100390B2100180B2000F80A1F4F
:1012500000D90A1E00BB0A1E009D0A1D00800A1D3F
:1012600000630A1C00470A1B002C0A1B00110A1A03
:1012700000F7091A00DD091900C4091900AB0919A2
:1012800000920917007B091800630917004C091622
:101290000036091600200916000A091500F5081580
:1012A00000E0081400CC081400B8081400A40814C6
:1012B00000900813007D0812006B081300580812F4
:1012C000004608120034081100230811001208110A
:1012D0000001081100F0071000E0071000D007100F
:1012E00000C0071000B0070F00A107100091070E03
:1012F0000083070F0074070F0065070E0057070EE5
:101300000049070E003B070D002E070E0020070DB9
:101310000013070D0006070D00F9060C00ED060D81
:1013200000E0060C00D4060C00C8060C00BC060C3D
:1013300000B0060C00A4060B0099060C008D060BED
:101340000082060B0077060B006C060B0061060A94
:101350000057060B004C060A0042060A0038060A2F
:10136000002E060A0024060A001A060A00100609C2
:101370000007060A00FD050900F4050900EB050950
:1013800000E2050900D9050900D0050900C70509D3
:1013900000BE050900B5050800AD050800A5050952
:1013A000009C050800940508008C050800840508C9
:1013B000007C050800740508006C05070065050839
:1013C000005D050700560508004E050700470507A4
:1013D000004005080038050700310507002A050709
:1013E00000230507001C050600160507000F05076A
:1013F000000805060002050700FB040600F50407C7
:1014000000EE040600E8040600E2040700DB040620
:1014100000D5040600CF040600C9040600C3040674
:1014200000BD040600B7040600B1040500AC0406C4
:1014300000A6040600A00405009B04060095040510
:1014400000900406008A0405008504050080040657
:10145000007A04050075040500700405006B04059E
:101460000066040500610405005C040500570405DE
:1014700000520405004D040500480405004304051E
:10148000003E0404003A040500350405003004045D
:10149000002C04050027040400230405001E040496
:1014A000001A04040016040500110404000D0404CD
:1014B00000090405000404040000040400FC030403
:1014C00000F8030400F4030400F0030400EC030438
:1014D00000E8030400E4030400E0030400DC030468
:1014E00000D8030400D4030400D0030400CC030498
:1014F00000C8030300C503030024F404D9201BC45F
:101500000C5C0E9804C4095F0265077101F405F9CB
:1015100000FB04B30048048700C103690058035569
:101520000003034500BE023A008402310053022A40
:10153000002902250004022000E4011C00C8011952
:1015400000AF01170098011400840113007101100D
:10155000006101100051010E0043010D0036010B26
:10156000002B010B0020010B00150109000C0109E3
:101570000003010800FB000800F3000800EB00076F
:1015800000E4000600DE000600D8000600D20006D7
:1015900000CC000500C7000500C2000500BD000426
:1015A00000B9000400B5000400B1000400AD00045F
:1015B00000A9000400A5000300A20003009F00048E
:1015C000009B0003009800030095000200930003B5
:1015D00000900003008D0002008B000300880002D1
:1015E000008600020084000300810002007F0002E8
:1015F000007D0002007B00020079000200770001FC
:101600000076000200740002007200010071000206
:10161000006F0002006D0001006C0002006A000112
:10162000006900020067000100660001006500011A
:10163000006400020062000100610001006000011E
:10164000005F0002005D0001005C0001005B000122
:10165000005A000100590001005800010057000124
:101660000056000100550001005400010053000025
:101670000053000100520001005100010050000120
:10168000004F0001004E0000004E0001004D00011F
:10169000004C0001004B0000004B0001004A00011B
:1016A0000049000100480000004800010047000117
:1016B0000046000000460001004500000045000112
:1016C000004400010043000000430001004200000C
:1016D0000042000100410000004100010040000103
:1016E000003F0000003F0001003E0000003E0001FE
:1016F000003D0000003D0001003C0000003C0000F7
:10170000003C0001003B0000003B0001003A0000EB
:10171000003A0001003900000039000100380000E3
:1017200000380000003800010037000000370001D9
:1017300000360000003600000036000100350000D1
:1017400000350000003500010034000000340000C6
:1017500000340001003300000033000000330001BA
:1017600000320000003200000032000100310000B1
:1017700000310000003100010030000000300000A6
:1017800000300001002F0000002F0000002F00009B
:10179000002F0001002E0000002E0000002E00018E
:1017A000002D0000002D0000002D0000002D000184
:1017B000002C0000002C0000002C0000002C000178
:1017C000002B0000002B0000002B0000002B00016C
:1017D000002A0000002A0000002A0000002A000160
:1017E0000029000000290000002900000029000055
:1017F0000029000100280000002800000028000047
:101800000028000000280001002700000027000039
:10181000002700000027000000270001002600002C
:10182000002600000026000000260000002600011F
:101830000025000000250000002500000025000014
:101840000025000000250001002400000024000005
:1018500000240000002400000024000100230000F8
:1018600000230000002300000023000000230000EC
:1018700000230000002300010022000000220000DD
:1018800000220000002200000022000000220001CF
:1018900000210000002100000021000000210000C4
:1018A00000210000002100000021000100200000B4
:1018B00000200000002000000020000000200000A8
:1018C000002000000020000000200001001F000098
:1018D000001F0000001F0000001F0000001F00008C
:1018E000001F0000001F0001001E0000001E00007D
:1018F000001E0000001E00000020573A0020573A4A
:1019000000202F002042403A0020403A00202D20A5
:10191000496E76616C69642065787472756465726D
:10192000206E756D62657220210A004D494E544546
:101930004D5020747269676765726564004D415847
:1019400054454D502074726967676572656400453F
:1019500000626564002C2073797374656D20737464
:101960006F7070656421204865617465725F4944D9
:101970003A2000004B6420004B6920004B7020008F
:1019800062656400504944204175746F74756E65DA
:101990002066696E697368656421205075742074CF
:1019A0006865206C617374204B702C204B6920613A
:1019B0006E64204B6420636F6E7374616E74732069
:1019C00066726F6D2062656C6F7720696E746F2030
:1019D000436F6E66696775726174696F6E2E680A0F
:1019E00000504944204175746F74756E65206661BE
:1019F000696C6564212074696D656F75740A0050A7
:101A00004944204175746F74756E65206661696C18
:101A10006564212054656D7065726174757265200E
:101A2000746F6F20686967680A00204B643A200071
:101A3000204B693A2000204B703A200020436C6113
:101A40007373696320504944200A00204E6F206F51
:101A500076657273686F6F740A002054753A2000BF
:101A6000204B753A2000206D61783A2000206D6986
:101A70006E3A200020643A200020626961733A20A7
:101A800000504944204175746F74756E65207374FD
:101A90006172740A00504944204175746F74756E08
:101AA00065206661696C6564212054656D7065729E
:101AB000617475726520746F6F20686967680A00C9
:101AC00045310023646566696E652044454641558D
:101AD0004C545F0048656174696E67206661696C8B
:101AE000656400546865726D616C2052756E617733
:101AF0006179001000AD0330016A0150022B0170C2
:101B0000030A019004F500B005E500D006D800F006
:101B100007CE001009C500300ABE00500BB7007098
:101B20000CB100900DAB00B00EA600D00FA200F0DB
:101B3000109D0010129900301395005014920070FF
:101B4000158E0090168B00B0178700D0188400F017
:101B5000198100101B7E00301C7B00501D79007025
:101B60001E7600901F7300B0207000D0216E00F030
:101B7000226B001024690030256600502663007037
:101B800027610090285E00B0295C00D02A5900F03F
:101B90002B5600102D5400302E5100502F4E007047
:101BA000304B0090314800B0324500D0334200F055
:101BB000343E0010363B0030373700503833007069
:101BC000392E00903A2900B03B2300D03C1B00F096
:101BD0003D1100103F0100F03F000070012C01900A
:101BE000012701B0012201C0011D01F001180110FF
:101BF00002130130020E016002090190020401C0CB
:101C000002FF000003FA004003F5008003F000D05B
:101C100003EB002004E6007004E100E004DC004077
:101C200005D700C005D2004006CD00D006C8008010
:101C300007C3003008BE00F008B900C009B400B006
:101C40000AAF00B00BAA00D00CA500000EA00050F7
:101C50000F9B00C01096005012910000148C00C021
:101C6000158700B0178200B0197D00D01B780000E6
:101C70001E730040206E0090226900F02464004032
:101C8000275F0090295A00E02B5500102E500020AD
:101C9000304B0010324600E033410090353C0010DC
:101CA00037370070383200A0392D00B03A2800A034
:101CB0003B2300603C1E00103D1900903D140010B5
:101CC0003E0F00703E0A00C03E0500003F0000408D
:101CD0003FFBFF803FF6FFC03FF1FF4572723A20A5
:101CE0004D494E54454D50004572723A204D415871
:101CF00054454D5000544845524D414C2052554E8C
:101D0000415741590048656174696E6720466169B1
:101D10006C65640042656400496E76616C6964209C
:101D200065787472756465720A007C3C3E5E2B3D7A
:101D30003F2F5B5D3B2C2A225C002F6175746F2561
:101D4000632E67006572726F722077726974696EB4
:101D50006720746F2066696C650A004E6F742053AB
:101D600044207072696E74696E670A005344207073
:101D700072696E74696E67206279746520002E0A3C
:101D80000044656C6574696F6E206661696C65649A
:101D90002C2046696C653A200046696C65206465B4
:101DA0006C657465643A0046696C652073656C65A2
:101DB000637465640A002053697A653A20004669B5
:101DC0006C65206F70656E65643A2000454E442056
:101DD000535542524F5554494E450A002220706FC8
:101DE00073002220706172656E743A22005355426E
:101DF000524F5554494E452043414C4C207461721A
:101E00006765743A22004578636565646564206D92
:101E1000617820535542524F5554494E45206465D0
:101E20007074683A002066696C653A2000667265D5
:101E3000736800646F696E67004E6F7720002E0A2A
:101E4000006F70656E206661696C65642C20466960
:101E50006C653A20000A4D323400534420636172AD
:101E600064206F6B0A006F70656E526F6F7420662E
:101E700061696C65640A00766F6C756D652E696EBC
:101E80006974206661696C65640A004E6F20534472
:101E900020636172640A00286E6F2066696C652990
:101EA0000043616E6E6F74206F70656E2073756293
:101EB000646972200057726974696E6720746F20BC
:101EC00066696C653A20004D3233202573005375E6
:101ED0006263616C6C204F766572666C6F7700018F
:101EE00029022904290829102920294029802901AB
:101EF0002C022C0126022604260826102620264025
:101F0000268026402C802C01230223042308231042
:101F100023202340238023012002200420082010B6
:101F200020202040208020102C202C012F022F0464
:101F30002F082F102F202F402F802F00010000ECA2
:101F40001F1200020000A91F4300030000A51F0488
:101F5000010309048B1F1802030904731F160303EE
:101F60000904651F0C0C03310032003300340035C6
:101F70000000001603550053004200200053006586
:101F8000007200690061006C0000001803540065D5
:101F90000065006E00730079006400750069006ED2
:101FA000006F00000004030904090243000201005D
:101FB000C0320904000001020201000524001001E2
:101FC000052401000104240206052406000107057A
:101FD000820308004009040100020A00000007050E
:101FE00003024000000705840240000012010002C5
:101FF00002000020C01683047202010203010001E6
:10200000C1020180360181367E10D614351CFD7068
:102010003776FD9EBDB8C8B98DC2E2B811241FBE87
:10202000CFEFD0E2DEBFCDBF84B78093B81214BE2D
:102030000FB6F894A8958091600088618093600045
:10204000109260000FBE12E0A0E0B1E0E2E1FBE917
:1020500001E00BBF02C007900D92A035B107D9F780
:1020600022E1A0E5B2E001C01D92A83BB207E1F772
:1020700010E1CDE0D0E104C02197FE010E9402C32F
:10208000C430D107C9F70E94DCBB0C947ACD0C9404
:102090000000A0915002B0915102109769F0ED91AB
:1020A000FC91119712968D919C91139790935102E8
:1020B000809350020995EDCF0895CF93DF93EC0103
:1020C00084E090E00E94E2BB009781F0FC01D183A4
:1020D000C083209150023091510233832283909328
:1020E00051028093500280E090E002C081E090E0D5
:1020F000DF91CF91089508950C9406AC8AEA92E19D
:1021000090935302809352020895909164009B7FB4
:1021100090936400982F906A96959CBD80FD03C0B3
:1021200091E0863009F490E09DBD0895209A289AA8
:10213000219A2398229A81E0E8CF8FEF8EBD0DB4CB
:1021400007FEFDCF8EB5089561157105D1F0615080
:1021500071092FEF2EBDFC01AF01481B590B46172B
:10216000570738F40DB407FEFDCF3EB531932EBDB1
:10217000F3CF0DB407FEFDCF2EB5FC01E60FF71F20
:10218000208308958EBD0DB407FEFDCF08958EBD4A
:10219000FB01CB019E5F0DB407FEFDCF20812EBD5C
:1021A0000DB407FEFDCF21812EBD3296E817F90749
:1021B00091F70DB407FEFDCF089581E0089581E009
:1021C00008955F926F927F928F929F92AF92BF928B
:1021D000CF92DF92EF92FF920F931F93CF93DF93F3
:1021E0001F92CDB7DEB77C0139018B015B01A40ED4
:1021F000B51EC12CD12CA016B10609F43FC0F701C1
:1022000080809180F80151908F015982C4010E9411
:1022100064CD581621F1652DC4010E946CCDFFEFED
:10222000CF1ADF0AC6018F779927892B39F062E030
:1022300070E080E090E00E9441BE05C062E070E086
:1022400080E090E0B4D4C4010E9464CD99818917E4
:1022500031F0C2D383ED90E0B1D381E010C041E012
:1022600050E0BE016F5F7F4FC3010E94164AF70125
:1022700080819181019691838083BDCF80E00F9012
:10228000DF91CF911F910F91FF90EF90DF90CF9052
:10229000BF90AF909F908F907F906F905F900895C8
:1022A0008F929F92AF92BF92CF92DF92EF92FF9266
:1022B0000F93CF93DF931F92CDB7DEB75C016B0115
:1022C0007A014901F501808191810E9464CD898361
:1022D000002311F0F601808341E050E0BE016F5F02
:1022E0007F4FC4010E94164AF501808191810196B9
:1022F00091838083FFEFCF1ADF0A81E0E81AF108AB
:1023000009F780E00F90DF91CF910F91FF90EF9050
:10231000DF90CF90BF90AF909F908F90089598E2FC
:1023200088E10FB6F894A895809360000FBE909353
:1023300060000895089508950C948A4BC82F89EE83
:1023400093E0019739F000C00000EEE5F9E0319725
:10235000F0F7F7CFF89489EE93E0019739F000C0D9
:102360000000E6EEF3E03197F0F7F7CF0E94218FFF
:10237000CC2319F00E94DD8002C00E94D580A89570
:10238000FECFDC018D919C91DC01ED91FC910190DF
:10239000F081E02D0994EC01142F0E94218F2097E9
:1023A00039F01AD3CE010AD36AE082E592E0E9DF80
:1023B00016D388EC91E002D3812FC0DFCF92DF9259
:1023C000EF92FF920F931F93CF93DF93C82F0E943A
:1023D00063450FB6F894C0909F12D090A012E09081
:1023E000A112F090A2120FBECC2341F0C0929F0226
:1023F000D092A002E092A102F092A20240919B0230
:1024000050919C0260919D0270919E024115510570
:102410006105710571F180919F029091A002A091D8
:10242000A102B091A202840F951FA61FB71FA7019A
:102430009601281B390B4A0B5B0B57FD1AC0CFD2F4
:102440000091C9021091CA0288EE91E0B7D2E8016A
:102450006991662321F082E592E093DFF9CF6AE08B
:1024600082E592E08EDF40E060E070E080E090E0A6
:1024700092DF00910C0110910D0120910E0130911D
:102480000F01011511052105310509F43DC0909199
:10249000590680915606981749F0C0929F02D09233
:1024A000A002E092A102F092A2022EC0C1114CC083
:1024B0000FB6F89480919F129091A012A091A11252
:1024C000B091A2120FBE40919F025091A002609164
:1024D000A1027091A202400F511F621F731F841B43
:1024E000950BA60BB70BB7FD2FC080915802811139
:1024F0000BC081E08093580280E00E94978081E0C9
:102500000E9497800E94D58080915402909155023C
:10251000A0915602B0915702A7019601281B390BD2
:102520004A0B5B0B57FD13C00E94306034E6C30EAC
:10253000D11CE11CF11CC0925402D0925502E092D1
:102540005602F092570203C010925802DDCFDF917D
:10255000CF911F910F91FF90EF90DF90CF90089552
:10256000CF92DF92EF92FF9229DF0E94E493809155
:102570005902882309F43EC00E94E7B50E941F3526
:1025800080919902811136C02091390C222391F15A
:102590000FB6F894C0909F12D090A012E090A112B4
:1025A000F090A2120FBE8091350C9091360CA09144
:1025B000370CB091380CB701A601481B590B6A0BB8
:1025C0007B0B77FD17C030E0A8EEB3E00E940BC391
:1025D000C60ED71EE81EF91EC092350CD092360CDE
:1025E000E092370CF092380CFF90EF90DF90CF9094
:1025F0000C945296FF90EF90DF90CF900895CBE22D
:10260000D2E013E080E0ACDF8091DF1187FF1BC0D8
:102610001092B6110E942EB210921503109214035C
:10262000109213030E9498510E94F44A0E94218F35
:1026300060E070E080E00E94158B10920001D09362
:102640000E03C0930D0380915902843039F485E262
:1026500092E00E947E418111109359020E94224310
:102660000E949650CFCF8F929F92AF92BF92CF92FF
:10267000DF92EF92FF920F931F93CF93DF93CDB72B
:10268000DEB7A0970FB6F894DEBF0FBECDBF7C01BA
:102690004115510561057105B9F100E04901330F9C
:1026A000AA08BB08102FCC24C394D12CCC0EDD1E5D
:1026B000C00ED11C07FDDA94CB01BA01A50194012B
:1026C0000E94C4C2942F852FF6016083A901692F4F
:1026D000782F0F5F411551056105710519F71F3FEF
:1026E00039F1E1E0F0E0EC0FFD1FE10FF11D17FD06
:1026F000FA9580818A3010F067E301C060E3680FCB
:10270000C7013FDE1150EBCF60E3A0960FB6F894FF
:10271000DEBF0FBECDBFDF91CF911F910F91FF9014
:10272000EF90DF90CF90BF90AF909F908F9029CE89
:10273000A0960FB6F894DEBF0FBECDBFDF91CF914C
:102740001F910F91FF90EF90DF90CF90BF90AF90CF
:102750009F908F900895CF92DF92EF92FF920F9308
:102760001F93CF93DF93EC016A017B0189012A302B
:10277000310561F477FF0AC0F094E094D094C094DE
:10278000C11CD11CE11CF11C6DE2FBDD9801B701FD
:10279000A601CE01DF91CF911F910F91FF90EF9095
:1027A000DF90CF9060CFCF92DF92EF92FF92CF93E6
:1027B000DF93C091B81240E950ED63E070E0809182
:1027C0005202909153020E941AC20FB6F894C09020
:1027D0009F12D090A012E090A112F090A2120FBE12
:1027E00088EEC80E83E0D81EE11CF11C80915202D5
:1027F000909153020E9482C2811111C00FB6F894C9
:1028000080919F129091A012A091A112B091A2125A
:102810000FBE8C199D09AE09BF09B7FDE7CF81EC4A
:1028200091E0CCD06AE070E080E090E00E9441BE90
:1028300080E885BF85BF5FDC7EDDC0FF03C088EB1D
:1028400091E0BCD0C1FF03C087EA91E0B7D0C2FFDE
:1028500003C085E991E0B2D0C3FF03C084E891E0F2
:10286000ADD0C5FF03C083E791E0A8D08EE591E02D
:10287000A5D0B2D08BE291E0A1D0AED083E191E0BF
:102880009DD0AAD039DCEC0184E091E097D0AE0174
:10289000DD0F660B770B2AE030E082E592E05BDF2C
:1028A0008DEE90E08BD02AE030E040E255E060E031
:1028B00070E082E592E0D7DE6AE082E592E061DDD9
:1028C00039DD80915B02811104C00E941B8081115F
:1028D00069C0209134013091350140913601509109
:1028E0003701609128057091290580912A05909102
:1028F0002B050E9425C360933401709335018093AA
:10290000360190933701209138013091390140917F
:102910003A0150913B0160912C0570912D058091F9
:102920002E0590912F050E9425C360933801709366
:10293000390180933A0190933B0120913005309109
:102940003105409132055091330560913C01709101
:102950003D0180913E0190913F010E9425C360930B
:102960003C0170933D0180933E0190933F010E9492
:10297000FE5084E69DE00E946A910E94304B0E94C6
:10298000E84F0E94D98380E00E94F34F5CD3C7DCFC
:1029900083E080935902DF91CF91FF90EF90DF9019
:1029A000CF90089581E080935B0293CF8AE592E017
:1029B0000C940EB1682F82E592E0E3CCCF93DF93C5
:1029C000FC018491EF012196882319F0F3DFFE01C9
:1029D000F8CFDF91CF9108958DE492E0EFCF86E4B8
:1029E00092E0ECCF811103C08FE392E002C083E458
:1029F00092E0E4CFF7DF8AE0DDCF8F929F92AF9233
:102A0000BF92CF92DF92EF92FF920F931F93CF93DB
:102A10008C016A017B01B22E20E030E0A901C701E0
:102A2000B6010E949CC387FF07C06DE2C801A9DC04
:102A3000F7FAF094F7F8F094C0E060E070E080E01E
:102A40009FE3CB1541F02DEC3CEC4CEC5DE30E9498
:102A500072C5CF5FF6CF9B01AC01C701B6010E94E2
:102A600025C36B017C010E940DC44B015C012AE06F
:102A700030E0AB01BC01C801F6DDCC2389F1C50112
:102A8000B4010E9439C49B01AC01C701B6010E9488
:102A900024C36B017C016EE2C80173DC20E030E0EE
:102AA00040E251E4C701B6010E9472C56B017C018E
:102AB0000E940DC44B015C012AE030E0AB01BC0177
:102AC000C801D1DDC501B4010E9439C49B01AC012C
:102AD000C701B6010E9424C36B017C01C150F1F60D
:102AE000CF911F910F91FF90EF90DF90CF90BF900B
:102AF000AF909F908F9008958F929F92AF92BF92C8
:102B0000CF92DF92EF92FF920F931F93CF93DF93B9
:102B10006C017B01EA01C901009709F04FDFF60162
:102B200080809180A280B3808CE692E047DF22E033
:102B3000B501A40182E592E060DFF701C080D18099
:102B4000E280F38089E692E039DF22E0B701A60156
:102B500082E592E052DFC880D980EA80FB8086E679
:102B600092E02CDF22E0B701A60182E592E045DF8A
:102B70000115110571F0C801DF91CF911F910F91DF
:102B8000FF90EF90DF90CF90BF90AF909F908F908D
:102B900015CF8AE0DF91CF911F910F91FF90EF90B9
:102BA000DF90CF90BF90AF909F908F9003CFCF9248
:102BB000DF92EF92FF926B017C0183E3C816D10490
:102BC000E104F10470F082E3C81AD108E108F108C9
:102BD00062E370E080E090E00E9441BE0E94E493D6
:102BE000ECCFC701B6010E9441BEFF90EF90DF908D
:102BF000CF900C94E493CF93DF93C0915F02D09178
:102C000060022097A9F061E01C161D060CF060E040
:102C10000E94858A80915F02909160021C161D06B9
:102C200014F4019701C001969093600280935F02B3
:102C3000DF91CF910895CF93DF93EB0191E001C035
:102C4000990F8A95EAF7892F0E949E55811114C029
:102C500080915D0290915E028C0F9D1F90935E02A9
:102C600080935D0260915F02709160026C0F7D1F26
:102C70007093600260935F02DF91CF910895CF93CC
:102C8000C82F84E0C89FF0011124E15EF94F208134
:102C9000318142815381FB01608171818281938105
:102CA0000E9472C50E9408C48C2FCF91C4CF90910E
:102CB000D2059817B1F00E9460628091D2058823F6
:102CC00039F084E391E00E94B3601092D20507C00E
:102CD00081E08093D20584E391E00E9424610C940A
:102CE000FE50089580E0E3DF8EEA95E00C94684E94
:102CF000DC01ED91FC910190F081E02D0994CF93DE
:102D0000C82F60E680EE91E10E94AAB9C11103C00C
:102D100060E870E002C06FE870E080EE91E1E8DF0B
:102D200080EE91E1CF910C94C6B9CF93C82F60E6A5
:102D300080EE91E10E94AAB9C11103C060EC70E07D
:102D400002C06FEC70E080EE91E1D2DF80EE91E1A5
:102D5000CF910C94C6B9E82FF0E0EE0FFF1FEF59AA
:102D6000FD4F808191810895E82FF0E0EE0FFF1F65
:102D7000EF59FD4F6081718180E090E00E9439C47D
:102D800020E030E048EC52E40E9472C520E030E0E0
:102D90004CE555E40E94A0C320E030E040E05FE352
:102DA0000E9425C30E940DC4862F0895CF93DF9300
:102DB00080EE91E10E9493B948E160E680EE91E1F6
:102DC0000E94A8B980EE91E10E94FFB8892B21F101
:102DD00080EE91E10E9407B9C82F80EE91E10E9438
:102DE00007B9D82F80EE91E10E9407B9C3FDEACF61
:102DF000682F8D2F8F700E94D7BBEC2FE0730E2EA3
:102E0000000CFF0B23E0F695E7952A95E1F7EF59C3
:102E1000FD4F91838083D6CFDF91CF910895EF92BC
:102E2000FF920F931F93CF93DF9360E680EE91E1C3
:102E30000E94AAB960E570E080EE91E159DFC1E639
:102E4000D2E07E01098110E0B801606880EE91E176
:102E50004FDF2296F701608180EE91E10E9457B921
:102E6000F2E0C936DF0769F780EE91E1DF91CF919B
:102E70001F910F91FF90EF900C94C6B90F931F9381
:102E8000CF93DF9360E680EE91E10E94AAB9C1E69C
:102E9000D2E08E01698180EE91E10E9457B92296BD
:102EA000F801608180EE91E10E9457B9F2E0C936E5
:102EB000DF0779F780EE91E1DF91CF911F910F91BC
:102EC0000C94C6B9E82FF0E0EE0FFF1FEF59FD4F4D
:102ED00071836083D3CF2F923F924F925F926F9214
:102EE0007F928F929F92AF92BF92CF92DF92EF929A
:102EF000FF920F931F93CF93DF93EC018A819B8105
:102F000000EC1DE0809FB001819F700D909F700DBF
:102F1000112480E090E00E9439C42AE037ED43E2BA
:102F20005CE30E9472C50E940DC42B013C018C81A0
:102F30009D81809FB001819F700D909F700D112425
:102F400080E090E00E9439C42AE037ED43E25CE380
:102F50000E9472C50E940DC44B015C018E819F814D
:102F6000809FB001819F700D909F700D112480E0B3
:102F700090E00E9439C42AE037ED43E25CE30E940E
:102F800072C50E940DC46B017C0181E6282E82E08F
:102F9000382E88819981809FB001819F700D909F0C
:102FA000700D112480E090E00E9439C42AE037EDD2
:102FB00043E25CE30E9472C50E940DC4F10171837B
:102FC00060835382428295828482D782C682DF9157
:102FD000CF911F910F91FF90EF90DF90CF90BF9016
:102FE000AF909F908F907F906F905F904F903F90A9
:102FF0002F9044CFCF93C82F60E080EE91E10E94E4
:10300000AAB96C2F80EE91E10E9457B980EE91E150
:10301000CF910C94C6B9E82F880FFF0BE753FE4FF2
:10302000808199DEBC0180E090E00E9439C420E0FC
:1030300030E040E05EE30E9472C529E032EF44E1F7
:103040005CE30C9472C5B2DE86E0D4DF811117C058
:1030500081E08093690253DE80E067DE80E084DEF9
:10306000882381F081E080DE882361F082E07CDECD
:10307000882341F083E078DE882321F007C08FEFBA
:103080009FEF089581E091E026DFC9DE80E090E0C7
:10309000089590916902992379F09B01613C7D40EC
:1030A00010F020EC3DE0E82FF0E0E753FE4FB901CF
:1030B000808108DF88E09ECF0895FF920F931F93D1
:1030C000CF93DF93F82E8A01D62FC72F20E030E070
:1030D00048EC52E4B8018D2F9C2F0E949CC387FDC1
:1030E00004C000E010E0D8ECC2E420E030E04CE5A1
:1030F00055E4B8018D2F9C2F0E9472C520E030E06E
:1031000048EC52E40E94A0C30E940DC48F2DDF91B1
:10311000CF911F910F91FF90BCCF809169028111D7
:103120007ECE0895CF92DF92EF92FF926A017B01EB
:1031300045DC22E0B701A60182E592E0FF90EF9026
:10314000DF90CF905ACC80916902882309F465C042
:1031500043DC83E992E032DC3FDC83E005DE682F6C
:1031600070E080E090E00E9439C4AB01BC018FE5C3
:1031700092E0D8DF80E04FDFAB01BC0180E992E054
:10318000D1DF8EE892E01ADC82E0EEDD682F70E09D
:1031900080E090E00E9439C4AB01BC018BE592E075
:1031A000C1DF81E038DFAB01BC018BE892E0BADF20
:1031B00089E892E003DC81E0D7DD682F70E080E0F1
:1031C00090E00E9439C4AB01BC0187E592E0AADF20
:1031D00082E021DFAB01BC0186E892E0A3DF84E856
:1031E00092E0ECDB80E0C0DD682F70E080E090E0F2
:1031F0000E9439C4AB01BC0183E592E093DF83E018
:103200000ADFAB01BC0181E892E08CDF8FE792E03E
:10321000D5DB6AE082E592E0B4C8089581548A3132
:1032200008F047C0E82FF0E04091BE025091BF0285
:103230006091C0027091C10204C076956795579560
:1032400047958A95D2F7842F817040FF34C0EC55A2
:10325000FD4F9081992341F1E091C902F091CA029A
:10326000E90FF11D908120ED290F2A3098F09E3250
:1032700011F491810CC09D3211F09B3271F4918157
:1032800020ED290F2A3030F09E3239F4928190538C
:103290009A3018F42E2F9F2F02C020E090E0209348
:1032A000C5029093C60208951092C6021092C502FC
:1032B000089580E008950895B1DF882341F081E00A
:1032C0002091C5023091C602232B09F480E00895B5
:1032D0000F931F93CF938091C5029091C6020097E0
:1032E00011F1FC018F01C1912C2F2F7DA9F0C53464
:1032F00011F0C536B9F7F801108260E070E08091F6
:10330000C5029091C6020E9422C6F801C083562FC2
:10331000472F382F292F0BC060E070E0CF911F910D
:103320000F910C9422C650E040E030E020E0652F81
:10333000742F832F922FCF911F910F910895809119
:10334000C5029091C602009731F04AE050E060E07B
:1033500070E00C9475C760E070E0CB0108951092A6
:103360007302E4E7F2E080E090E0A0E4B0E4808360
:103370009183A283B38380E090E0A4E3B2E48483EA
:103380009583A683B78310861186128613861486CA
:1033900015861686178680E090E0A0E0B1E4808B69
:1033A000918BA28BB38B40E050E060E571E4448BDD
:1033B000558B668B778B108E118E128E138E848FA9
:1033C000958FA68FB78F10926A0210926B0210929F
:1033D0006C0210926D021092720210926E021092A4
:1033E0006F02109270021092710208958F929F9254
:1033F000AF92BF92CF92DF92EF92FF921F93CF9343
:10340000DF93CDB7DEB728970FB6F894DEBF0FBEB7
:10341000CDBF90917202981709F4CAC0182F40913D
:10342000740250917502609176027091770280E18A
:10343000E4E3F1E0ACE4B5E001900D928A95E1F7A8
:103440008091370690913806A0913906B0913A06DE
:103450008D839E83AF83B887112309F44DC04093B9
:103460006E0250936F0260937002709371028091AC
:10347000780290917902A0917A02B0917B028983BF
:103480009A83AB83BC83CE0101960E943855C090CD
:103490006A02D0906B02E0906C02F0906D0220E026
:1034A00030E0A901C701B6010E949CC381117EC012
:1034B00080907C0290907D02A0907E02B0907F026E
:1034C0002AE037ED43E25CE3C501B4010E943EC54A
:1034D00018160CF06BC0A5019401C701B6010E943B
:1034E00025C360936A0270936B0280936C02909381
:1034F0006D02CE01059658C020E030E0A901609130
:103500006A0270916B0280916C0290916D020E9430
:103510009CC3882361F010926A0210926B02109291
:103520006C0210926D02CE0105960E943855C09033
:103530008002D0908102E0908202F090830220E02D
:1035400030E0A901C701B6010E949CC38823B1F0F5
:10355000A701960160914001709141018091420163
:10356000909143010E9424C36093400170934101F4
:1035700080934201909343010E94025110926E0287
:1035800010926F0210927002109271028091840268
:1035900090918502A0918602B091870289839A83D7
:1035A000AB83BC83CE0101960E9438551093720202
:1035B00028960FB6F894DEBF0FBECDBFDF91CF9136
:1035C0001F91FF90EF90DF90CF90BF90AF909F90B2
:1035D0008F900895CF93C0917302C05D88EB92E005
:1035E000EDD96C2F82E592E00E94C1116AE082E57C
:1035F00092E0CF910C94C111CF9383E50FDEC82FD9
:10360000811102C0CF91E6CF8091C5029091C60290
:10361000892B79F094DE97FD0BC091DE6F3F710529
:103620008105910509F02CF48ADEC1E0611101C029
:10363000C0E0C093730210927202CF910895AB0163
:10364000BC0122E082E592E0D8C9CF92DF92EF92EE
:10365000FF92CF93DF93C4E7D2E0C880D980EA809D
:10366000FB8086ED92E0AAD9C701B601E8DFCC88DD
:10367000DD88EE88FF8883ED92E0A0D9C701B6010E
:10368000DEDF20E030E040E752E46C817D818E8116
:103690009F810E9472C56B017C0180ED92E08ED902
:1036A000C701B601CCDFC884D984EA84FB8486E6EE
:1036B00092E084D9C701B601C2DF6AE082E592E0F8
:1036C000DF91CF91FF90EF90DF90CF900C94C111DC
:1036D0008091BE0285FD08C08091C002847421F4EF
:1036E0008091C10281FFB1CF83E5E6DD882349F0F7
:1036F000EFDD60937402709375028093760290936D
:10370000770286E4D9DD882379F0E2DD20E030E03D
:1037100040E752E40E94A0C360937802709379025C
:1037200080937A0290937B028AE5C6DD882349F074
:10373000CFDD60937C0270937D0280937E02909334
:103740007F0287E5B9DD882351F0C2DD60938802EE
:103750007093890280938A0290938B020895089552
:10376000CF92DF92EF92FF92CF93DF93C4E7D2E044
:10377000CC84DD84EE84FF8487EC92E01FD9C701FE
:10378000B6015DDFC88CD98CEA8CFB8C84EC92E0AE
:1037900015D9C701B60153DF20E030E040E752E41D
:1037A000688979898A899B890E9472C56B017C012D
:1037B00081EC92E003D9C701B60141DF6AE082E5FE
:1037C00092E0DF91CF91FF90EF90DF90CF900C943B
:1037D000C1118091BE0285FD05C08091C002867432
:1037E00009F441C083E51ADD882349F071DD609357
:1037F000800270938102809382029093830286E418
:103800000DDD882379F064DD20E030E040E752E40C
:103810000E94A0C360938402709385028093860205
:103820009093870282E5FADC882379F051DD20E06D
:1038300030E040E752E40E94A0C36093900270938E
:103840009102809392029093930287E5E7DC8823AC
:1038500059F03EDD60938C0270938D0280938E024E
:1038600090938F0208957CCF089579CD4F925F9207
:103870006F927F928F929F92AF92BF92CF92DF9280
:10388000EF92FF92CF93DF9383E5C8DCD82F882394
:10389000B9F08091C5029091C602892B11F4C1E064
:1038A00013C04DDD97FD0FC04ADD6F3F71058105E7
:1038B000910509F0A4F743DDC1E0611105C003C023
:1038C000C091D20501C0C0E0409034015090350154
:1038D00060903601709037018090380190903901E6
:1038E000A0903A01B0903B01C0903C01D0903D01C6
:1038F000E0903E01F0903F01DD2321F0C11102C0B4
:1039000080E0D5D98091BE029091BF02A091C00203
:10391000B091C10225E1B695A795979587952A950F
:10392000D1F780FF06C064E373E08EEA95E00E9461
:10393000704F8C2FBCD9CC2341F08091D2058111DE
:1039400004C04DD885E193E039D846D887E093E0AC
:1039500035D88091D2054ED820913401309135016F
:103960004091360150913701C301B2010E949CC3BE
:1039700081111CC0209138013091390140913A01E8
:1039800050913B01C501B4010E949CC381110EC03E
:1039900020913C0130913D0140913E0150913F0109
:1039A000C701B6010E949CC3882381F0DF91CF91AB
:1039B000FF90EF90DF90CF90BF90AF909F908F904F
:1039C0007F906F905F904F900C94E358DF91CF9170
:1039D000FF90EF90DF90CF90BF90AF909F908F902F
:1039E0007F906F905F904F900895CF93C82F41E0E4
:1039F00065EF72E00E947D358C2F0E942531C091C9
:103A0000D2058CEE92E00E94DE144C2F50E060E074
:103A100070E02AE030E082E592E00E94AB138FED87
:103A200092E00E94DE148091D205CF910C94FA149A
:103A3000CF93DF93D82FC62F3FDC8823B9F0809136
:103A4000C5029091C602892B11F481E016C077DC83
:103A500097FD12C074DC6F3F71058105910509F077
:103A6000A4F76DDC81E0611108C006C08D2FD6DBA4
:103A70008111EBCF8C2F01C080E0DF91CF910895B1
:103A80004F925F926F927F928F929F92AF92BF926E
:103A9000EF92FF920F931F93CF93DF93EC018B0173
:103AA0007A01FA012085318542855385FB016085C5
:103AB0007185828593850E9424C34B015C01F701C7
:103AC0002481358146815781F80164817581868121
:103AD00097810E9424C32B013C01F7012081318191
:103AE00042815381F80160817181828193810E94BA
:103AF00024C3688379838A839B834C825D826E8230
:103B00007F8288869986AA86BB86CE01DF91CF9177
:103B10001F910F91FF90EF90BF90AF909F908F906B
:103B20007F906F905F904F9008952F923F924F92A9
:103B30005F926F927F928F929F92AF92BF92CF923D
:103B4000DF92EF92FF920F931F93CF93DF9300D0FA
:103B500000D000D0CDB7DEB79E838D83C0907B0BA5
:103B6000D0907C0BF60180809180A280B38020E011
:103B700030E0A901C501B4010E9425C37B018C017D
:103B800020E030E040E251E40E949CC387FD05C084
:103B9000E982FA820B831C8306C019821A82F0E242
:103BA000FB8381E48C83F6014480558066807780B6
:103BB00020E030E0A901C301B2010E9425C31B012E
:103BC0006C0120E030E040E251E40E949CC387FD9C
:103BD00005C0522D432D3C2D2D2D04C050E040E05A
:103BE00030E221E489819A81AB81BC81ED81FE8143
:103BF00080839183A283B383852F942FA32FB22F29
:103C000084839583A683B78320E030E048E153E4C2
:103C1000C501B4010E9425C34B015C0120E030E0E6
:103C20004EE053E40E943EC518162CF089829A8219
:103C3000AB82BC8206C019821A82FEE0FB8383E459
:103C40008C8320E030E040E251E4B101C6010E94E3
:103C50009CC387FF06C0212C312C30E2C32E41E4E7
:103C6000D42E89819A81AB81BC81ED81FE818487CC
:103C70009587A687B787C101D601808B918BA28BD0
:103C8000B38B20E030E040E251E4B701C8010E946C
:103C90009CC387FF04C0E12CF12C00E211E420E07A
:103CA00030E04EE053E4B401C5010E943EC5181651
:103CB00034F4812C912C9EE0A92E23E4B22E97019E
:103CC000A801B401C5010E9425C320E030E040E016
:103CD0005FE30E9472C54B015C0120E030E048E1E7
:103CE00053E4C301B2010E9425C36B017C0120E0B3
:103CF00030E04EE053E40E943EC5181634F4C12C67
:103D0000D12C8EE0E82E83E4F82EED81FE81808EAA
:103D1000918EA28EB38EC48ED58EE68EF78E2696A9
:103D20000FB6F894DEBF0FBECDBFDF91CF911F91CC
:103D30000F91FF90EF90DF90CF90BF90AF909F904A
:103D40008F907F906F905F904F903F902F9008954D
:103D50003F924F925F926F927F928F929F92AF921B
:103D6000BF92CF92DF92EF92FF920F931F93CF9368
:103D7000DF93CDB7DEB7CE58D1090FB6F894DEBFCA
:103D80000FBECDBF0FB6F89480919F129091A012F4
:103D9000A091A112B091A2120FBE80939F029093A6
:103DA000A002A093A102B093A2028091D205882321
:103DB00029F060E08FE43CDE81115EC28091BE029A
:103DC0009091BF02A091C002B091C1022DE0B695C2
:103DD000A795979587952A95D1F780FF04C088EB22
:103DE0009CE00E94AF3487E00E94EE57811144C2EC
:103DF000CE0101966C01FE01B596C357DF4FF983E2
:103E0000E883CD58D040FC01382EFD2C1086118659
:103E100012861386148215821682178210821182EE
:103E2000128213823C96C357DF4F88819981CD5807
:103E3000D0408E179F0751F7C60177DE8091D205DB
:103E400025968FAF25978091BE029091BF02A091D9
:103E5000C002B091C10249E0B695A79597958795A4
:103E60004A95D1F780FF03C00E94721605C286E50D
:103E700023DA882311F063DA02C060E070E07EABE1
:103E80006DAB6530710528F084EA93E00E94DE1482
:103E9000F3C160E084E4CCDD24968FAF24978DA934
:103EA0009EA91816190694F48EE893E00E94DE1479
:103EB00024968FAD2497882321F084E893E00E9414
:103EC000DE146AE082E592E00E94C1110E94606205
:103ED00019A21AA21BA21CA21D8A1E8A1F8A188E52
:103EE00019861A861B861C860E946E5380E00E94EB
:103EF000571681E00E948B73882331F025968FAD91
:103F000025970E945716B8C160E085E491DD8111C4
:103F100002C013E001C011E023961CAE1DAE1EAE20
:103F20001FAE2397412C512C320143948DA99EA999
:103F3000892B81F085E793E00E94DE142AE030E0CF
:103F4000B301A20182E592E00E94AB1380E793E007
:103F50000E94DE14F60184819581A681B78140819B
:103F60005181628173814FAB58AF69AF7AAF8BAF2C
:103F70009CAFADAFBEAFEE24E39401E02DA9412F7D
:103F8000BE01655C7F4FCE01C7960E94E4744B0171
:103F90005C0123966CAF7DAF8EAF9FAF23979B01E3
:103FA000AC010E9417C6882331F025968FAD259766
:103FB0000E94571614C0F60180869186A286B386A9
:103FC000FCE0CF0ED11C8FEF481A580A680A780A15
:103FD00094E0491651046104710409F0A7CF2496B6
:103FE0008FAD2497811179C023966CAD7DAD8EADD8
:103FF0009FAD23979B01AC010E9417C681116DC034
:10400000AE01435F5F4FBE01675E7F4FCE018B5BAA
:104010009F4F36DDAE01435F5F4F632D7F2DCE0195
:104020008F5A9F4F2DDDAE014B5B5F4FBE016F5A24
:104030007F4FCE0185960E94B54BBE016B5D7F4FD1
:10404000CE01835A9F4F0E94044DA996CCACDDACA3
:10405000EEACFFACA99720E030E0A901C701B601A2
:104060000E949CC387FF24C0A1968CAD9DADAEADD0
:10407000BFADA197B058A1968CAF9DAFAEAFBFAF0B
:10408000A197A5968CAD9DADAEADBFADA597B0582F
:10409000A5968CAF9DAFAEAFBFAFA597F7FAF094E2
:1040A000F7F8F094A996CCAEDDAEEEAEFFAEA997D0
:1040B000BE01635A7F4FCE0187599F4F0E94CE4E5B
:1040C00084E2FE01E759FF4FAEEAB5E001900D92A0
:1040D0008A95E1F725961FAE259780E00E948B73A5
:1040E000882379F025968FAD25970E94571680E09A
:1040F00090E0A0ECBFE723968CAF9DAFAEAFBFAF13
:10410000239723966CAD7DAD8EAD9FAD23979B011C
:10411000AC010E9417C68111A6C08DA99EA91816D0
:10412000190634F461E573E08EEA95E00E94704F61
:1041300024968FAD249781118AC080E1E4E3F1E0F9
:10414000DE01959601900D928A95E1F781E08093CA
:10415000D205CE0185960E9424611092D205E0908E
:104160007B0BF0907C0BF7012081318142815381E0
:104170006FA978AD89AD9AAD0E9424C39B01AC01B3
:104180006091340170913501809136019091370131
:104190000E9424C32B013C012DEB37E346E855EB8D
:1041A0000E943EC587FD4AC02DEB37E346E855E344
:1041B000C301B2010E949CC318160CF43FC0F70162
:1041C00024813581468157816BAD7CAD8DAD9EAD2F
:1041D0000E9424C39B01AC016091380170913901A8
:1041E00080913A0190913B010E9424C36B017C01B4
:1041F0002DEB37E346E855EB0E943EC587FD1EC018
:104200002DEB37E346E855E3C701B6010E949CC396
:104210001816A4F023962CAD3DAD4EAD5FAD23979F
:1042200060913C0170913D0180913E0190913F0170
:104230000E9424C36DA77EA78FA798AB80E1FE01E3
:10424000B596A4E3B1E001900D928A95E1F724962A
:104250008FAD2497882321F025968FAD259701C037
:1042600081E08093D2050E9476538091D20581111E
:104270000E94FE500E94E358C257DF4F0FB6F894D9
:10428000DEBF0FBECDBFDF91CF911F910F91FF9089
:10429000EF90DF90CF90BF90AF909F908F907F90E6
:1042A0006F905F904F903F9008954F925F926F9202
:1042B0007F928F929F92AF92BF92CF92DF92EF92B6
:1042C000FF92CF93DF93CDB7DEB72C970FB6F8945C
:1042D000DEBF0FBECDBF83E00E94EE578111A5C0A7
:1042E0000E94FE50209128053091290540912A0511
:1042F00050912B0560E070E088E992E40E9424C3AD
:104300006B017C0120912C0530912D0540912E05EB
:1043100050912F0560E070E088E992E40E9424C388
:104320002B013C0180913C0190913D01A0913E0107
:10433000B0913F018093580590935905A0935A0579
:10434000B0935B05A0907B0BB0907C0BF5012081B6
:10435000318142815381C701B6010E9424C36B01A0
:104360007C0160934C0570934D0580934E059093AE
:104370004F05F5012481358146815781C301B20182
:104380000E9424C34B015C0160935005709351055A
:10439000809352059093530527E137EB41ED58EB9D
:1043A0000E943EC587FD36C027E030E048E153E477
:1043B000C501B4010E949CC3181664F127E137EBD4
:1043C00041ED58EBC701B6010E943EC587FD22C0F2
:1043D00027E030E048E153E4C701B6010E949CC3E6
:1043E0001816C4F019861A861B861C8688E0ECE431
:1043F000F5E0DE01119601900D928A95E1F7BE017C
:10440000675F7F4FCE0101960E94C25282E00E94F8
:1044100010570BC060E08BED93E00E94144A0E949D
:10442000EC1489EC93E00E94DE142C960FB6F894FD
:10443000DEBF0FBECDBFDF91CF91FF90EF90DF9039
:10444000CF90BF90AF909F908F907F906F905F9034
:104450004F9008958F929F92AF92BF92DF92EF920A
:10446000FF920F931F93CF93DF9300D000D0CDB76F
:10447000DEB787E00E949E55811111C08091BE0277
:104480009091BF02A091C002B091C1024EE0B695DA
:10449000A795979587954A95D1F780FDCBC00E9447
:1044A00060621092110180E00E9457160FB6F894D6
:1044B00080919F129091A012A091A112B091A2128E
:1044C0000FBE80939F029093A002A093A102B0938D
:1044D000A2020E946E5381E00E94F04F8091BE02C2
:1044E0009091BF02A091C002B091C10229E1B6959E
:1044F000A795979587952A95D1F7F82FF170DF2E1C
:1045000080FF20C081E00E949E55082F82E00E941B
:104510009E5511E0811101C010E001117FC0012FF3
:104520008091BE029091BF02A091C002B091C102E1
:1045300037E1B695A795979587953A95D1F780FD80
:104540006CC002C000E0ECCF011172C01091C1023A
:104550001170011367C0D11269C001E011E0DD24C0
:10456000D39482E50E940E19882321F18091C5021F
:104570009091C6020097F1F0FC017F01B1902B2DC4
:104580002F7D99F025E4B21619F025E6B212F5CF89
:10459000F701108260E070E08091C5029091C60240
:1045A0000E9422C6F701B08209C060E070E00E945C
:1045B00022C604C060E070E080E490E44B015C013E
:1045C00089829A82AB82BC8220E030E0A901C501D9
:1045D000B4010E949CC3882359F0111104C0011139
:1045E00002C0DD2089F060E0CE0101960E940653F2
:1045F000112319F080E00E941057002319F081E088
:104600000E941057D11051DE0E94FE500E94C14FEF
:104610000E9476530E94E3580DC0102F11119BCFBA
:1046200001E094CF812F102F082F9BCF012F99CF1E
:1046300010E097CF0F900F900F900F90DF91CF91D8
:104640001F910F91FF90EF90DF90BF90AF909F90E0
:104650008F900895CF93C82F0E947D358C2FCF91D6
:104660000C9425310E9492186AE082E592E00C9445
:10467000C111CF93DF9341E069EF74E0EBDFCBE052
:10468000D6E0688179818A819B810E9439C4AB011F
:10469000BC0180EF94E00E9492186C817D818E8134
:1046A0009F810E9439C4AB01BC0189E692E00E945F
:1046B0009218688579858A859B850E9439C4AB01EB
:1046C000BC0186E692E00E9492186C857D858E85FD
:1046D0009F850E9439C4AB01BC0183E692E0DF9163
:1046E000CF91C0CF0F931F93CF938091BE0284FDD3
:1046F0000DC08091C002887849F48091C102837016
:1047000029F481E0CF911F910F91B3CF0E94DD3545
:1047100087FD14C00DEC11E0C0E0F80181918F011C
:104720000E945C19882339F00E946819AB01BC0112
:104730008C2F0E94D170CF5FC43079F7CF911F9139
:104740000F910895CF93DF9341E068ED74E082DF2D
:10475000CBE0D6E04CA15DA16EA17FA18FEC94E0EF
:104760000E94921848A559A56AA57BA589E692E002
:104770000E9492184CA55DA56EA57FA586E692E0E5
:104780000E94921848A959A96AA97BA983E692E0D8
:10479000DF91CF9167CF0F931F93CF938091BE028C
:1047A00084FD0DC08091C002887849F48091C102D7
:1047B000837029F481E0CF911F910F91C3CF0E94A4
:1047C000DD3587FD14C00DEC11E0C0E0F8018191EA
:1047D0008F010E945C19882339F00E946819AB018F
:1047E000BC018C2F0E94E570CF5FC43079F7CF9168
:1047F0001F910F910895CF93DF9341E065E874E036
:1048000029DFCBE0D6E04CA95DA96EA97FA98CE792
:1048100094E00E94921848AD59AD6AAD7BAD89E72E
:1048200094E00E9492184CAD5DAD6EAD7FAD88E70F
:1048300092E0DF91CF9116CF8091BF0287FD05C036
:104840008091C0028E7009F445C083E50E945C1916
:10485000882391F00E94681960933F067093400688
:1048600080934106909342066093470670934806F2
:104870008093490690934A0680E50E945C1988233C
:1048800051F00E94681960933F0670934006809330
:1048900041069093420682E50E945C19882351F0FC
:1048A0000E946819609343067093440680934506FE
:1048B0009093460684E50E945C19882369F00E9463
:1048C0006819609347067093480680934906909351
:1048D0004A06089581E08FCF0895CF93DF9341E09A
:1048E00068EF73E0B7DE60911B0670911C06809143
:1048F0001D0690911E060E9439C4AB01BC018FEECB
:1049000093E00E94921840914B0650914C066091A2
:104910004D0670914E068CEE93E00E9492184091E5
:104920004F0650915006609151067091520688E7EB
:1049300092E00E949218CBEDD5E0488159816A81BE
:104940007B818CE692E00E9492184C815D816E81A1
:104950007F8189E692E00E949218488559856A8590
:104960007B8586E692E00E9492184C855D856E8577
:104970007F8583E692E0DF91CF9174CE8091BE0275
:10498000827151F48091C0028C7831F48091C1021F
:10499000837011F481E0A1CF82E40E945C19882326
:1049A000C1F08091C5029091C602009739F04AE0AB
:1049B00050E060E070E00E94A0C803C060E070E0DA
:1049C000CB0160931B0670931C0680931D06909389
:1049D0001E0683E50E945C19882351F00E94681925
:1049E00060934B0670934C0680934D0690934E0651
:1049F00084E50E945C19882351F00E946819609335
:104A00004F0670935006809351069093520688E5A6
:104A10000E945C19882339F00E946819AB01BC011F
:104A200080E00E94F17089E50E945C19882339F0CA
:104A30000E946819AB01BC0181E00E94F1708AE517
:104A40000E945C19882339F00E946819AB01BC01EF
:104A500082E00E94F17085E40E945C19882339F09D
:104A60000E946819AB01BC0183E00C94F1700895B9
:104A7000CF93811115C040E06EE275E00E947D3554
:104A80008091CB02811104C081E295E00E94DE1486
:104A90006AE082E592E00E94C11180E00E94253127
:104AA000C091CB0288E195E00E94DE144C2F50E0CB
:104AB00060E070E02AE030E082E592E00E94AB1313
:104AC0004091D7055091D8056091D9057091DA05CC
:104AD00085E195E0CF91C6CDCF92DF92EF92FF9224
:104AE000CF93DF938091BE0283FD05C08091C00209
:104AF0008C7009F47DC00E94DD35C82F87FD96C0FB
:104B0000D091CB0284E40E945C19882309F455C03B
:104B10000E9468196B017C0120E030E0A9010E942D
:104B20009CC3882309F459C084E0C802F001112411
:104B3000E952FA4FC082D182E282F38220E030E073
:104B4000A901C701B6010E943EC51816D4F420E0A1
:104B500030E040E05FE3C701B6010E9472C59B01EF
:104B6000AC010E9472C52BED3FE049E450E40E9485
:104B700072C560934D0170934E0180934F019093E5
:104B8000500120E030E0A9016091D7057091D8056F
:104B90008091D9059091DA050E949CC381110CC0C7
:104BA00080E090E0A0EEBFE38093D7059093D80516
:104BB000A093D905B093DA05D1E083E50E945C1992
:104BC000C82F882351F18091C5029091C602892B8C
:104BD00059F10E949F1997FF13C0C0E0C093CB0208
:104BE000DF91CF91FF90EF90DF90CF900C944E60CB
:104BF00081E0DF91CF91FF90EF90DF90CF9038CFA1
:104C00000E949F196F3F71058105910509F034F7E6
:104C10000E949F19611108C0E0CF83E50E940E1920
:104C2000811102C0CD2FDACFC1E0D8CFDF91CF9173
:104C3000FF90EF90DF90CF900895CF93DF9382E4C1
:104C40000E940E19882341F080912E0190912F012E
:104C500090930A018093090182E50E940E1988232E
:104C600041F08091090190910A0190932F01809366
:104C70002E0183E50E940E19882331F08091C50230
:104C80009091C602009751F58091BE029091BF02AB
:104C9000A091C002B091C102892B8A2B8B2B49F5C0
:104CA000C0912E01D0912F0180E495E00E94DE1486
:104CB000AE01DD0F660B770B2AE030E082E592E073
:104CC0000E94AB1365E282E592E00E94C1116AE0A6
:104CD00082E592E0DF91CF910C94C1114AE050E05F
:104CE00060E070E00E9475C770932F0160932E0101
:104CF000CBCFDF91CF9108950F931F93CF93DF9385
:104D00000E94DD35C82F87FD6DC083E50E940E1916
:104D10000C2E000CDD0B8823A1F18091C50290912F
:104D2000C602009771F14AE050E060E070E00E9436
:104D300075C7FE01EE0FFF1FEB5AFE4F71836083B4
:104D4000CC0FDD1FCC0FDD1F8E010F5A1E4F072E1B
:104D5000000C880B990B0E943BC42AE037ED43E21C
:104D60005CE30E9472C5CD52DA4F288139814A81B5
:104D70005B810E9472C5F801608371838283938393
:104D800031C00E94EC1465E482E592E00E94C111FA
:104D9000BE01605D7F4F82E592E00E94C111CC0FA1
:104DA000DD1FCB5ADE4F0990D881C02D84E495E0F9
:104DB0000E94DE14AE01DD0F660B770B2AE030E0B7
:104DC00082E592E00E94AB1365E282E592E00E94E8
:104DD000C1116AE082E592E0DF91CF911F910F91BE
:104DE0000C94C111DF91CF911F910F910895CF9233
:104DF000DF92EF92FF92CF93DF93C82F41E06EE5F1
:104E000075E00E947D358C2F0E942531C9E4DDE0DC
:104E1000CB84DC84ED84FE8485E595E00E94DE147D
:104E2000C701B6010E941F1B2CEA35EC47E25EE386
:104E30006F85788989899A890E94A0C36B017C015A
:104E400082E595E00E94DE14C701B6010E941F1B97
:104E50002CEA35EC47E25EE36B897C898D899E897B
:104E60000E9472C56B017C018FE495E00E94DE1404
:104E7000C701B6010E941F1BCF88D88CE98CFA8C21
:104E80008FE692E00E94DE14C701B6010E941F1B4C
:104E9000C091200DD091210D8CE495E00E94DE148C
:104EA000AE01DD0F660B770B2AE030E082E592E081
:104EB0000E94AB136AE082E592E0DF91CF91FF9010
:104EC000EF90DF90CF900C94C1118091BE028C7056
:104ED00029F48091BF02897809F480C080E50E949E
:104EE0005C19882351F00E9468196093540D7093E7
:104EF000550D8093560D9093570D89E40E945C19CF
:104F0000882381F00E9468192CEA35EC47E25EE3C1
:104F10000E9472C56093580D7093590D80935A0D7D
:104F200090935B0D84E40E945C19882381F00E94B9
:104F300068192CEA35EC47E25EE30E94A0C3609357
:104F40005C0D70935D0D80935E0D90935F0D83E417
:104F50000E945C19882351F00E9468196093600DCB
:104F60007093610D8093620D9093630D8CE40E94A9
:104F70005C198823A1F08091C5029091C602009728
:104F800039F04AE050E060E070E00E9475C703C06D
:104F900060E070E0CB017093210D6093200D809153
:104FA000200D9091210DC39734F082E390E090930F
:104FB000210D8093200D8091200D9091210D97FF60
:104FC00004C01092210D1092200D10921B0D109212
:104FD0001C0D10921D0D10921E0D089581E007CF3B
:104FE000CF93DF9383E50E940E19D82F882361F0B9
:104FF0000E949F197093700160936F0121E0672BED
:1050000009F020E02093220D80E50E940E19C82FA0
:10501000882301F180916F0190917001892BB9F083
:105020008091C5029091C602892B89F00E949F1938
:1050300097FD0CC00E949F196F3F71058105910576
:1050400009F02CF40E949F19611101C0C0E0C093C7
:10505000220D2BC0D11129C00E94EC1485E895E0E7
:105060000E94DE148091220D811103C08EE795E02D
:1050700002C082E895E00E94DE14C0916F01D091D9
:1050800070018DE695E00E94DE14AE01DD0F660B27
:10509000770B2AE030E082E592E00E94AB1389E6CC
:1050A00095E0DF91CF910C94DE14DF91CF910895BC
:1050B000CF92DF92EF92FF92CF93DF93C82F41E020
:1050C00067EA75E00E947D358C2F0E942531CBE286
:1050D000DDE0CB84DC84ED84FE848EE995E00E94E3
:1050E000DE1422E0B701A60182E592E00E94FD14E1
:1050F0002CEA35EC47E25EE36F85788989899A89E5
:105100000E94A0C36B017C018BE995E00E94DE1434
:1051100022E0B701A60182E592E00E94FD142CEA8C
:1051200035EC47E25EE36B897C898D899E890E941C
:1051300072C56B017C0188E995E00E94DE1422E0D3
:10514000B701A60182E592E00E94FD146AE082E5C3
:1051500092E0DF91CF91FF90EF90DF90CF900C9491
:10516000C1118091BE0283FD04C08091BF0281788D
:10517000D1F180E50E940E19882351F00E94681930
:105180006093360D7093370D8093380D9093390DE1
:1051900089E40E940E19882381F00E9468192CEA84
:1051A00035EC47E25EE30E9472C560933A0D70935E
:1051B0003B0D80933C0D90933D0D84E40E940E19AD
:1051C000882399F00E9468192CEA35EC47E25EE3E7
:1051D0000E94A0C360933E0D70933F0D8093400DDD
:1051E0009093410D089581E063CF0895CF92DF92AF
:1051F000EF92FF92CF93DF93C82F41E067EB75E00A
:105200000E947D358C2F0E942531CBE0D6E0CC88E2
:10521000DD88EE88FF888FEA95E00E94DE14C701E2
:10522000B6010E941F1BC88CD98CEA8CFB8C89E6C6
:1052300092E00E94DE14C701B6010E941F1BCC8CB5
:10524000DD8CEE8CFF8C86E692E00E94DE14C701B6
:10525000B6010E941F1BC8A0D9A0EAA0FBA083E64C
:1052600092E00E94DE14C701B6010E941F1B6AE093
:1052700082E592E0DF91CF91FF90EF90DF90CF90A9
:105280000C94C1114F925F926F927F92AF92BF9236
:10529000CF92DF92EF92FF920F931F93CF930E94D2
:1052A000DD3587FDB1C09091BE0294FD04C09091A0
:1052B000C00297FF08C081EDA82E81E0B82E0BE058
:1052C00016E0C0E014C09091C1029370A1F7682F5E
:1052D00081E0CF911F910F91FF90EF90DF90CF90E1
:1052E000BF90AF907F906F905F904F907FCFF50110
:1052F00081915F010E940E19882379F08091C50287
:105300009091C602892B49F0C330D9F00E946819E8
:10531000F801648B758B868B978BCF5F0C5F1F4F6B
:10532000C43029F7CF911F910F91FF90EF90DF903C
:10533000CF90BF90AF907F906F905F904F900C9404
:10534000AD700E9468196B017C0120E030E040EAFA
:1053500051E40E949CC387FF4EC0A7019601609153
:105360002B0670912C0680912D0690912E060E949E
:10537000A0C32B013C019B01AC016091E70570913A
:10538000E8058091E9059091EA050E9472C5609355
:10539000E7057093E8058093E9059093EA05A3017A
:1053A000920160913B0670913C0680913D06909180
:1053B0003E060E9472C560933B0670933C06809344
:1053C0003D0690933E066091070670910806809115
:1053D000090690910A060E9439C4A30192010E9415
:1053E00072C50E940DC460930706709308068093EF
:1053F000090690930A06C0922B06D0922C06E092E2
:105400002D06F0922E0689CFCF911F910F91FF901C
:10541000EF90DF90CF90BF90AF907F906F905F90B4
:105420004F90089510920001089541E060E070E00F
:1054300081E392E00C94CB110C949851FF920F935E
:105440001F93CF93DF9383E50E940E198823B9F051
:105450008091C5029091C602892B89F00E949F1904
:1054600097FD4EC00E949F196F3F71058105910500
:1054700011F00CF043C00E949F1960935C020E94DF
:10548000EC148AEF95E00E94DE1480915C02882380
:1054900039F100EF15E0C0E0D0E020E080915C023F
:1054A00090E00C2E02C0959587950A94E2F780FF54
:1054B00010C0FF24F394F20E222329F06CE282E55F
:1054C00092E00E94C111F801859194910E94DE142E
:1054D0002F2D21960E5F1F4FC530D105F9F604C060
:1054E0008CEE95E00E94DE146AE082E592E0DF91A6
:1054F000CF911F910F91FF900C94C1116FEFBDCF11
:1055000060E0BBCF81E00C94E34F80E00C94E34F6C
:10551000CF93681799F0E62FF0E0A82FB0E0A752DC
:10552000BE4FE752FE4F2C919081291307C0C1E076
:10553000062E01C0CC0F0A94EAF701C0C0E06F5FED
:10554000643010F4E5DF01C080E08C2BCF9108952A
:10555000CF93C82F60E08C2FDBDF811104C0CF5FB9
:10556000C43010F4F7CF81E0CF9108958091BE024E
:1055700084FD0BC08091C00287FD07C09091C102DD
:10558000937081E019F480E0089581E008950F930D
:105590001F93CF93DF9385E40E940E19882311F0A7
:1055A000E8E001C0E0E00091BE021091BF0220914E
:1055B000C0023091C102832F8170C82F80E0D82FA4
:1055C000CE01880F991FB901A801F9E17695679579
:1055D00057954795FA95D1F7417050E0440F551F04
:1055E000440F551F842B952BB7E1369527951795BA
:1055F0000795BA95D1F70170802B8E2BDF91CF9153
:105600001F910F910895CF93C62F682F82E592E0E6
:105610000E94C1116C2F82E592E0CF910C94C111D0
:10562000AF92BF92DF92EF92FF920F931F93CF93AF
:10563000DF93D090010CCD2DC095C82309F45FC035
:1056400095EDE92E91E0F92E00E010E0D0E0AC2ECF
:10565000B12CC501002E02C0959587950A94E2F7FA
:1056600080FF06C0802F0E947E80F7018081D82BAA
:105670000F5F1F4FFFEFEF1AFF0A0330110549F7C5
:10568000C3FD0E94C380CD29C095CD23C1F168E23E
:1056900082E592E00E94C1118DEDE82E81E0F82EA6
:1056A00000E010E0D0E0CE01002E02C09595879575
:1056B0000A94E2F780FF04C060E2F7018081A3DF73
:1056C0000F5F1F4FFFEFEF1AFF0A0330110559F765
:1056D000C3FF08C065E482E592E00E94C11160E268
:1056E00080E391DF81E096E0DF91CF911F910F91F0
:1056F000FF90EF90DF90BF90AF900C94DE14DF919D
:10570000CF911F910F91FF90EF90DF90BF90AF90DE
:1057100008952CDF882309F44EC080E019DF882328
:1057200019F035DF7DCF089585E40E940E19882396
:1057300099F08091C5029091C602009759F04AE015
:1057400050E060E070E00E9475C7611105C00E94E2
:10575000C38002C00E94D4808091BE029091BF029B
:10576000A091C002B091C10237E1B695A795979577
:1057700087953A95D1F780FF03C080E00E947E8034
:105780008091C10280FF03C081E00E947E808091F1
:10579000BE029091BF02A091C002B091C10229E166
:1057A000B695A795979587952A95D1F780FF0AC05A
:1057B00082E00C947E8060E08EE296E00E94144AC3
:1057C0000C94D6800895EF92FF920F931F93CF937E
:1057D000DF93C82F83E196E00E94DE148DEDE82E62
:1057E00081E0F82E00E010E0D0E0CE01002E02C0F3
:1057F000959587950A94E2F780FF04C0F7016081D0
:1058000080E201DF0F5F1F4FFFEFEF1AFF0A033047
:10581000110559F7C3FF0FC060E282E592E00E94D4
:10582000C11165E482E592E00E94C11160E382E566
:1058300092E00E94C11180E196E0DF91CF911F912B
:105840000F91FF90EF900C94DE147F928F929F92B5
:10585000AF92BF92CF92DF92EF92FF920F931F937E
:10586000CF93DF93C091010CC82309F46AC0D82FED
:1058700095EDE92E91E0F92E470100E010E0C82EE9
:10588000D12CAA24A394B12CC601002E02C0959558
:1058900087950A94E2F780FF10C0802F0E949780BE
:1058A000882359F0C501002E01C0880F0A94EAF739
:1058B000F4019081892B8095C8230F5F1F4FFFEF64
:1058C0008F1A9F0A03301105F9F6D3FF04C00E9416
:1058D000CA808111C77F8DEDC82E81E0D82E00E0EF
:1058E00010E0AC2EB12CC501002E02C09595879515
:1058F0000A94E2F780FF0CC0F601608182E592E035
:105900000E94C1119091010CF701808189235BDF16
:105910000F5F1F4FFFEFCF1ADF0A8FEFE81AF80A69
:105920000330110501F7C3FF0CC065E482E592E086
:105930000E94C11160E382E592E00E94C11180E003
:1059400042DFDF91CF911F910F91FF90EF90DF9099
:10595000CF90BF90AF909F908F907F9008950F93BE
:105960001F93CF9383E50E940E19882339F080910D
:10597000C5029091C602009709F04AC0F7DD88235E
:1059800009F441C00E94606280E0E2DD882319F0E2
:10599000FEDD5BDF7BC085E40E940E1981110E9451
:1059A000D5808091BE029091BF02A091C002B091BB
:1059B000C10237E1B695A795979587953A95D1F7A6
:1059C00080FF03C080E00E9497808091C10280FF29
:1059D00003C081E00E9497808091BE029091BF0237
:1059E000A091C002B091C10229E1B695A795979503
:1059F00087952A95D1F780FF49C082E0CF911F910A
:105A00000F910C949780CF911F910F910C94386255
:105A10000FB6F89440919F125091A0126091A1127C
:105A20007091A2120FBE40939F025093A002609308
:105A3000A1027093A202FC018F01C1912C2F2F7D36
:105A400089F0C53411F0C536B9F7F801108260E06D
:105A500070E08091C5029091C6020E9422C6F801B2
:105A6000C08304C060E070E00E9422C620E030E005
:105A70004AE754E40E9472C50E940DC460930C0171
:105A800070930D0180930E0190930F01CF911F91A0
:105A90000F9108952F923F924F925F926F927F9253
:105AA0008F929F92AF92BF92CF92DF92EF92FF922E
:105AB0000F931F93CF93DF93CDB7DEB7A0970FB6A9
:105AC000F894DEBF0FBECDBFF82E41E066E576E06C
:105AD0000E947D358F2DB9D300E111E0D8018C9162
