:100000000C94F60F0C942F100C942F100C942F10AE
:100010000C942F100C942F100C942F100C942F1064
:100020000C942F100C942F100C9406BB0C9483BBD3
:100030000C942F100C942F100C942F100C942F1044
:100040000C942F100C94217F0C942F100C942F10D3
:100050000C942F100C942F100C94538D0C9465BAA3
:100060000C942F100C942F100C942F100C942F1014
:100070000C942F100C942F100C942F100C942F1004
:100080000C942F100C942F100C942F100C942F10F4
:100090000C9413B70C942F104E414E494E495459AD
:1000A000494E46CDCCCC3D0AD7233C17B7D1387743
:1000B000CC2B329595E6241FB14F0A000020410059
:1000C00000C84200401C4620BCBE4CCA1B0E5AAEA3
:1000D000C59D744572726F722077726974696E671C
:1000E00020746F20454550524F4D210A0020436F28
:1000F0006D70696C65643A20446563203236203245
:100100003032310A00204C61737420557064617480
:1001100065643A20323032312D30392D3033207C35
:1001200020417574686F723A20284A65726F6D6558
:10013000205061756C290A004D61726C696E203225
:100140002E302E392E330A0020536F667477617279
:10015000652052657365740A002057617463686492
:100160006F672052657365740A002042726F776E64
:10017000206F75742052657365740A002045787489
:1001800065726E616C2052657365740A00506F77FA
:10019000657255700A0073746172740A0050726956
:1001A0006E7465722068616C7465642E206B696C76
:1001B0006C28292063616C6C6564210A0021212070
:1001C0004B494C4C206361757365642062792074DF
:1001D0006F6F206D75636820696E61637469766501
:1001E0002074696D65202D2063757272656E7420B0
:1001F000636F6D6D616E643A20004D3130303100B7
:100200004732385859004D31313220536875746483
:100210006F776E004F4646004F4E004572726F7208
:100220003A006563686F3A0020453A00205A3A0068
:1002300020593A0020583A00204500205A00205901
:1002400000205800204300204200583A002054006B
:100250002050000029002028002900202800290023
:1002600020280029002028005374657070657220D2
:1002700063757272656E742076616C756573206942
:100280006E20252028416D7073293A0A0020204DE8
:1002900032303920530020460020570020204D32B4
:1002A000303820530020460020570020204D3230A7
:1002B00037205300203B204C6576656C696E6720C3
:1002C0000020204D3432302053004175746F20429D
:1002D0006564204C6576656C696E670042656420D4
:1002E0004C6576656C696E6720004661696C656473
:1002F00020746F20656E61626C6520426564204CDD
:100300006576656C696E670A00426564204C6576A7
:10031000656C20436F7272656374696F6E204D6106
:10032000747269783A000A0A426564204C65766501
:100330006C20436F7272656374696F6E204D6174D7
:100340007269783A002F332E0A0050726F62696E1C
:100350006720706F696E74200020284452595255EE
:100360004E2900473239204175746F204265642060
:100370004C6576656C696E67003F28562965726228
:100380006F7365206C6576656C20696D706C617546
:100390007369626C652028302D34292E0A005A209A
:1003A00050726F62652050617374204265640A0068
:1003B0005A2050726F6265205061737420426564E8
:1003C0000020530020204D32303520420041647619
:1003D000616E6365642028423C6D696E5F7365677A
:1003E0006D656E745F74696D655F75733E20533C17
:1003F0006D696E5F66656564726174653E20543C2C
:100400006D696E5F74726176656C5F666565647256
:100410006174653E20583C6D61785F785F6A6572F3
:100420006B3E20593C6D61785F795F6A65726B3E07
:10043000205A3C6D61785F7A5F6A65726B3E204539
:100440003C6D61785F655F6A65726B3E2900205282
:100450000020204D323034205000416363656C65CC
:10046000726174696F6E2028756E6974732F7332B0
:10047000292028503C7072696E742D616363656C2D
:100480003E20523C726574726163742D61636365D2
:100490006C3E20543C74726176656C2D61636365BB
:1004A0006C3E290020204D3230332058004D6178B9
:1004B000206665656472617465732028756E697461
:1004C000732F73290020204D3230312058004D61A8
:1004D0007820416363656C65726174696F6E202872
:1004E000756E6974732F7332290020440020204DEB
:1004F000323030205300202844697361626C656497
:10050000293A0046696C616D656E74207365747478
:10051000696E67730046523A0020466C6F773A2046
:1005200000204C0020440020490020204D33303171
:10053000205000486F74656E642050494400432980
:100540000A0061626C656420286D696E2074656DB7
:1005500070200064697300656E00436F6C642065F1
:1005600078747275646573206172652000204400A0
:1005700020490020204D3330342050004265642053
:100580005049440020204D39322058005374657082
:10059000732070657220756E6974004543484F0082
:1005A000494E464F004552524F5253004452595201
:1005B000554E00434F4D4D554E49434154494F4EC2
:1005C000006F6666009B05A005A505AC05B3054454
:1005D000454255473A00616C736F20656E61626CED
:1005E0006564290A002E0A00206E6F742064697306
:1005F00061626C65642E205368617265642077695E
:100600007468004E6F204D6F76652E0020204D617E
:10061000783A200020204D696E3A20002000203BCF
:10062000200020204D323131205300536F6674205A
:10063000656E6473746F7073005072696E74726269
:100640006F742053696D706C65204D6574616C200A
:100650004F46462E00454550524F4D204F4B0A0005
:1006600020204D393030204B004C696E656172207E
:10067000416476616E636500416476616E636520F6
:100680004B3D002E0A002028302D313029002076E5
:10069000616C7565206F7574206F662072616E677E
:1006A00065004175746F2D52657472616374202802
:1006B000533C656E61626C653E29005265636F76DE
:1006C00065722028533C6C656E6774683E20463C1A
:1006D00066656564726174653E2900526574726175
:1006E00063742028533C6C656E6774683E20463CFA
:1006F00066656564726174653E205A3C6C69667417
:100700003E2900627573793A2070617573656420C3
:10071000666F7220696E7075740A00627573793A3B
:100720002070617573656420666F722075736572E1
:100730000A00627573793A2070726F63657373692A
:100740006E670A0020496E76616C69642065787472
:100750007275646572200020286D6D29003B2000B1
:10076000546F6F206661722066726F6D20726566CD
:100770006572656E636520706F696E740A00202073
:100780004D323036205800486F6D65206F666673B5
:10079000657400FF01FF0000000000001843000026
:1007A00000004F666673657473204170706C6965F4
:1007B00064004D3131332053004361703A00434FA0
:1007C0004E4649475F4558504F5254004D4541549D
:1007D0005041434B00434F4F4C45525F54454D50A1
:1007E00045524154555245004348414D4245525FA0
:1007F00054454D504552415455524500424142598D
:100800005354455050494E470041524353004D4FB9
:1008100054494F4E5F4D4F44455300544845524D47
:10082000414C5F50524F54454354494F4E00455838
:1008300054454E4445445F4D3230004C4F4E475F67
:1008400046494C454E414D45004155544F52455047
:100850004F52545F53445F535441545553005344D3
:100860005F57524954450052455045415400534446
:10087000434152440050524F4D50545F53555050D5
:100880004F525400484F53545F414354494F4E5FB9
:10089000434F4D4D414E445300454D455247454E03
:1008A00043595F50415253455200434153455F4CB9
:1008B000494748545F4252494748544E45535300B4
:1008C000544F47474C455F4C494748545300534F9A
:1008D0004654574152455F504F5745520042554983
:1008E0004C445F50455243454E54004C4556454C90
:1008F000494E475F44415441005A5F50524F424570
:100900000052554E4F5554004155544F4C45564595
:100910004C005052494E545F4A4F420050524F478C
:1009200052455353004155544F5245504F52545F16
:1009300054454D50004155544F5245504F52545F0D
:10094000504F5300564F4C554D4554524943004566
:100950004550524F4D0042494E4152595F46494C15
:10096000455F5452414E534645520053455249410A
:100970004C5F584F4E5F584F4646004649524D57C0
:100980004152455F4E414D453A4D61726C696E2052
:10099000322E302E392E3320284465632032362003
:1009A000323032312032303A34383A353729205318
:1009B0004F555243455F434F44455F55524C3A674C
:1009C00069746875622E636F6D2F4D61726C696E0C
:1009D0004669726D776172652F4D61726C696E2028
:1009E00050524F544F434F4C5F56455253494F4E10
:1009F0003A312E30204D414348494E455F545950BD
:100A0000453A5072696E7472626F742053696D70EA
:100A10006C65204D6574616C2045585452554445B1
:100A2000525F434F554E543A3120555549443A662A
:100A3000666164356563382D313933332D34316463
:100A4000362D613234312D6639303266663431628A
:100A50003235360A002F2F00536C6565702E2E2E0E
:100A60000050726F6265204F6666736574205A008D
:100A700050726F6265204F6666736574205A00225B
:100A80000A00556E6B6E6F776E20636F6D6D616ED1
:100A9000643A202200205A3A200020593A2000428D
:100AA000656420583A2000203B0020204D38353125
:100AB0002058005A2D50726F6265204F666673652C
:100AC0007400290A0020746F20003F5A206F75744B
:100AD000206F662072616E6765202800290A002059
:100AE000746F20003F59206F7574206F662072610B
:100AF0006E676520282D00290A0020746F20003FB2
:100B000058206F7574206F662072616E67652028AB
:100B10002D00446F6E6520736176696E672066698B
:100B20006C652E0A005072696E7465722073746F62
:100B3000707065642064756520746F206572726FD3
:100B400072732E2046697820746865206572726F12
:100B50007220616E6420757365204D3939392074B7
:100B60006F20726573746172742E202854656D70E5
:100B7000657261747572652069732072657365743E
:100B80002E2053657420697420616674657220722A
:100B9000657374617274696E67290A004E6F204331
:100BA0006865636B73756D2077697468206C696E16
:100BB00065206E756D6265722C204C617374204CDB
:100BC000696E653A20004E6F20436865636B7375EC
:100BD0006D2077697468206C696E65206E756D6232
:100BE00065722C204C617374204C696E653A20004C
:100BF000636865636B73756D206D69736D61746394
:100C0000682C204C617374204C696E653A20004C4E
:100C1000696E65204E756D626572206973206E6F16
:100C200074204C617374204C696E65204E756D6242
:100C300065722B312C204C617374204C696E653ABF
:100C400020004D3131300053657269616C2073743E
:100C500061747573206D69736D617463680A0077E0
:100C60006169740A006F6B0A00526573656E643ABD
:100C700020006F6B005344207265616420657272BE
:100C80006F720A004D3239004732380053544F50CA
:100C90005045442E20004D383400446F6E6520705E
:100CA00072696E74696E672066696C650A004D37FB
:100CB00037004D3331004E6F206D656469610A0065
:100CC000456E642066696C65206C6973740A004225
:100CD0006567696E2066696C65206C6973740A00CB
:100CE00043757272656E742066696C653A200050B7
:100CF00072696E742074696D653A2000256973000D
:100D000025696D20256973002569682025696D2096
:100D100025697300256964202569682025696D208F
:100D20002569730025697920256964202569682073
:100D300025696D20256973006F6B0042656420434F
:100D40006F6F6C696E672E2E2E00426564204865B9
:100D50006174696E672E2E2E0050494420417574CF
:100D60006F74756E65206661696C656421204261EF
:100D700064206865617465722069640A00504944A2
:100D8000204175746F74756E65006F70656E0054E8
:100D90005249474745524544003A20007A5F6D6901
:100DA0006E00795F6D617800785F6D696E005265E5
:100DB000706F7274696E6720656E6473746F7020F3
:100DC0007374617475730A00205A3A0020593A000E
:100DD00020583A00656E6473746F7073206869748C
:100DE0003A2000486F6D696E67204661696C6564E2
:100DF000005761726E696E673A20486F6D696E6761
:100E00002042756D702044697669736F72203C20B2
:100E1000310A0002020420746F6F206C6F6E67202D
:100E2000657874727573696F6E2070726576656E21
:100E30007465640A0020636F6C6420657874727551
:100E400073696F6E2070726576656E7465640A00F2
:100E50000000A0400000A040000000400000184337
:100E60000000184300001843000018430000184316
:100E70000000184300000000000000000000000017
:100E8000486F6D652025732573257320466972733D
:100E9000740020746F6F206C6F6E672065787472B9
:100EA0007573696F6E2070726576656E7465640A1D
:100EB0000020636F6C6420657874727573696F6E5F
:100EC0002070726576656E7465640A0050726F6298
:100ED000696E67204661696C65640A00205A3A2091
:100EE0000020593A200042656420583A2000507290
:100EF0006F62696E67204661696C65640020204DF1
:100F00003134392043203B20556E69747320696E5B
:100F10002043656C736975730A0054656D70657262
:100F2000617475726520556E6974730020204732B4
:100F300031203B004C696E65617220556E69747397
:100F40000048617264636F6465642044656661751E
:100F50006C742053657474696E6773204C6F6164A0
:100F600065640A00454550524F4D20496E697469C9
:100F7000616C697A65640A00290A002062797465E7
:100F8000733B2063726320002073746F726564206A
:100F900073657474696E67732072657472696576BF
:100FA0006564202800202863616C63756C6174653A
:100FB0006429210A0020213D2000454550524F4D13
:100FC00020435243206D69736D61746368202D2046
:100FD0002873746F7265642920002053697A653A1A
:100FE0002000496E6465783A2000204D61726C697A
:100FF0006E3D563836290A00454550524F4D2076F1
:10100000657273696F6E206D69736D6174636820BA
:1010100028454550524F4D3D00290A002062797401
:1010200065733B20637263200053657474696E6757
:10103000732053746F726564202800454550524FE9
:101040004D206461746173697A65206572726F7294
:101050002E0A000000FA420000FA420000A0400000
:101060000060410000A0420000A0420000C8430010
:1010700000C042D0070000D00700001E0000001092
:101080002700004E6F20454550524F4D2E0A005309
:10109000657474696E67732053746F7265640020A1
:1010A000436F756E7420583A00C23100001C260050
:1010B00000F4190000D80F0000EB080000C0040085
:1010C00000750200004001000024F4D43050C38EAB
:1010D00020C2A24017828B7011127A910D816CD9B7
:1010E0000AA861E108C7586607615143061E4B5DB7
:1010F00005C145A7041A411104093D98037139310E
:10110000034036DB0265339102D4305402802E1D39
:1011100002632CEE01752AC501B028A001102781B9
:10112000018F2564012B244B01E0223401AC211FE7
:10113000018D200D01801FFC00841EED00971DDF36
:1011400000B81CD200E61BC600201BBC00641AB20B
:1011500000B219A8000A19A0006A189900D11791C5
:101160000040178B00B516840031167E00B3157948
:10117000003A157300C7146F0058146A00EE136626
:10118000008813630025135E00C7125B006C1257C2
:101190000015125400C111510070114F0021114B64
:1011A00000D61049008D104700461044000210423E
:1011B00000C00F4000800F3E00420F3C00060F3B76
:1011C00000CB0E3800930E37005C0E3500270E342E
:1011D00000F30D3200C10D3100900D3000600D2E76
:1011E00000320D2D00050D2C00D90C2B00AE0C2962
:1011F00000850C29005C0C2700350C27000E0C26FE
:1012000000E80B2400C40B2400A00B23007D0B235B
:10121000005A0B2100390B2100180B2000F80A1F7F
:1012200000D90A1E00BB0A1E009D0A1D00800A1D6F
:1012300000630A1C00470A1B002C0A1B00110A1A33
:1012400000F7091A00DD091900C4091900AB0919D2
:1012500000920917007B091800630917004C091652
:101260000036091600200916000A091500F50815B0
:1012700000E0081400CC081400B8081400A40814F6
:1012800000900813007D0812006B08130058081224
:10129000004608120034081100230811001208113A
:1012A0000001081100F0071000E0071000D007103F
:1012B00000C0071000B0070F00A107100091070E33
:1012C0000083070F0074070F0065070E0057070E15
:1012D0000049070E003B070D002E070E0020070DEA
:1012E0000013070D0006070D00F9060C00ED060DB2
:1012F00000E0060C00D4060C00C8060C00BC060C6E
:1013000000B0060C00A4060B0099060C008D060B1D
:101310000082060B0077060B006C060B0061060AC4
:101320000057060B004C060A0042060A0038060A5F
:10133000002E060A0024060A001A060A00100609F2
:101340000007060A00FD050900F4050900EB050980
:1013500000E2050900D9050900D0050900C7050903
:1013600000BE050900B5050800AD050800A5050982
:10137000009C050800940508008C050800840508F9
:10138000007C050800740508006C05070065050869
:10139000005D050700560508004E050700470507D4
:1013A000004005080038050700310507002A050739
:1013B00000230507001C050600160507000F05079A
:1013C000000805060002050700FB040600F50407F7
:1013D00000EE040600E8040600E2040700DB040651
:1013E00000D5040600CF040600C9040600C30406A5
:1013F00000BD040600B7040600B1040500AC0406F5
:1014000000A6040600A00405009B04060095040540
:1014100000900406008A0405008504050080040687
:10142000007A04050075040500700405006B0405CE
:101430000066040500610405005C0405005704050E
:1014400000520405004D040500480405004304054E
:10145000003E0404003A040500350405003004048D
:10146000002C04050027040400230405001E0404C6
:10147000001A04040016040500110404000D0404FD
:1014800000090405000404040000040400FC030433
:1014900000F8030400F4030400F0030400EC030468
:1014A00000E8030400E4030400E0030400DC030498
:1014B00000D8030400D4030400D0030400CC0304C8
:1014C00000C8030300C503030024F404D9201BC48F
:1014D0000C5C0E9804C4095F0265077101F405F9FC
:1014E00000FB04B30048048700C10369005803559A
:1014F0000003034500BE023A008402310053022A71
:10150000002902250004022000E4011C00C8011982
:1015100000AF01170098011400840113007101103D
:10152000006101100051010E0043010D0036010B56
:10153000002B010B0020010B00150109000C010913
:101540000003010800FB000800F3000800EB00079F
:1015500000E4000600DE000600D8000600D2000607
:1015600000CC000500C7000500C2000500BD000456
:1015700000B9000400B5000400B1000400AD00048F
:1015800000A9000400A5000300A20003009F0004BE
:10159000009B0003009800030095000200930003E5
:1015A00000900003008D0002008B00030088000201
:1015B000008600020084000300810002007F000218
:1015C000007D0002007B000200790002007700012C
:1015D0000076000200740002007200010071000237
:1015E000006F0002006D0001006C0002006A000143
:1015F000006900020067000100660001006500014B
:10160000006400020062000100610001006000014E
:10161000005F0002005D0001005C0001005B000152
:10162000005A000100590001005800010057000154
:101630000056000100550001005400010053000055
:101640000053000100520001005100010050000150
:10165000004F0001004E0000004E0001004D00014F
:10166000004C0001004B0000004B0001004A00014B
:101670000049000100480000004800010047000147
:101680000046000000460001004500000045000142
:10169000004400010043000000430001004200003C
:1016A0000042000100410000004100010040000133
:1016B000003F0000003F0001003E0000003E00012E
:1016C000003D0000003D0001003C0000003C000027
:1016D000003C0001003B0000003B0001003A00001C
:1016E000003A000100390000003900010038000014
:1016F000003800000038000100370000003700010A
:101700000036000000360000003600010035000001
:1017100000350000003500010034000000340000F6
:1017200000340001003300000033000000330001EA
:1017300000320000003200000032000100310000E1
:1017400000310000003100010030000000300000D6
:1017500000300001002F0000002F0000002F0000CB
:10176000002F0001002E0000002E0000002E0001BE
:10177000002D0000002D0000002D0000002D0001B4
:10178000002C0000002C0000002C0000002C0001A8
:10179000002B0000002B0000002B0000002B00019C
:1017A000002A0000002A0000002A0000002A000190
:1017B0000029000000290000002900000029000085
:1017C0000029000100280000002800000028000077
:1017D000002800000028000100270000002700006A
:1017E000002700000027000000270001002600005D
:1017F0000026000000260000002600000026000150
:101800000025000000250000002500000025000044
:101810000025000000250001002400000024000035
:101820000024000000240000002400010023000028
:10183000002300000023000000230000002300001C
:10184000002300000023000100220000002200000D
:1018500000220000002200000022000000220001FF
:1018600000210000002100000021000000210000F4
:1018700000210000002100000021000100200000E4
:1018800000200000002000000020000000200000D8
:10189000002000000020000000200001001F0000C8
:1018A000001F0000001F0000001F0000001F0000BC
:1018B000001F0000001F0001001E0000001E0000AD
:1018C000001E0000001E00000020573A0020573A7A
:1018D00000202F002042403A0020403A00202D20D6
:1018E000496E76616C69642065787472756465729E
:1018F000206E756D62657220210A004D494E544577
:101900004D5020747269676765726564004D415877
:1019100054454D502074726967676572656400456F
:1019200000626564002C2073797374656D20737494
:101930006F7070656421204865617465725F494409
:101940003A2000004B6420004B6920004B702000BF
:1019500062656400504944204175746F74756E650A
:101960002066696E697368656421205075742074FF
:101970006865206C617374204B702C204B6920616A
:101980006E64204B6420636F6E7374616E74732099
:1019900066726F6D2062656C6F7720696E746F2060
:1019A000436F6E66696775726174696F6E2E680A3F
:1019B00000504944204175746F74756E65206661EE
:1019C000696C6564212074696D656F75740A0050D7
:1019D0004944204175746F74756E65206661696C49
:1019E0006564212054656D7065726174757265203F
:1019F000746F6F20686967680A00204B643A2000A2
:101A0000204B693A2000204B703A200020436C6143
:101A10007373696320504944200A00204E6F206F81
:101A200076657273686F6F740A002054753A2000EF
:101A3000204B753A2000206D61783A2000206D69B6
:101A40006E3A200020643A200020626961733A20D7
:101A500000504944204175746F74756E652073742D
:101A60006172740A00504944204175746F74756E38
:101A700065206661696C6564212054656D706572CE
:101A8000617475726520746F6F20686967680A00F9
:101A900045310023646566696E65204445464155BD
:101AA0004C545F0048656174696E67206661696CBB
:101AB000656400546865726D616C2052756E617763
:101AC0006179001000AD0330016A0150022B0170F2
:101AD000030A019004F500B005E500D006D800F037
:101AE00007CE001009C500300ABE00500BB70070C9
:101AF0000CB100900DAB00B00EA600D00FA200F00C
:101B0000109D00101299003013950050149200702F
:101B1000158E0090168B00B0178700D0188400F047
:101B2000198100101B7E00301C7B00501D79007055
:101B30001E7600901F7300B0207000D0216E00F060
:101B4000226B001024690030256600502663007067
:101B500027610090285E00B0295C00D02A5900F06F
:101B60002B5600102D5400302E5100502F4E007077
:101B7000304B0090314800B0324500D0334200F085
:101B8000343E0010363B0030373700503833007099
:101B9000392E00903A2900B03B2300D03C1B00F0C6
:101BA0003D1100103F0100F03F000070012C01903A
:101BB000012701B0012201C0011D01F0011801102F
:101BC00002130130020E016002090190020401C0FB
:101BD00002FF000003FA004003F5008003F000D08C
:101BE00003EB002004E6007004E100E004DC0040A8
:101BF00005D700C005D2004006CD00D006C8008041
:101C000007C3003008BE00F008B900C009B400B036
:101C10000AAF00B00BAA00D00CA500000EA0005027
:101C20000F9B00C01096005012910000148C00C051
:101C3000158700B0178200B0197D00D01B78000016
:101C40001E730040206E0090226900F02464004062
:101C5000275F0090295A00E02B5500102E500020DD
:101C6000304B0010324600E033410090353C00100C
:101C700037370070383200A0392D00B03A2800A064
:101C80003B2300603C1E00103D1900903D140010E5
:101C90003E0F00703E0A00C03E0500003F000040BD
:101CA0003FFBFF803FF6FFC03FF1FF4572723A20D5
:101CB0004D494E54454D50004572723A204D4158A1
:101CC00054454D5000544845524D414C2052554EBC
:101CD000415741590048656174696E6720466169E2
:101CE0006C65640042656400496E76616C696420CD
:101CF00065787472756465720A007C3C3E5E2B3DAB
:101D00003F2F5B5D3B2C2A225C002F6175746F2591
:101D1000632E67006572726F722077726974696EE4
:101D20006720746F2066696C650A004E6F742053DB
:101D300044207072696E74696E670A0053442070A3
:101D400072696E74696E67206279746520002E0A6C
:101D50000044656C6574696F6E206661696C6564CA
:101D60002C2046696C653A200046696C65206465E4
:101D70006C657465643A0046696C652073656C65D2
:101D8000637465640A002053697A653A20004669E5
:101D90006C65206F70656E65643A2000454E442086
:101DA000535542524F5554494E450A002220706FF8
:101DB00073002220706172656E743A22005355429E
:101DC000524F5554494E452043414C4C207461724A
:101DD0006765743A22004578636565646564206DC3
:101DE000617820535542524F5554494E4520646501
:101DF0007074683A002066696C653A200066726506
:101E0000736800646F696E67004E6F7720002E0A5A
:101E1000006F70656E206661696C65642C20466990
:101E20006C653A20000A4D323400534420636172DD
:101E300064206F6B0A006F70656E526F6F7420665E
:101E400061696C65640A00766F6C756D652E696EEC
:101E50006974206661696C65640A004E6F205344A2
:101E600020636172640A00286E6F2066696C6529C0
:101E70000043616E6E6F74206F70656E20737562C3
:101E8000646972200057726974696E6720746F20EC
:101E900066696C653A20004D323320257300537516
:101EA0006263616C6C204F766572666C6F770001BF
:101EB00029022904290829102920294029802901DB
:101EC0002C022C0126022604260826102620264055
:101ED000268026402C802C01230223042308231073
:101EE00023202340238023012002200420082010E7
:101EF00020202040208020102C202C012F022F0495
:101F00002F082F102F202F402F802F00010000BC02
:101F10001F1200020000791F4300030000751F0418
:101F2000010309045B1F1802030904431F1603037E
:101F30000904351F0C0C0331003200330034003526
:101F400000000016035500530042002000530065B6
:101F5000007200690061006C000000180354006505
:101F60000065006E00730079006400750069006E02
:101F7000006F00000004030904090243000201008D
:101F8000C032090400000102020100052400100112
:101F900005240100010424020605240600010705AA
:101FA000820308004009040100020A00000007053E
:101FB00003024000000705840240000012010002F5
:101FC00002000020C0168304720201020301000116
:101FD000C10201803601813664107813311A146F02
:101FE0004E74FC9BA1B595B6F1BEC6B511241FBEBB
:101FF000CFEFD0E2DEBFCDBF84B78093AE1214BE68
:102000000FB6F894A8958091600088618093600075
:10201000109260000FBE12E0A0E0B1E0EAEDF3E93B
:1020200001E00BBF02C007900D92A834B107D9F7A9
:1020300022E1A8E4B2E001C01D92AE3AB207E1F796
:102040001FE0C5EFDFE004C02197FE010E9466BFDC
:10205000CC3ED107C9F70E9440B80C94DEC90C945D
:102060000000A0914802B0914902109769F0ED91EB
:10207000FC91119712968D919C9113979093490220
:10208000809348020995EDCF0895CF93DF93EC013B
:1020900084E090E00E9446B8009781F0FC01D18373
:1020A000C083209148023091490233832283909368
:1020B00049028093480280E090E002C081E090E015
:1020C000DF91CF910895089580EA92E190934B02B9
:1020D00080934A020895909164009B7F90936400DE
:1020E000982F906A96959CBD80FD03C091E0863044
:1020F00009F490E09DBD0895209A289A219A23988A
:10210000229A81E0E8CF8FEF8EBD0DB407FEFDCFA0
:102110008EB5089561157105D1F0615071092FEFE9
:102120002EBDFC01AF01481B590B4617570738F469
:102130000DB407FEFDCF3EB531932EBDF3CF0DB4E8
:1021400007FEFDCF2EB5FC01E60FF71F2083089593
:102150008EBD0DB407FEFDCF08958EBDFB01CB01F2
:102160009E5F0DB407FEFDCF20812EBD0DB407FE8E
:10217000FDCF21812EBD3296E817F90791F70DB4F6
:1021800007FEFDCF089581E0089581E008955F92F4
:102190006F927F928F929F92AF92BF92CF92DF9277
:1021A000EF92FF920F931F93CF93DF931F92CDB7C0
:1021B000DEB77C0139018B015B01A40EB51EC12C79
:1021C000D12CA016B10609F43FC0F70180809180A0
:1021D000F80151908F015982C4010E94C8C9581654
:1021E00021F1652DC4010E94D0C9FFEFCF1ADF0A8B
:1021F000C6018F779927892B39F062E070E080E083
:1022000090E00E94A5BA05C062E070E080E090E036
:10221000E8D3C4010E94C8C99981891731F07ED2E0
:1022200083ED90E06DD281E010C041E050E0BE014E
:102230006F5F7F4FC3010E943548F7018081918114
:10224000019691838083BDCF80E00F90DF91CF9185
:102250001F910F91FF90EF90DF90CF90BF90AF90C4
:102260009F908F907F906F905F9008958F929F9234
:10227000AF92BF92CF92DF92EF92FF920F93CF93E4
:10228000DF931F92CDB7DEB75C016B017A01490184
:10229000F501808191810E94C8C98983002311F0D2
:1022A000F601808341E050E0BE016F5F7F4FC401C3
:1022B0000E943548F5018081918101969183808348
:1022C000FFEFCF1ADF0A81E0E81AF10809F780E092
:1022D0000F90DF91CF910F91FF90EF90DF90CF9013
:1022E000BF90AF909F908F90089508950C94A94946
:1022F000C82F89EE93E0019739F000C00000EEE5A9
:10230000F9E03197F0F7F7CFF89489EE93E0019771
:1023100039F000C00000E6EEF3E03197F0F7F7CFB8
:102320000E94ED8CCC2319F00E94F47E02C00E9422
:10233000EC7EA895FECFC091AE1214BE40E950EDE0
:1023400063E070E080914A0290914B020E947EBE51
:102350000FB6F894C0909512D0909612E090971214
:10236000F09098120FBE88EEC80E83E0D81EE11CD4
:10237000F11C80914A0290914B020E94E6BE8111AD
:1023800011C00FB6F8948091951290919612A09179
:102390009712B09198120FBE8C199D09AE09BF0912
:1023A000B7FDE7CF86E991E0ABD16AE070E080E06D
:1023B00090E00E94A5BA80E885BF85BF84DE95DFE6
:1023C000C0FF03C08DE891E09BD1C1FF03C08CE743
:1023D00091E096D1C2FF03C08AE691E091D1C3FF9C
:1023E00003C089E591E08CD1C5FF03C088E491E08A
:1023F00087D188E391E084D191D185E091E080D1CB
:102400008DD18DEE90E07CD189D1FFCFDC018D9113
:102410009C91DC01ED91FC910190F081E02D0994FB
:10242000EC01142F0E94ED8C209739F077D1CE016A
:1024300067D16AE08AE492E0E9DF73D18DE991E047
:102440005FD1812F55DFCF92DF92EF92FF920F93F2
:102450001F93CF93DF93C82F0E9482430FB6F89447
:10246000C0909512D0909612E0909712F09098122A
:102470000FBECC2341F0C0929602D0929702E09218
:102480009802F092990240919202509193026091C9
:10249000940270919502411551056105710571F124
:1024A0008091960290919702A0919802B091990222
:1024B000840F951FA61FB71FA7019601281B390B74
:1024C0004A0B5B0B57FD1AC02CD10091C002109132
:1024D000C1028DEB91E014D1E8016991662321F0EE
:1024E0008AE492E093DFF9CF6AE08AE492E08EDF3B
:1024F00040E060E070E080E090E092DF0091040155
:102500001091050120910601309107010115110577
:102510002105310509F43DC09091500680914D068A
:10252000981749F0C0929602D0929702E0929802D2
:10253000F09299022EC0C1114CC00FB6F894809150
:10254000951290919612A0919712B09198120FBE89
:102550004091960250919702609198027091990271
:10256000400F511F621F731F841B950BA60BB70BE7
:10257000B7FD2FC08091500281110BC081E0809384
:10258000500280E00E94AE7E81E00E94AE7E0E94FA
:10259000EC7E80914C0290914D02A0914E02B09140
:1025A0004F02A7019601281B390B4A0B5B0B57FD05
:1025B00013C00E94475E34E6C30ED11CE11CF11C1F
:1025C000C0924C02D0924D02E0924E02F0924F0225
:1025D00003C010925002DDCFDF91CF911F910F9178
:1025E000FF90EF90DF90CF900895CF92DF92EF921F
:1025F000FF9229DF0E94E49080915102882309F420
:102600003EC00E94CBB20E943E3380919002811165
:1026100036C02091300C222391F10FB6F894C0906F
:102620009512D0909612E0909712F09098120FBEEB
:1026300080912C0C90912D0CA0912E0CB0912F0C10
:10264000B701A601481B590B6A0B7B0B77FD17C01E
:1026500030E0A8EEB3E00E946FBFC60ED71EE81EA2
:10266000F91EC0922C0CD0922D0CE0922E0CF09200
:102670002F0CFF90EF90DF90CF900C945193FF9030
:10268000EF90DF90CF900895C0E0D2E013E080E0BB
:10269000ACDF8091D51187FF1BC01092AC110E9456
:1026A00016AF10920C0310920B0310920A030E94B3
:1026B000AF4F0E9413490E94ED8C60E070E080E013
:1026C0000E94E18810920001D0930503C093040397
:1026D00080915102843039F48AEF91E00E949D3F4D
:1026E0008111109351020E9441410E94AD4ECFCF03
:1026F00082E592E00C94F6AD682F8AE492E086CEF3
:10270000CF93DF93FC018491EF012196882319F088
:10271000F3DFFE01F8CFDF91CF91089582E292E0DE
:10272000EFCF8BE192E0ECCF811103C084E192E026
:1027300002C088E192E0E4CFF7DF8AE0DDCF8F923C
:102740009F92AF92BF92CF92DF92EF92FF920F9340
:102750001F93CF93DF93CDB7DEB7A0970FB6F89452
:10276000DEBF0FBECDBF7C0141155105610571056E
:10277000B9F100E04901330FAA08BB08102FCC249F
:10278000C394D12CCC0EDD1EC00ED11C07FDDA94F3
:10279000CB01BA01A50194010E9428BF942F852F77
:1027A000F6016083A901692F782F0F5F411551054C
:1027B0006105710519F71F3F39F1E1E0F0E0EC0F19
:1027C000FD1FE10FF11D17FDFA9580818A3010F091
:1027D00067E301C060E3680FC70118DE1150EBCF5B
:1027E00060E3A0960FB6F894DEBF0FBECDBFDF91B9
:1027F000CF911F910F91FF90EF90DF90CF90BF90FE
:10280000AF909F908F9002CEA0960FB6F894DEBF47
:102810000FBECDBFDF91CF911F910F91FF90EF9031
:10282000DF90CF90BF90AF909F908F9008958F9240
:102830009F92AF92BF92CF92DF92EF92FF920F934F
:102840001F93CF938C016A017B01B22E20E030E010
:10285000A901C701B6010E9400C087FF07C06DE251
:10286000C801D4DDF7FAF094F7F8F094C0E060E026
:1028700070E080E09FE3CB1541F02DEC3CEC4CEC9C
:102880005DE30E94D6C1CF5FF6CF9B01AC01C701CB
:10289000B6010E9489BF6B017C010E9471C04B018F
:1028A0005C012AE030E0AB01BC01C80148DFCC2369
:1028B00089F1C501B4010E949DC09B01AC01C70113
:1028C000B6010E9488BF6B017C016EE2C8019EDDEB
:1028D00020E030E040E251E4C701B6010E94D6C1D9
:1028E0006B017C010E9471C04B015C012AE030E069
:1028F000AB01BC01C80123DFC501B4010E949DC02A
:102900009B01AC01C701B6010E9488BF6B017C012D
:10291000C150F1F6CF911F910F91FF90EF90DF9092
:10292000CF90BF90AF909F908F9008958F929F927D
:10293000AF92BF92CF92DF92EF92FF920F931F93CD
:10294000CF93DF936C017B01EA01C901009709F085
:10295000D7DEF60180809180A280B38081E492E08E
:10296000CFDE22E0B501A4018AE492E060DFF70146
:10297000C080D180E280F3808EE392E0C1DE22E06D
:10298000B701A6018AE492E052DFC880D980EA80CC
:10299000FB808BE392E0B4DE22E0B701A6018AE47B
:1029A00092E045DF0115110571F0C801DF91CF916B
:1029B0001F910F91FF90EF90DF90CF90BF90AF905D
:1029C0009F908F909DCE8AE0DF91CF911F910F91C4
:1029D000FF90EF90DF90CF90BF90AF909F908F903F
:1029E0008BCECF92DF92EF92FF926B017C0183E35B
:1029F000C816D104E104F10470F082E3C81AD108CA
:102A0000E108F10862E370E080E090E00E94A5BA7E
:102A10000E94E490ECCFC701B6010E94A5BAFF90D6
:102A2000EF90DF90CF900C94E490CF93DF93C09120
:102A30005602D09157022097A9F061E01C161D069E
:102A40000CF060E00E9451888091560290915702EC
:102A50001C161D0614F4019701C0019690935702AD
:102A600080935602DF91CF910895CF93DF93EB01CE
:102A700091E001C0990F8A95EAF7892F0E94B5531A
:102A8000811114C080915402909155028C0F9D1FAA
:102A900090935502809354026091560270915702B0
:102AA0006C0F7D1F7093570260935602DF91CF9198
:102AB0000895CF93C82F84E0C89FF0011124EA5EE7
:102AC000F94F2081318142815381FB016081718105
:102AD000828193810E94D6C10E946CC08C2FCF91BD
:102AE000C4CF9091C9059817B1F00E94776080918A
:102AF000C905882339F08CE291E00E94CA5E1092E9
:102B0000C90507C081E08093C9058CE291E00E946D
:102B10003B5F0C94154F089580E0E3DF85EA95E074
:102B20000C94874CDC01ED91FC910190F081E02D3B
:102B30000994E82FF0E0EE0FFF1FE85AFD4F808167
:102B400091810895E82FF0E0EE0FFF1FE85AFD4F46
:102B50006081718180E090E00E949DC020E030E0C3
:102B600048EC52E40E94D6C120E030E04CE555E448
:102B70000E9404C020E030E040E05FE30E9489BF93
:102B80000E9471C0862F0895EF92FF920F931F93BA
:102B9000CF93DF9360E686ED91E10E9477B660E522
:102BA00070E086ED91E1BEDFC8E5D2E07E010981EB
:102BB00010E0B801606886ED91E1B4DF2296F7017C
:102BC000608186ED91E10E943BB6F2E0C036DF07FE
:102BD00069F786ED91E1DF91CF911F910F91FF9001
:102BE000EF900C9493B60F931F93CF93DF9360E60F
:102BF00086ED91E10E9477B6C8E5D2E08E01698149
:102C000086ED91E10E943BB62296F801608186ED47
:102C100091E10E943BB6F2E0C036DF0779F786ED1E
:102C200091E1DF91CF911F910F910C9493B6E82F12
:102C3000F0E0EE0FFF1FE85AFD4F71836083D3CFA2
:102C4000CF93C82F60E086ED91E10E9477B66C2F9C
:102C500086ED91E10E943BB686ED91E1CF910C9417
:102C600093B6E82F880FFF0BEF53FE4F808161DF93
:102C7000BC0180E090E00E949DC020E030E040E098
:102C80005EE30E94D6C129E032EF44E15CE30C949C
:102C9000D6C190916002992379F09B01613C7D40FF
:102CA00010F020EC3DE0E82FF0E0EF53FE4FB901CB
:102CB0008081BDDF88E0C4CF0895FF920F931F93FA
:102CC000CF93DF93F82E8A01D62FC72F20E030E074
:102CD00048EC52E4B8018D2F9C2F0E9400C087FD64
:102CE00004C000E010E0D8ECC2E420E030E04CE5A5
:102CF00055E4B8018D2F9C2F0E94D6C120E030E012
:102D000048EC52E40E9404C00E9471C08F2DDF91F4
:102D1000CF911F910F91FF90BCCF809160028111E4
:102D200033CF0895CF92DF92EF92FF926A017B0139
:102D3000E7DC22E0B701A6018AE492E0FF90EF9081
:102D4000DF90CF9074CD80916002882309F465C034
:102D5000E5DC88E692E0D4DCE1DC83E0F3DE682F9A
:102D600070E080E090E00E949DC0AB01BC0184E374
:102D700092E0D8DF80E075DFAB01BC0185E692E030
:102D8000D1DF83E692E0BCDC82E0DCDE682F70E01D
:102D900080E090E00E949DC0AB01BC0180E392E026
:102DA000C1DF81E05EDFAB01BC0180E692E0BADF0B
:102DB0008EE592E0A5DC81E0C5DE682F70E080E062
:102DC00090E00E949DC0AB01BC018CE292E0AADFC2
:102DD00082E047DFAB01BC018BE592E0A3DF89E530
:102DE00092E08EDC80E0AEDE682F70E080E090E064
:102DF0000E949DC0AB01BC0188E292E093DF83E0BA
:102E000030DFAB01BC0186E592E08CDF84E592E027
:102E100077DC6AE08AE492E0F9CA089581548A3145
:102E200008F047C0E82FF0E04091B5025091B6029B
:102E30006091B7027091B80204C076956795579576
:102E400047958A95D2F7842F817040FF34C0E556AC
:102E5000FD4F9081992341F1E091C002F091C102B0
:102E6000E90FF11D908120ED290F2A3098F09E3254
:102E700011F491810CC09D3211F09B3271F491815B
:102E800020ED290F2A3030F09E3239F49281905390
:102E90009A3018F42E2F9F2F02C020E090E020934C
:102EA000BC029093BD0208951092BD021092BC0224
:102EB000089580E008950895B1DF882341F081E00E
:102EC0002091BC023091BD02232B09F480E00895CB
:102ED0000F931F93CF938091BC029091BD020097F6
:102EE00011F1FC018F01C1912C2F2F7DA9F0C53468
:102EF00011F0C536B9F7F801108260E070E08091FA
:102F0000BC029091BD020E9486C2F801C083562F78
:102F1000472F382F292F0BC060E070E0CF911F9111
:102F20000F910C9486C250E040E030E020E0652F25
:102F3000742F832F922FCF911F910F91089580911D
:102F4000BC029091BD02009731F04AE050E060E091
:102F500070E00C94D9C360E070E0CB01089510924A
:102F60006A02EBE6F2E080E090E0A0E4B0E4808367
:102F70009183A283B38380E090E0A4E3B2E48483EE
:102F80009583A683B78310861186128613861486CE
:102F900015861686178680E090E0A0E0B1E4808B6D
:102FA000918BA28BB38B40E050E060E571E4448BE1
:102FB000558B668B778B108E118E128E138E848FAD
:102FC000958FA68FB78F10926102109262021092B5
:102FD00063021092640210926902109265021092CC
:102FE0006602109267021092680208958F929F9273
:102FF000AF92BF92CF92DF92EF92FF921F93CF9347
:10300000DF93CDB7DEB728970FB6F894DEBF0FBEBB
:10301000CDBF90916902981709F4CAC0182F40914A
:103020006B0250916C0260916D0270916E0280E1B2
:10303000ECE2F1E0A3E4B5E001900D928A95E1F7AE
:1030400080912E0690912F06A0913006B091310606
:103050008D839E83AF83B887112309F44DC04093BD
:1030600065025093660260936702709368028091D4
:103070006F0290917002A0917102B09172028983E7
:103080009A83AB83BC83CE0101960E944F53C090BC
:103090006102D0906202E0906302F090640220E04E
:1030A00030E0A901C701B6010E9400C081117EC0B5
:1030B0008090730290907402A0907502B090760296
:1030C0002AE037ED43E25CE3C501B4010E94A2C1EE
:1030D00018160CF06BC0A5019401C701B6010E943F
:1030E00089BF609361027093620280936302909340
:1030F0006402CE01059658C020E030E0A90160913D
:1031000061027091620280916302909164020E9458
:1031100000C0882361F01092610210926202109246
:10312000630210926402CE0105960E944F53C09034
:103130007702D0907802E0907902F0907A0220E055
:1031400030E0A901C701B6010E9400C08823B1F098
:10315000A7019601609138017091390180913A017F
:1031600090913B010E9488BF6093380170933901B0
:1031700080933A0190933B010E94194F109265028F
:1031800010926602109267021092680280917B0290
:1031900090917C02A0917D02B0917E0289839A83F6
:1031A000AB83BC83CE0101960E944F5310936902FA
:1031B00028960FB6F894DEBF0FBECDBFDF91CF913A
:1031C0001F91FF90EF90DF90CF90BF90AF909F90B6
:1031D0008F900895CF93C0916A02C05D8DE892E010
:1031E0008FDA6C2F8AE492E011D96AE08AE492E0E7
:1031F000CF910CC9CF9383E511DEC82F811102C096
:10320000CF91E8CF8091BC029091BD02892B79F0DB
:1032100096DE97FD0BC093DE6F3F7105810591052A
:1032200009F02CF48CDEC1E0611101C0C0E0C09354
:103230006A0210926902CF910895AB01BC0122E0AD
:103240008AE492E0F4CACF92DF92EF92FF92CF939A
:10325000DF93CBE6D2E0C880D980EA80FB808BEA9E
:1032600092E04EDAC701B601E8DFCC88DD88EE884F
:10327000FF8888EA92E044DAC701B601DEDF20E089
:1032800030E040E752E46C817D818E819F810E9415
:10329000D6C16B017C0185EA92E032DAC701B60142
:1032A000CCDFC884D984EA84FB848BE392E028DAFB
:1032B000C701B601C2DF6AE08AE492E0DF91CF91F4
:1032C000FF90EF90DF90CF90A1C88091B50285FD6F
:1032D00008C08091B702847421F48091B80281FF04
:1032E000B2CF83E5E9DD882349F0F2DD60936B021C
:1032F00070936C0280936D0290936E0286E4DCDD25
:10330000882379F0E5DD20E030E040E752E40E94D8
:1033100004C060936F027093700280937102909367
:1033200072028AE5C9DD882349F0D2DD6093730219
:1033300070937402809375029093760287E5BCDDEA
:10334000882351F0C5DD60937F02709380028093E3
:1033500081029093820208950895CF92DF92EF92B6
:10336000FF92CF93DF93CBE6D2E0CC84DD84EE8472
:10337000FF848CE992E0C4D9C701B6015EDFC88C36
:10338000D98CEA8CFB8C89E992E0BAD9C701B601E5
:1033900054DF20E030E040E752E4688979898A8987
:1033A0009B890E94D6C16B017C0186E992E0A8D975
:1033B000C701B60142DF6AE08AE492E0DF91CF9173
:1033C000FF90EF90DF90CF9021C88091B50285FDEE
:1033D00005C08091B702867409F441C083E51EDD03
:1033E000882349F075DD60937702709378028093AB
:1033F000790290937A0286E411DD882379F068DD02
:1034000020E030E040E752E40E9404C060937B0279
:1034100070937C0280937D0290937E0282E5FEDCB5
:10342000882379F055DD20E030E040E752E40E9447
:1034300004C06093870270938802809389029093FE
:103440008A0287E5EBDC882359F042DD6093830232
:1034500070938402809385029093860208957DCFB5
:1034600008957DCD4F925F926F927F928F929F923F
:10347000AF92BF92CF92DF92EF92FF92CF93DF9302
:1034800083E5CCDCD82F8823B9F08091BC029091E1
:10349000BD02892B11F4C1E013C051DD97FD0FC0AF
:1034A0004EDD6F3F71058105910509F0A4F747DDF9
:1034B000C1E0611105C003C0C091C90501C0C0E0F1
:1034C00040902C0150902D0160902E0170902F01A2
:1034D0008090300190903101A0903201B090330182
:1034E000C0903401D0903501E0903601F090370162
:1034F000DD2321F0C11102C080E0F3DA8091B50232
:103500009091B602A091B702B091B80225E1B695AC
:10351000A795979587952A95D1F780FF06C069E012
:1035200073E085EA95E00E948F4D8C2FDADACC2388
:1035300041F08091C905811104C0F3D88AEE92E070
:10354000DFD8ECD88CED92E0DBD88091C905F4D8B7
:1035500020912C0130912D0140912E0150912F018D
:10356000C301B2010E9400C081111CC02091300132
:10357000309131014091320150913301C501B401C4
:103580000E9400C081110EC020913401309135019C
:103590004091360150913701C701B6010E9400C029
:1035A000882381F0DF91CF91FF90EF90DF90CF9053
:1035B000BF90AF909F908F907F906F905F904F9053
:1035C0000C94FA56DF91CF91FF90EF90DF90CF905F
:1035D000BF90AF909F908F907F906F905F904F9033
:1035E0000895CF92DF92EF92FF920F931F93CF93A4
:1035F000DF93EC016A017B0189012A30310569F40E
:1036000077FF0BC0F094E094D094C094C11CD11CFF
:10361000E11CF11C6DE20E9406129801B701A6019F
:10362000CE01DF91CF911F910F91FF90EF90DF902E
:10363000CF9085C8CF93C82F41E06AEC72E00E941A
:103640009C338C2F0E94442FC091C90581EC92E0DD
:1036500057D84C2F50E060E070E02AE030E08AE478
:1036600092E0BFDF84EB92E04BD88091C905CF9107
:1036700063C8CF93DF93D82FC62F1EDC8823B9F001
:103680008091BC029091BD02892B11F481E016C09B
:1036900056DC97FD12C053DC6F3F71058105910523
:1036A00009F0A4F74CDC81E0611108C006C08D2F41
:1036B000B5DB8111EBCF8C2F01C080E0DF91CF9182
:1036C00008954F925F926F927F928F929F92AF92E6
:1036D000BF92EF92FF920F931F93CF93DF93EC0172
:1036E0008B017A01FA012085318542855385FB01E2
:1036F00060857185828593850E9488BF4B015C013E
:10370000F7012481358146815781F80164817581F3
:10371000868197810E9488BF2B013C01F70120819F
:10372000318142815381F80160817181828193816D
:103730000E9488BF688379838A839B834C825D82E1
:103740006E827F8288869986AA86BB86CE01DF91AB
:10375000CF911F910F91FF90EF90BF90AF909F90EE
:103760008F907F906F905F904F9008952F923F922F
:103770004F925F926F927F928F929F92AF92BF9281
:10378000CF92DF92EF92FF920F931F93CF93DF932D
:1037900000D000D000D0CDB7DEB79E838D83C0901F
:1037A000720BD090730BF60180809180A280B38061
:1037B00020E030E0A901C501B4010E9489BF7B016E
:1037C0008C0120E030E040E251E40E9400C087FD1F
:1037D00005C0E982FA820B831C8306C019821A8213
:1037E000F0E2FB8381E48C83F6014480558066809F
:1037F000778020E030E0A901C301B2010E9489BFB7
:103800001B016C0120E030E040E251E40E9400C066
:1038100087FD05C0522D432D3C2D2D2D04C050E0B9
:1038200040E030E221E489819A81AB81BC81ED8165
:10383000FE8180839183A283B383852F942FA32F4E
:10384000B22F84839583A683B78320E030E048E1DC
:1038500053E4C501B4010E9489BF4B015C0120E023
:1038600030E04EE053E40E94A2C118162CF0898289
:103870009A82AB82BC8206C019821A82FEE0FB8368
:1038800083E48C8320E030E040E251E4B101C601E2
:103890000E9400C087FF06C0212C312C30E2C32ECD
:1038A00041E4D42E89819A81AB81BC81ED81FE8176
:1038B00084879587A687B787C101D601808B918BB6
:1038C000A28BB38B20E030E040E251E4B701C801A5
:1038D0000E9400C087FF04C0E12CF12C00E211E43B
:1038E00020E030E04EE053E4B401C5010E94A2C1E3
:1038F000181634F4812C912C9EE0A92E23E4B22ECC
:103900009701A801B401C5010E9489BF20E030E001
:1039100040E05FE30E94D6C14B015C0120E030E053
:1039200048E153E4C301B2010E9489BF6B017C01ED
:1039300020E030E04EE053E40E94A2C1181634F4B7
:10394000C12CD12C8EE0E82E83E4F82EED81FE818F
:10395000808E918EA28EB38EC48ED58EE68EF78E1B
:1039600026960FB6F894DEBF0FBECDBFDF91CF9184
:103970001F910F91FF90EF90DF90CF90BF90AF908D
:103980009F908F907F906F905F904F903F902F907F
:1039900008953F924F925F926F927F928F929F9283
:1039A000AF92BF92CF92DF92EF92FF920F931F934D
:1039B000CF93DF93CDB7DEB7CE58D1090FB6F894C9
:1039C000DEBF0FBECDBF0FB6F894809195129091D7
:1039D0009612A0919712B09198120FBE8093960202
:1039E00090939702A0939802B09399028091C90591
:1039F000882329F060E08FE43CDE81115CC2809175
:103A0000B5029091B602A091B702B091B8022DE034
:103A1000B695A795979587952A95D1F780FF04C00D
:103A200088E89CE00E94CE3287E00E940556811112
:103A300042C2CE0101966C01FE01B596C357DF4F1D
:103A4000F983E883CD58D040FC01382EFD2C108638
:103A500011861286138614821582168217821082AE
:103A60001182128213823C96C357DF4F888199815D
:103A7000CD58D0408E179F0751F7C60177DE809151
:103A8000C90525968FAF25978091B5029091B60212
:103A9000A091B702B091B80249E0B695A795979565
:103AA00087954A95D1F780FF02C036D804C286E5D3
:103AB00003DA882311F043DA02C060E070E07EABE5
:103AC0006DAB6530710528F089E793E00E948013A3
:103AD000F2C160E084E4CDDD24968FAF24978DA9F8
:103AE0009EA91816190694F483E693E00E948013A9
:103AF00024968FAD2497882321F089E593E00E94D6
:103B000080136AE08AE492E00E9406120E947760C5
:103B100019A21AA21BA21CA21D8A1E8A1F8A188E15
:103B200019861A861B861C860E94855180E00E9499
:103B3000711581E00E94A271882331F025968FAD26
:103B400025970E947115B7C160E085E492DD81116F
:103B500002C013E001C011E023961CAE1DAE1EAEE4
:103B60001FAE2397412C512C320143948DA99EA95D
:103B7000892B79F08AE493E00E9480132AE030E0F8
:103B8000B301A2018AE492E02CDD85E493E00E9477
:103B90008013F60184819581A681B781408151818E
:103BA000628173814FAB58AF69AF7AAF8BAF9CAF77
:103BB000ADAFBEAFEE24E39401E02DA9412FBE01CD
:103BC000655C7F4FCE01C7960E94FB724B015C0182
:103BD00023966CAF7DAF8EAF9FAF23979B01AC0157
:103BE0000E947BC2882331F025968FAD25970E94D5
:103BF000711514C0F60180869186A286B386FCE01A
:103C0000CF0ED11C8FEF481A580A680A780A94E040
:103C1000491651046104710409F0A8CF24968FADB0
:103C20002497811179C023966CAD7DAD8EAD9FAD8B
:103C300023979B01AC010E947BC281116DC0AE0134
:103C4000435F5F4FBE01675E7F4FCE018B5B9F4F2F
:103C500038DDAE01435F5F4F632D7F2DCE018F5A5C
:103C60009F4F2FDDAE014B5B5F4FBE016F5A7F4F01
:103C7000CE0185960E94D449BE016B5D7F4FCE0177
:103C8000835A9F4F0E94234BA996CCACDDACEEAC7F
:103C9000FFACA99720E030E0A901C701B6010E945E
:103CA00000C087FF24C0A1968CAD9DADAEADBFAD69
:103CB000A197B058A1968CAF9DAFAEAFBFAFA19703
:103CC000A5968CAD9DADAEADBFADA597B058A596F0
:103CD0008CAF9DAFAEAFBFAFA597F7FAF094F7F8F2
:103CE000F094A996CCAEDDAEEEAEFFAEA997BE01C4
:103CF000635A7F4FCE0187599F4F0E94ED4C84E25B
:103D0000FE01E759FF4FA5EAB5E001900D928A95B3
:103D1000E1F725961FAE259780E00E94A2718823C7
:103D200079F025968FAD25970E94711580E090E07F
:103D3000A0ECBFE723968CAF9DAFAEAFBFAF23978C
:103D400023966CAD7DAD8EAD9FAD23979B01AC01ED
:103D50000E947BC28111A6C08DA99EA918161906C2
:103D600034F466E273E085EA95E00E948F4D249674
:103D70008FAD249781118AC080E1ECE2F1E0DE0191
:103D8000959601900D928A95E1F781E08093C9059F
:103D9000CE0185960E943B5F1092C905E090720BA0
:103DA000F090730BF70120813181428153816FA91B
:103DB00078AD89AD9AAD0E9488BF9B01AC0160913E
:103DC0002C0170912D0180912E0190912F010E9464
:103DD00088BF2B013C012DEB37E346E855EB0E94F1
:103DE000A2C187FD4AC02DEB37E346E855E3C30186
:103DF000B2010E9400C018160CF43FC0F7012481E4
:103E00003581468157816BAD7CAD8DAD9EAD0E94F5
:103E100088BF9B01AC0160913001709131018091AC
:103E20003201909133010E9488BF6B017C012DEB20
:103E300037E346E855EB0E94A2C187FD1EC02DEB7B
:103E400037E346E855E3C701B6010E9400C01816E3
:103E5000A4F023962CAD3DAD4EAD5FAD23976091A0
:103E600034017091350180913601909137010E94A3
:103E700088BF6DA77EA78FA798AB80E1FE01B5969E
:103E8000ACE2B1E001900D928A95E1F724968FADF6
:103E90002497882321F025968FAD259701C081E0D6
:103EA0008093C9050E948D518091C90581110E949E
:103EB000154F0E94FA56C257DF4F0FB6F894DEBF77
:103EC0000FBECDBFDF91CF911F910F91FF90EF906B
:103ED000DF90CF90BF90AF909F908F907F906F902A
:103EE0005F904F903F9008954F925F926F927F92B4
:103EF0008F929F92AF92BF92CF92DF92EF92FF92FA
:103F0000CF93DF93CDB7DEB72C970FB6F894DEBF13
:103F10000FBECDBF83E00E9405568111A5C00E944F
:103F2000154F20911F05309120054091210550919A
:103F3000220560E070E088E992E40E9488BF6B018E
:103F40007C01209123053091240540912505509155
:103F5000260560E070E088E992E40E9488BF2B01AA
:103F60003C018091340190913501A0913601B091CE
:103F7000370180934F0590935005A0935105B0935E
:103F80005205A090720BB090730BF5012081318126
:103F900042815381C701B6010E9488BF6B017C0139
:103FA00060934305709344058093450590934605BF
:103FB000F5012481358146815781C301B2010E94F8
:103FC00088BF4B015C01609347057093480580935F
:103FD000490590934A0527E137EB41ED58EB0E94E4
:103FE000A2C187FD36C027E030E048E153E4C501B7
:103FF000B4010E9400C0181664F127E137EB41EDCF
:1040000058EBC701B6010E94A2C187FD22C027E07C
:1040100030E048E153E4C701B6010E9400C0181621
:10402000C4F019861A861B861C8688E0E3E4F5E056
:10403000DE01119601900D928A95E1F7BE01675F4E
:104040007F4FCE0101960E94D95082E00E942755F1
:104050000BC060E080EB93E00E9433480E948E1317
:104060008EE993E00E9480132C960FB6F894DEBF81
:104070000FBECDBFDF91CF91FF90EF90DF90CF903B
:10408000BF90AF909F908F907F906F905F904F9078
:1040900008958F929F92AF92BF92DF92EF92FF921C
:1040A0000F931F93CF93DF9300D000D0CDB7DEB72F
:1040B00087E00E94B553811111C08091B5029091A3
:1040C000B602A091B702B091B8024EE0B695A7959E
:1040D000979587954A95D1F780FDCBC00E94776070
:1040E0001092090180E00E9471150FB6F89480913A
:1040F000951290919612A0919712B09198120FBEBE
:104100008093960290939702A0939802B09399029D
:104110000E94855181E00E94074E8091B5029091E6
:10412000B602A091B702B091B80229E1B695A79561
:10413000979587952A95D1F7F82FF170DF2E80FF9C
:1041400020C081E00E94B553082F82E00E94B55341
:1041500011E0811101C010E001117FC0012F809199
:10416000B5029091B602A091B702B091B80237E1C2
:10417000B695A795979587953A95D1F780FD6CC030
:1041800002C000E0ECCF011172C01091B8021170B2
:10419000011367C0D11269C001E011E0DD24D3949E
:1041A00082E50E940E17882321F18091BC02909134
:1041B000BD020097F1F0FC017F01B1902B2D2F7D06
:1041C00099F025E4B21619F025E6B212F5CFF70101
:1041D000108260E070E08091BC029091BD020E946C
:1041E00086C2F701B08209C060E070E00E9486C21A
:1041F00004C060E070E080E490E44B015C018982DF
:104200009A82AB82BC8220E030E0A901C501B401F2
:104210000E9400C0882359F0111104C0011102C08E
:10422000DD2089F060E0CE0101960E941D5111232E
:1042300019F080E00E942755002319F081E00E94C8
:104240002755D11051DE0E94154F0E94E04D0E946B
:104250008D510E94FA560DC0102F11119BCF01E015
:1042600094CF812F102F082F9BCF012F99CF10E0D3
:1042700097CF0F900F900F900F90DF91CF911F91DC
:104280000F91FF90EF90DF90BF90AF909F908F9035
:104290000895CF93C82F0E949C338C2FCF910C94FC
:1042A000442F0E9492166AE08AE492E00C9406126F
:1042B000CF93DF9341E06EEC74E0EBDFC2E0D6E039
:1042C000688179818A819B810E949DC0AB01BC017C
:1042D00085EC94E00E9492166C817D818E819F8195
:1042E0000E949DC0AB01BC018EE392E00E94921639
:1042F000688579858A859B850E949DC0AB01BC013C
:104300008BE392E00E9492166C857D858E859F8559
:104310000E949DC0AB01BC0188E392E0DF91CF9188
:10432000C0CF0F931F93CF938091B50284FD0DC032
:104330008091B702887849F48091B802837029F49B
:1043400081E0CF911F910F91B3CF0E94FC3387FD85
:1043500014C005EC11E0C0E0F80181918F010E94CA
:104360005C17882339F00E946817AB01BC018C2FC1
:104370000E94E86ECF5FC43079F7CF911F910F9103
:104380000895CF93DF9341E06DEA74E082DFC2E0ED
:10439000D6E04CA15DA16EA17FA184EA94E00E94C9
:1043A000921648A559A56AA57BA58EE392E00E94C6
:1043B00092164CA55DA56EA57FA58BE392E00E94A9
:1043C000921648A959A96AA97BA988E392E0DF91CE
:1043D000CF9167CF0F931F93CF938091B50284FD48
:1043E0000DC08091B702887849F48091B80283703B
:1043F00029F481E0CF911F910F91C3CF0E94FC332C
:1044000087FD14C005EC11E0C0E0F80181918F0137
:104410000E945C17882339F00E946817AB01BC0129
:104420008C2F0E94FC6ECF5FC43079F7CF911F9123
:104430000F910895CF93DF9341E06AE574E029DF9F
:10444000C2E0D6E04CA95DA96EA97FA981E594E000
:104450000E94921648AD59AD6AAD7BAD8EE494E0F2
:104460000E9492164CAD5DAD6EAD7FAD8DE492E0D5
:10447000DF91CF9116CF8091B60287FD05C0809164
:10448000B7028E7009F445C083E50E945C1788234B
:1044900091F00E94681760933606709337068093F8
:1044A00038069093390660933E0670933F068093DA
:1044B00040069093410680E50E945C17882351F0E6
:1044C0000E9468176093360670933706809338060B
:1044D0009093390682E50E945C17882351F00E9470
:1044E000681760933A0670933B0680933C0690935E
:1044F0003D0684E50E945C17882369F00E946817D6
:1045000060933E0670933F06809340069093410669
:10451000089581E08FCF0895CF93DF9341E06DEC54
:1045200073E0B7DE60911206709113068091140655
:10453000909115060E949DC0AB01BC0184EC93E0F4
:104540000E949216409142065091430660914406A3
:104550007091450681EC93E00E94921640914606C8
:104560005091470660914806709149068DE492E0AB
:104570000E949216C2EDD5E0488159816A817B8103
:1045800081E492E00E9492164C815D816E817F8170
:104590008EE392E00E949216488559856A857B8554
:1045A0008BE392E00E9492164C855D856E857F8537
:1045B00088E392E0DF91CF9174CE8091B502827151
:1045C00051F48091B7028C7831F48091B8028370F5
:1045D00011F481E0A1CF82E40E945C178823C1F02E
:1045E0008091BC029091BD02009739F04AE050E002
:1045F00060E070E00E9404C503C060E070E0CB01A1
:104600006093120670931306809314069093150618
:1046100083E50E945C17882351F00E94681760931D
:10462000420670934306809344069093450684E5C2
:104630000E945C17882351F00E9468176093460619
:1046400070934706809348069093490688E50E9438
:104650005C17882339F00E946817AB01BC0180E029
:104660000E94086F89E50E945C17882339F00E9438
:104670006817AB01BC0181E00E94086F8AE50E94C7
:104680005C17882339F00E946817AB01BC0182E0F7
:104690000E94086F85E40E945C17882339F00E940D
:1046A0006817AB01BC0183E00C94086F0895CF93A9
:1046B000811115C040E063E075E00E949C33809159
:1046C000C202811104C086EF94E00E9480136AE068
:1046D0008AE492E00E94061280E00E94442FC0917A
:1046E000C2028DEE94E00E9480134C2F50E060E0F7
:1046F00070E02AE030E08AE492E00E94F11A4091F2
:10470000CE055091CF056091D0057091D1058AEE0C
:1047100094E0CF91C6CDCF92DF92EF92FF92CF93EC
:10472000DF938091B50283FD05C08091B7028C7044
:1047300009F47DC00E94FC33C82F87FD96C0D0913C
:10474000C20284E40E945C17882309F455C00E94C9
:1047500068176B017C0120E030E0A9010E9400C0D5
:10476000882309F459C084E0C802F0011124E253FF
:10477000FA4FC082D182E282F38220E030E0A901C8
:10478000C701B6010E94A2C11816D4F420E030E09F
:1047900040E05FE3C701B6010E94D6C19B01AC01B6
:1047A0000E94D6C12BED3FE049E450E40E94D6C1FF
:1047B00060934501709346018093470190934801AF
:1047C00020E030E0A9016091CE057091CF05809185
:1047D000D0059091D1050E9400C081110CC080E0ED
:1047E00090E0A0EEBFE38093CE059093CF05A09319
:1047F000D005B093D105D1E083E50E945C17C82FA6
:10480000882351F18091BC029091BD02892B59F10E
:104810000E949F1797FF13C0C0E0C093C202DF91B0
:10482000CF91FF90EF90DF90CF900C94655E81E088
:10483000DF91CF91FF90EF90DF90CF9038CF0E9423
:104840009F176F3F71058105910509F034F70E94AC
:104850009F17611108C0E0CF83E50E940E178111F8
:1048600002C0CD2FDACFC1E0D8CFDF91CF91FF903A
:10487000EF90DF90CF900895CF93DF9382E40E9472
:104880000E17882341F08091260190912701909383
:1048900002018093010182E50E940E17882341F0F6
:1048A000809101019091020190932701809326014C
:1048B00083E50E940E17882331F08091BC0290910D
:1048C000BD02009751F58091B5029091B602A0917A
:1048D000B702B091B802892B8A2B8B2B49F5C09176
:1048E0002601D091270185E195E00E948013AE0159
:1048F000DD0F660B770B2AE030E08AE492E00E943D
:10490000F11A65E28AE492E00E9406126AE08AE403
:1049100092E0DF91CF910C9406124AE050E060E003
:1049200070E00E94D9C37093270160932601CBCF1A
:10493000DF91CF9108950F931F93CF93DF930E9440
:10494000FC33C82F87FD6DC083E50E940E170C2E27
:10495000000CDD0B8823A1F18091BC029091BD0277
:10496000009771F14AE050E060E070E00E94D9C326
:10497000FE01EE0FFF1FE35BFE4F71836083CC0FE0
:10498000DD1FCC0FDD1F8E01075B1E4F072E000CB5
:10499000880B990B0E949FC02AE037ED43E25CE34D
:1049A0000E94D6C1C653DA4F288139814A815B8182
:1049B0000E94D6C1F801608371838283938331C0E2
:1049C0000E948E1365E48AE492E00E940612BE0102
:1049D000605D7F4F8AE492E00E940612CC0FDD1FDB
:1049E000C35BDE4F0990D881C02D89E195E00E941C
:1049F0008013AE01DD0F660B770B2AE030E08AE40E
:104A000092E00E94F11A65E28AE492E00E940612A6
:104A10006AE08AE492E0DF91CF911F910F910C94AC
:104A20000612DF91CF911F910F910895CF92DF92DF
:104A3000EF92FF92CF93DF93C82F41E063E375E0DD
:104A40000E949C338C2F0E94442FC0E4DDE0CB8475
:104A5000DC84ED84FE848AE295E00E948013C70125
:104A6000B6010E941D192CEA35EC47E25EE36F8522
:104A7000788989899A890E9404C06B017C0187E248
:104A800095E00E948013C701B6010E941D192CEA0F
:104A900035EC47E25EE36B897C898D899E890E94B3
:104AA000D6C16B017C0184E295E00E948013C701AE
:104AB000B6010E941D19CF88D88CE98CFA8C84E449
:104AC00092E00E948013C701B6010E941D19C09197
:104AD000170DD091180D81E295E00E948013AE0170
:104AE000DD0F660B770B2AE030E08AE492E00E944B
:104AF000F11A6AE08AE492E0DF91CF91FF90EF90A3
:104B0000DF90CF900C9406128091B5028C7029F43E
:104B10008091B602897809F480C080E50E945C1714
:104B2000882351F00E94681760934B0D70934C0DD1
:104B300080934D0D90934E0D89E40E945C1788235D
:104B400081F00E9468172CEA35EC47E25EE30E9490
:104B5000D6C160934F0D7093500D8093510D90937B
:104B6000520D84E40E945C17882381F00E9468172C
:104B70002CEA35EC47E25EE30E9404C06093530DDB
:104B80007093540D8093550D9093560D83E40E94BD
:104B90005C17882351F00E9468176093570D70933B
:104BA000580D8093590D90935A0D8CE40E945C1718
:104BB0008823A1F08091BC029091BD02009739F04A
:104BC0004AE050E060E070E00E94D9C303C060E0BA
:104BD00070E0CB017093180D6093170D8091170D45
:104BE0009091180DC39734F082E390E09093180DE4
:104BF0008093170D8091170D9091180D97FF04C0A9
:104C00001092180D1092170D1092120D1092130D94
:104C10001092140D1092150D089581E007CFCF93D7
:104C2000DF9383E50E940E17D82F882361F00E943E
:104C30009F17709368016093670121E0672B09F06B
:104C400020E02093190D80E50E940E17C82F8823BD
:104C500001F18091670190916801892BB9F08091F1
:104C6000BC029091BD02892B89F00E949F1797FD8D
:104C70000CC00E949F176F3F71058105910509F0D7
:104C80002CF40E949F17611101C0C0E0C093190D60
:104C90002BC0D11129C00E948E138AE595E00E9495
:104CA00080138091190D811103C083E595E002C046
:104CB00087E595E00E948013C0916701D09168015B
:104CC00082E495E00E948013AE01DD0F660B770B46
:104CD0002AE030E08AE492E00E94F11A8EE395E047
:104CE000DF91CF910C948013DF91CF910895CF92F3
:104CF000DF92EF92FF92CF93DF93C82F41E06CE7F2
:104D000075E00E949C338C2F0E94442FC2E2DDE0AC
:104D1000CB84DC84ED84FE8483E795E00E948013DD
:104D200022E0B701A6018AE492E00E9417142CEA5F
:104D300035EC47E25EE36F85788989899A890E941C
:104D400004C06B017C0180E795E00E94801322E0A3
:104D5000B701A6018AE492E00E9417142CEA35EC10
:104D600047E25EE36B897C898D899E890E94D6C16A
:104D70006B017C018DE695E00E94801322E0B70173
:104D8000A6018AE492E00E9417146AE08AE492E0A5
:104D9000DF91CF91FF90EF90DF90CF900C940612AF
:104DA0008091B50283FD04C08091B6028178D1F173
:104DB00080E50E940E17882351F00E9468176093C7
:104DC0002D0D70932E0D80932F0D9093300D89E44F
:104DD0000E940E17882381F00E9468172CEA35EC98
:104DE00047E25EE30E94D6C16093310D7093320DAD
:104DF0008093330D9093340D84E40E940E17882322
:104E000099F00E9468172CEA35EC47E25EE30E94B5
:104E100004C06093350D7093360D8093370D9093D9
:104E2000380D089581E063CF0895CF92DF92EF921D
:104E3000FF92CF93DF93C82F41E06CE875E00E94AA
:104E40009C338C2F0E94442FC2E0D6E0CC88DD88B2
:104E5000EE88FF8884E895E00E948013C701B601C0
:104E60000E941D19C88CD98CEA8CFB8C8EE392E0D1
:104E70000E948013C701B6010E941D19CC8CDD8CE5
:104E8000EE8CFF8C8BE392E00E948013C701B60189
:104E90000E941D19C8A0D9A0EAA0FBA088E392E057
:104EA0000E948013C701B6010E941D196AE08AE4BE
:104EB00092E0DF91CF91FF90EF90DF90CF900C9434
:104EC00006124F925F926F927F92AF92BF92CF92F3
:104ED000DF92EF92FF920F931F93CF930E94FC33C8
:104EE00087FDB1C09091B50294FD04C09091B702C6
:104EF00097FF08C089ECA82E81E0B82E02E016E0EA
:104F0000C0E014C09091B8029370A1F7682F81E0BF
:104F1000CF911F910F91FF90EF90DF90CF90BF90B6
:104F2000AF907F906F905F904F907FCFF501819110
:104F30005F010E940E17882379F08091BC02909146
:104F4000BD02892B49F0C330D9F00E946817F801DF
:104F5000648B758B868B978BCF5F0C5F1F4FC43034
:104F600029F7CF911F910F91FF90EF90DF90CF9095
:104F7000BF90AF907F906F905F904F900C94C46EF5
:104F80000E9468176B017C0120E030E040EA51E4A8
:104F90000E9400C087FF4EC0A701960160912206C3
:104FA0007091230680912406909125060E9404C0EA
:104FB0002B013C019B01AC016091DE057091DF0586
:104FC0008091E0059091E1050E94D6C16093DE05D5
:104FD0007093DF058093E0059093E105A3019201B2
:104FE00060913206709133068091340690913506B7
:104FF0000E94D6C1609332067093330680933406C4
:10500000909335066091FE057091FF058091000632
:10501000909101060E949DC0A30192010E94D6C1F9
:105020000E9471C06093FE057093FF058093000697
:1050300090930106C0922206D0922306E0922406A5
:10504000F092250689CFCF911F910F91FF90EF909D
:10505000DF90CF90BF90AF907F906F905F904F9018
:10506000089510920001089541E060E070E086E04C
:1050700092E00C9410120C94AF4FFF920F931F9379
:10508000CF93DF9383E50E940E178823B9F08091B8
:10509000BC029091BD02892B89F00E949F1797FD59
:1050A0004EC00E949F176F3F71058105910511F059
:1050B0000CF043C00E949F17609353020E948E130E
:1050C0008FEC95E00E94801380915302882339F180
:1050D00005EC15E0C0E0D0E020E08091530290E0C4
:1050E0000C2E02C0959587950A94E2F780FF10C0B8
:1050F000FF24F394F20E222329F06CE28AE492E07A
:105100000E940612F801859194910E9480132F2D20
:1051100021960E5F1F4FC530D105F9F604C081EC12
:1051200095E00E9480136AE08AE492E0DF91CF91DB
:105130001F910F91FF900C9406126FEFBDCF60E0AE
:10514000BBCF81E00C94024E80E00C94024ECF93D2
:10515000681799F0E62FF0E0A82FB0E0AF52BE4FED
:10516000EF52FE4F2C919081291307C0C1E0062E0B
:1051700001C0CC0F0A94EAF701C0C0E06F5F643051
:1051800010F4E5DF01C080E08C2BCF910895CF9320
:10519000C82F60E08C2FDBDF811104C0CF5FC430EB
:1051A00010F4F7CF81E0CF9108958091B50284FD8E
:1051B0000BC08091B70287FD07C09091B802937031
:1051C00081E019F480E0089581E008950F931F9322
:1051D000CF93DF9385E40E940E17882311F0E8E057
:1051E00001C0E0E00091B5021091B6022091B70233
:1051F0003091B802832F8170C82F80E0D82FCE0164
:10520000880F991FB901A801F9E17695679557951F
:105210004795FA95D1F7417050E0440F551F440F60
:10522000551F842B952BB7E1369527951795079534
:10523000BA95D1F70170802B8E2BDF91CF911F9102
:105240000F910895CF93C62F682F8AE492E00E94B1
:1052500006126C2F8AE492E0CF910C940612AF9262
:10526000BF92DF92EF92FF920F931F93CF93DF9342
:10527000D090F80BCD2DC095C82309F45FC09DECEC
:10528000E92E91E0F92E00E010E0D0E0AC2EB12C38
:10529000C501002E02C0959587950A94E2F780FF1C
:1052A00006C0802F0E94957EF7018081D82B0F5F6A
:1052B0001F4FFFEFEF1AFF0A0330110549F7C3FD37
:1052C0000E94DA7ECD29C095CD23C1F168E28AE43F
:1052D00092E00E94061285EDE82E81E0F82E00E0B3
:1052E00010E0D0E0CE01002E02C0959587950A947B
:1052F000E2F780FF04C060E2F7018081A3DF0F5F67
:105300001F4FFFEFEF1AFF0A0330110559F7C3FFD4
:1053100008C065E48AE492E00E94061260E280E33D
:1053200091DF86ED95E0DF91CF911F910F91FF9076
:10533000EF90DF90BF90AF900C948013DF91CF91EE
:105340001F910F91FF90EF90DF90BF90AF90089565
:105350002CDF882309F44EC080E019DF882319F080
:1053600035DF7DCF089585E40E940E17882399F0DC
:105370008091BC029091BD02009759F04AE050E044
:1053800060E070E00E94D9C3611105C00E94DA7E1E
:1053900002C00E94EB7E8091B5029091B602A0916E
:1053A000B702B091B80237E1B695A7959795879562
:1053B0003A95D1F780FF03C080E00E94957E8091EE
:1053C000B80280FF03C081E00E94957E8091B50203
:1053D0009091B602A091B702B091B80229E1B695BA
:1053E000A795979587952A95D1F780FF0AC082E007
:1053F0000C94957E60E083E096E00E9433480C9424
:10540000ED7E0895EF92FF920F931F93CF93DF935A
:10541000C82F88EE95E00E94801385EDE82E81E08C
:10542000F82E00E010E0D0E0CE01002E02C09595ED
:1054300087950A94E2F780FF04C0F701608180E25B
:1054400001DF0F5F1F4FFFEFEF1AFF0A0330110557
:1054500059F7C3FF0FC060E28AE492E00E9406128F
:1054600065E48AE492E00E94061260E38AE492E036
:105470000E94061285EE95E0DF91CF911F910F916A
:10548000FF90EF900C9480137F928F929F92AF9237
:10549000BF92CF92DF92EF92FF920F931F93CF9321
:1054A000DF93C091F80BC82309F46AC0D82F9DEC94
:1054B000E92E91E0F92E470100E010E0C82ED12C32
:1054C000AA24A394B12CC601002E02C095958795FD
:1054D0000A94E2F780FF10C0802F0E94AE7E8823DE
:1054E00059F0C501002E01C0880F0A94EAF7F401B3
:1054F0009081892B8095C8230F5F1F4FFFEF8F1A74
:105500009F0A03301105F9F6D3FF04C00E94E17E23
:105510008111C77F85EDC82E81E0D82E00E010E014
:10552000AC2EB12CC501002E02C0959587950A942A
:10553000E2F780FF0CC0F60160818AE492E00E94ED
:1055400006129091F80BF701808189235BDF0F5FD2
:105550001F4FFFEFCF1ADF0A8FEFE81AF80A033068
:10556000110501F7C3FF0CC065E48AE492E00E94D4
:10557000061260E38AE492E00E94061280E042DFB5
:10558000DF91CF911F910F91FF90EF90DF90CF901F
:10559000BF90AF909F908F907F9008950F931F932F
:1055A000CF9383E50E940E17882339F08091BC02C7
:1055B0009091BD02009709F04AC0F7DD882309F4F5
:1055C00041C00E94776080E0E2DD882319F0FEDDB3
:1055D0005BDF7BC085E40E940E1781110E94EC7E88
:1055E0008091B5029091B602A091B702B091B80235
:1055F00037E1B695A795979587953A95D1F780FFAE
:1056000003C080E00E94AE7E8091B80280FF03C09C
:1056100081E00E94AE7E8091B5029091B602A09189
:10562000B702B091B80229E1B695A79597958795ED
:105630002A95D1F780FF49C082E0CF911F910F9149
:105640000C94AE7ECF911F910F910C944F600FB6CA
:10565000F894409195125091961260919712709122
:1056600098120FBE4093960250939702609398024F
:1056700070939902FC018F01C1912C2F2F7D89F02D
:10568000C53411F0C536B9F7F801108260E070E05A
:105690008091BC029091BD020E9486C2F801C08335
:1056A00004C060E070E00E9486C220E030E04AE77B
:1056B00054E40E94D6C10E9471C0609304017093AB
:1056C00005018093060190930701CF911F910F91DF
:1056D00008952F923F924F925F926F927F928F9296
:1056E0009F92AF92BF92CF92DF92EF92FF920F9371
:1056F0001F93CF93DF93CDB7DEB7A0970FB6F89483
:10570000DEBF0FBECDBFF82E41E06BE276E00E9417
:105710009C338F2DB9D308E011E0D8018C9190E330
:10572000E92EE80E82E296E00E9480136E2D8AE454
:1057300092E00E9406128EE196E00E948013F8012A
:1057400080810E949C138F2D9FD3D8011696CD90F7
:10575000DD90ED90FC9019971A968D919D910D908A
:10576000BC91A02D898F9A8FAB8FBC8F23E1222E05
:1057700025E0322EF1014080518062807380A301C8
:105780009201D80112966D917D918D919C91159702
:105790000E9489BF6D877E878F87988BF1018480F7
:1057A0009580A680B780A5019401C701B6010E942B
:1057B00089BF698B7A8B8B8B9C8BD1011896CD908E
:1057C000DD90ED90FC901B97A7019601698D7A8D75
:1057D0008B8D9C8D0E9489BF6D8B7E8B8F8B988F5C
:1057E000D80152968D919D910D90BC91A02D898FDD
:1057F0009A8FAB8FBC8FD80156968D919D910D904D
:10580000BC91A02D8D8F9E8FAF8FB8A3A301920165
:10581000F80166857785808991890E9489BF6983AF
:105820007A838B839C83A5019401698D7A8D8B8DFE
:105830009C8D0E9489BF6D837E838F839887A7018B
:1058400096016D8D7E8D8F8D98A10E9489BF69878D
:105850007A878B879C870CE116E024E136E0AE0165
:105860004B5E5F4FBE016F5E7F4FCE010D960E9473
:10587000961400E010E02CE036E0AE01475F5F4F89
:10588000BE016B5F7F4FCE0101960E949614A096D9
:105890000FB6F894DEBF0FBECDBFDF91CF911F9141
:1058A0000F91FF90EF90DF90CF90BF90AF909F90BF
:1058B0008F907F906F905F904F903F902F900895C2
:1058C000CF9383E50E940E17C82F8823E1F08091C3
:1058D000BC029091BD02892B91F00E949F1797FD09
:1058E0000DC00E949F176F3F71058105910509F05A
:1058F00034F40E949F17C1E0611101C0C0E0C09361
:105900000801CF91089581E0CF91E3CE0C947760A8
:105910000E944F6060E070E080E00E94E1880E9499
:10592000ED8C0E94134968EE73E080E090E00E94E5
:10593000F11460E089E396E00C9433480F931F93D1
:10594000CF9383E50E940E17882309F451C00FB648
:10595000F8948091951290919612A0919712B0911F
:1059600098120FBE8093960290939702A09398028C
:10597000B09399028091BC029091BD02009701F111
:10598000FC018F01C1912C2F2F7D89F0C53411F0BE
:10599000C536B9F7F801108260E070E08091BC0272
:1059A0009091BD020E9486C2F801C08304C060E0ED
:1059B00070E00E9486C2B62FA72FF82FE92F04C0EF
:1059C000B0E0A0E0F0E0E0E020E030E04AE754E4BE
:1059D0006B2F7A2F8F2F9E2F0E94D6C10E9471C0ED
:1059E0006093920270939302809394029093950235
:1059F000CF911F910F91089583E08093510283E529
:105A00000E940E17882331F08091BC029091BD0254
:105A1000892B31F483E50E940E17882389F00895BD
:105A20000E949F1797FD0CC00E949F176F3F710542
:105A30008105910509F03CF40E949F17611103C094
:105A400080E00C94904108950FB6F894409195121F
:105A50005091961260919712709198120FBE4093D8
:105A6000960250939702609398027093990260E0B7
:105A70000C94099C0C9485770C94327E0C941375CD
:105A8000CF9383E50E940E17C82F882331F08091B1
:105A9000BC029091BD02892B49F483E50E940E1748
:105AA000C1E081E08C27CF910C947F760E949F17F4
:105AB00097FD0DC00E949F176F3F710581059105ED
:105AC00009F07CF70E949F17C1E06111EACFC0E0A6
:105AD000E8CF0E942B7E882331F00E948E1385E54B
